{
  "contractName": "AssetSwap",
  "abi": [
    {
      "constant": true,
      "inputs": [],
      "name": "lastComputeReturnsTime",
      "outputs": [
        {
          "name": "",
          "type": "uint256"
        }
      ],
      "payable": false,
      "stateMutability": "view",
      "type": "function"
    },
    {
      "constant": true,
      "inputs": [],
      "name": "leverageRatio",
      "outputs": [
        {
          "name": "",
          "type": "uint16"
        }
      ],
      "payable": false,
      "stateMutability": "view",
      "type": "function"
    },
    {
      "constant": true,
      "inputs": [],
      "name": "takerShortRate",
      "outputs": [
        {
          "name": "",
          "type": "int16"
        }
      ],
      "payable": false,
      "stateMutability": "view",
      "type": "function"
    },
    {
      "constant": true,
      "inputs": [],
      "name": "burnFees",
      "outputs": [
        {
          "name": "",
          "type": "uint256"
        }
      ],
      "payable": false,
      "stateMutability": "view",
      "type": "function"
    },
    {
      "constant": true,
      "inputs": [],
      "name": "feeAddress",
      "outputs": [
        {
          "name": "",
          "type": "address"
        }
      ],
      "payable": false,
      "stateMutability": "view",
      "type": "function"
    },
    {
      "constant": true,
      "inputs": [
        {
          "name": "",
          "type": "address"
        }
      ],
      "name": "admins",
      "outputs": [
        {
          "name": "",
          "type": "bool"
        }
      ],
      "payable": false,
      "stateMutability": "view",
      "type": "function"
    },
    {
      "constant": true,
      "inputs": [],
      "name": "isETHDenominated",
      "outputs": [
        {
          "name": "",
          "type": "bool"
        }
      ],
      "payable": false,
      "stateMutability": "view",
      "type": "function"
    },
    {
      "constant": true,
      "inputs": [
        {
          "name": "",
          "type": "address"
        }
      ],
      "name": "books",
      "outputs": [
        {
          "name": "",
          "type": "address"
        }
      ],
      "payable": false,
      "stateMutability": "view",
      "type": "function"
    },
    {
      "constant": true,
      "inputs": [],
      "name": "oracle",
      "outputs": [
        {
          "name": "",
          "type": "address"
        }
      ],
      "payable": false,
      "stateMutability": "view",
      "type": "function"
    },
    {
      "constant": true,
      "inputs": [],
      "name": "ASSET_ID",
      "outputs": [
        {
          "name": "",
          "type": "uint256"
        }
      ],
      "payable": false,
      "stateMutability": "view",
      "type": "function"
    },
    {
      "constant": true,
      "inputs": [],
      "name": "isPaused",
      "outputs": [
        {
          "name": "",
          "type": "bool"
        }
      ],
      "payable": false,
      "stateMutability": "view",
      "type": "function"
    },
    {
      "constant": true,
      "inputs": [
        {
          "name": "",
          "type": "address"
        }
      ],
      "name": "withdrawBalances",
      "outputs": [
        {
          "name": "",
          "type": "uint256"
        }
      ],
      "payable": false,
      "stateMutability": "view",
      "type": "function"
    },
    {
      "constant": true,
      "inputs": [],
      "name": "longProfited",
      "outputs": [
        {
          "name": "",
          "type": "bool"
        }
      ],
      "payable": false,
      "stateMutability": "view",
      "type": "function"
    },
    {
      "constant": true,
      "inputs": [],
      "name": "takerLongRate",
      "outputs": [
        {
          "name": "",
          "type": "int16"
        }
      ],
      "payable": false,
      "stateMutability": "view",
      "type": "function"
    },
    {
      "constant": true,
      "inputs": [],
      "name": "BURN_ADDRESS",
      "outputs": [
        {
          "name": "",
          "type": "address"
        }
      ],
      "payable": false,
      "stateMutability": "view",
      "type": "function"
    },
    {
      "inputs": [
        {
          "name": "_admin",
          "type": "address"
        },
        {
          "name": "priceOracle",
          "type": "address"
        },
        {
          "name": "assetID",
          "type": "uint256"
        },
        {
          "name": "_leverageRatio",
          "type": "uint16"
        },
        {
          "name": "_isETHDenominated",
          "type": "bool"
        }
      ],
      "payable": false,
      "stateMutability": "nonpayable",
      "type": "constructor"
    },
    {
      "anonymous": false,
      "inputs": [
        {
          "indexed": false,
          "name": "lp",
          "type": "address"
        },
        {
          "indexed": true,
          "name": "taker",
          "type": "address"
        },
        {
          "indexed": false,
          "name": "id",
          "type": "bytes32"
        }
      ],
      "name": "OrderTaken",
      "type": "event"
    },
    {
      "anonymous": false,
      "inputs": [
        {
          "indexed": false,
          "name": "lp",
          "type": "address"
        },
        {
          "indexed": false,
          "name": "startDay",
          "type": "uint8"
        }
      ],
      "name": "FirstPrice",
      "type": "event"
    },
    {
      "anonymous": false,
      "inputs": [
        {
          "indexed": false,
          "name": "lp",
          "type": "address"
        },
        {
          "indexed": false,
          "name": "id",
          "type": "bytes32"
        },
        {
          "indexed": false,
          "name": "sender",
          "type": "address"
        }
      ],
      "name": "Burn",
      "type": "event"
    },
    {
      "anonymous": false,
      "inputs": [
        {
          "indexed": false,
          "name": "target",
          "type": "int16"
        },
        {
          "indexed": false,
          "name": "basis",
          "type": "int16"
        }
      ],
      "name": "RatesUpdated",
      "type": "event"
    },
    {
      "constant": false,
      "inputs": [
        {
          "name": "target",
          "type": "int16"
        },
        {
          "name": "basis",
          "type": "int16"
        }
      ],
      "name": "setRates",
      "outputs": [],
      "payable": false,
      "stateMutability": "nonpayable",
      "type": "function"
    },
    {
      "constant": false,
      "inputs": [
        {
          "name": "lp",
          "type": "address"
        },
        {
          "name": "id",
          "type": "bytes32"
        }
      ],
      "name": "adminCancel",
      "outputs": [],
      "payable": false,
      "stateMutability": "nonpayable",
      "type": "function"
    },
    {
      "constant": false,
      "inputs": [
        {
          "name": "min",
          "type": "uint256"
        }
      ],
      "name": "createBook",
      "outputs": [
        {
          "name": "newBook",
          "type": "address"
        }
      ],
      "payable": false,
      "stateMutability": "nonpayable",
      "type": "function"
    },
    {
      "constant": false,
      "inputs": [
        {
          "name": "min",
          "type": "uint256"
        }
      ],
      "name": "adjustMinRM",
      "outputs": [],
      "payable": false,
      "stateMutability": "nonpayable",
      "type": "function"
    },
    {
      "constant": false,
      "inputs": [
        {
          "name": "lp",
          "type": "address"
        },
        {
          "name": "amount",
          "type": "uint256"
        },
        {
          "name": "takerSide",
          "type": "bool"
        }
      ],
      "name": "take",
      "outputs": [],
      "payable": true,
      "stateMutability": "payable",
      "type": "function"
    },
    {
      "constant": false,
      "inputs": [
        {
          "name": "lp",
          "type": "address"
        },
        {
          "name": "id",
          "type": "bytes32"
        }
      ],
      "name": "playerBurn",
      "outputs": [],
      "payable": true,
      "stateMutability": "payable",
      "type": "function"
    },
    {
      "constant": false,
      "inputs": [
        {
          "name": "lp",
          "type": "address"
        },
        {
          "name": "id",
          "type": "bytes32"
        }
      ],
      "name": "playerCancel",
      "outputs": [],
      "payable": true,
      "stateMutability": "payable",
      "type": "function"
    },
    {
      "constant": false,
      "inputs": [
        {
          "name": "lp",
          "type": "address"
        },
        {
          "name": "id",
          "type": "bytes32"
        }
      ],
      "name": "takerFund",
      "outputs": [],
      "payable": true,
      "stateMutability": "payable",
      "type": "function"
    },
    {
      "constant": false,
      "inputs": [
        {
          "name": "lp",
          "type": "address"
        }
      ],
      "name": "lpFund",
      "outputs": [],
      "payable": true,
      "stateMutability": "payable",
      "type": "function"
    },
    {
      "constant": false,
      "inputs": [
        {
          "name": "amount",
          "type": "uint256"
        },
        {
          "name": "lp",
          "type": "address"
        },
        {
          "name": "id",
          "type": "bytes32"
        }
      ],
      "name": "takerWithdrawal",
      "outputs": [],
      "payable": false,
      "stateMutability": "nonpayable",
      "type": "function"
    },
    {
      "constant": false,
      "inputs": [
        {
          "name": "amount",
          "type": "uint256"
        }
      ],
      "name": "lpMarginWithdrawal",
      "outputs": [],
      "payable": false,
      "stateMutability": "nonpayable",
      "type": "function"
    },
    {
      "constant": false,
      "inputs": [],
      "name": "withdrawBalance",
      "outputs": [],
      "payable": false,
      "stateMutability": "nonpayable",
      "type": "function"
    },
    {
      "constant": true,
      "inputs": [
        {
          "name": "lp",
          "type": "address"
        }
      ],
      "name": "getBookData",
      "outputs": [
        {
          "name": "book",
          "type": "address"
        },
        {
          "name": "lpMargin",
          "type": "uint256"
        },
        {
          "name": "totalLong",
          "type": "uint256"
        },
        {
          "name": "totalShort",
          "type": "uint256"
        },
        {
          "name": "lpRM",
          "type": "uint256"
        },
        {
          "name": "numContracts",
          "type": "uint256"
        },
        {
          "name": "bookMinimum",
          "type": "uint256"
        },
        {
          "name": "lpDefaulted",
          "type": "bool"
        }
      ],
      "payable": false,
      "stateMutability": "view",
      "type": "function"
    },
    {
      "constant": true,
      "inputs": [
        {
          "name": "lp",
          "type": "address"
        },
        {
          "name": "id",
          "type": "bytes32"
        }
      ],
      "name": "getSubcontractData",
      "outputs": [
        {
          "name": "takerMargin",
          "type": "uint256"
        },
        {
          "name": "reqMargin",
          "type": "uint256"
        },
        {
          "name": "initialDay",
          "type": "uint8"
        },
        {
          "name": "side",
          "type": "bool"
        }
      ],
      "payable": false,
      "stateMutability": "view",
      "type": "function"
    },
    {
      "constant": true,
      "inputs": [
        {
          "name": "lp",
          "type": "address"
        },
        {
          "name": "id",
          "type": "bytes32"
        }
      ],
      "name": "getSubcontractStatus",
      "outputs": [
        {
          "name": "isCancelled",
          "type": "bool"
        },
        {
          "name": "isBurned",
          "type": "bool"
        },
        {
          "name": "toDelete",
          "type": "bool"
        },
        {
          "name": "takerCloseDiscount",
          "type": "bool"
        }
      ],
      "payable": false,
      "stateMutability": "view",
      "type": "function"
    },
    {
      "constant": false,
      "inputs": [
        {
          "name": "lp",
          "type": "address"
        }
      ],
      "name": "priceInitialization",
      "outputs": [],
      "payable": false,
      "stateMutability": "nonpayable",
      "type": "function"
    },
    {
      "constant": false,
      "inputs": [],
      "name": "computeReturns",
      "outputs": [],
      "payable": false,
      "stateMutability": "nonpayable",
      "type": "function"
    },
    {
      "constant": false,
      "inputs": [
        {
          "name": "lp",
          "type": "address"
        }
      ],
      "name": "settle",
      "outputs": [],
      "payable": false,
      "stateMutability": "nonpayable",
      "type": "function"
    },
    {
      "constant": false,
      "inputs": [
        {
          "name": "pauseValue",
          "type": "bool"
        }
      ],
      "name": "pause",
      "outputs": [],
      "payable": false,
      "stateMutability": "nonpayable",
      "type": "function"
    },
    {
      "constant": false,
      "inputs": [],
      "name": "emptyBurn",
      "outputs": [],
      "payable": false,
      "stateMutability": "nonpayable",
      "type": "function"
    },
    {
      "constant": false,
      "inputs": [
        {
          "name": "recipient",
          "type": "address"
        }
      ],
      "name": "balanceTransfer",
      "outputs": [],
      "payable": true,
      "stateMutability": "payable",
      "type": "function"
    },
    {
      "constant": false,
      "inputs": [
        {
          "name": "lp",
          "type": "address"
        },
        {
          "name": "id",
          "type": "bytes32"
        }
      ],
      "name": "redeem",
      "outputs": [],
      "payable": false,
      "stateMutability": "nonpayable",
      "type": "function"
    },
    {
      "constant": false,
      "inputs": [
        {
          "name": "newAddress",
          "type": "address"
        }
      ],
      "name": "changeFeeAddress",
      "outputs": [],
      "payable": false,
      "stateMutability": "nonpayable",
      "type": "function"
    },
    {
      "constant": false,
      "inputs": [
        {
          "name": "newAdmin",
          "type": "address"
        }
      ],
      "name": "addAdmin",
      "outputs": [],
      "payable": false,
      "stateMutability": "nonpayable",
      "type": "function"
    },
    {
      "constant": false,
      "inputs": [
        {
          "name": "toRemove",
          "type": "address"
        }
      ],
      "name": "removeAdmin",
      "outputs": [],
      "payable": false,
      "stateMutability": "nonpayable",
      "type": "function"
    }
  ],
  "bytecode": "0x608060405234801561001057600080fd5b5060405160a0806151b78339810160409081528151602080840151838501516060860151608090960151600160a060020a0394851660009081526017909452948320805460ff199081166001908117909255845495909316600160a060020a03199095169490941790925591556002805461ffff909416650100000000000266ffff0000000000199315159490921693909317919091161790556150fe806100b96000396000f300608060405260043610620002165763ffffffff7c010000000000000000000000000000000000000000000000000000000060003504166302329a2981146200021b578063023bfcee146200023a578063082ad6ac14620002645780630ea37a5c14620002935780631785f53c14620002ac5780631978de2b14620002d05780631e36c83f146200032157806324f8634a1462000352578063285e1406146200036b5780632b1f38ce146200038f57806340f6ac3114620003b35780634127535814620003cb578063429b62e514620003ff5780634832d3ca14620004375780635fd8c71014620004525780636127e697146200046a57806367f534ae14620004855780636a256b29146200049d5780637048027514620004c1578063714bc3fb14620004e557806374eb1e5f146200050f5780637dc0d1d014620005335780637f21f9e7146200054b57806387bd2bbc14620005725780638b3b42c114620005885780639ceb21ae14620005a15780639e8c0cb114620005b9578063b187bd2614620005df578063b74bf3e814620005f7578063b9ac6767146200060d578063c85c89251462000628578063ca1e455d146200064f578063ca64a02d146200066d578063d651fb201462000691578063d9cf7e7114620006a9578063e271d4c614620006c1578063e92e32f914620006d9578063f9fe553a146200072a578063fccc28131462000742578063ffd9881b146200075a575b600080fd5b3480156200022857600080fd5b50620002386004351515620007cb565b005b3480156200024757600080fd5b5062000252620007fd565b60408051918252519081900360200190f35b3480156200027157600080fd5b506200027c62000803565b6040805161ffff9092168252519081900360200190f35b62000238600160a060020a036004351660243562000816565b348015620002b957600080fd5b5062000238600160a060020a0360043516620008d2565b348015620002dd57600080fd5b50620002f7600160a060020a0360043516602435620009a0565b60408051948552602085019390935260ff9091168383015215156060830152519081900360800190f35b3480156200032e57600080fd5b506200033962000a89565b60408051600192830b90920b8252519081900360200190f35b62000238600160a060020a036004351660243562000a99565b3480156200037857600080fd5b5062000238600160a060020a036004351662000be9565b3480156200039c57600080fd5b5062000238600160a060020a036004351662000c37565b348015620003c057600080fd5b506200025262000e6d565b348015620003d857600080fd5b50620003e362000e73565b60408051600160a060020a039092168252519081900360200190f35b3480156200040c57600080fd5b5062000423600160a060020a036004351662000e82565b604080519115158252519081900360200190f35b3480156200044457600080fd5b506200023860043562000e97565b3480156200045f57600080fd5b506200023862000ff5565b3480156200047757600080fd5b50620002386004356200103b565b3480156200049257600080fd5b50620004236200119f565b348015620004aa57600080fd5b5062000238600160a060020a0360043516620011a8565b348015620004ce57600080fd5b5062000238600160a060020a036004351662001405565b348015620004f257600080fd5b5062000238600435600160a060020a036024351660443562001448565b3480156200051c57600080fd5b50620003e3600160a060020a0360043516620015b9565b3480156200054057600080fd5b50620003e3620015d4565b3480156200055857600080fd5b5062000238600160a060020a0360043516602435620015e3565b62000238600160a060020a036004351662001674565b62000238600160a060020a0360043516602435620016bb565b348015620005ae57600080fd5b5062000252620017de565b348015620005c657600080fd5b5062000238600435600190810b90602435900b620017e4565b348015620005ec57600080fd5b506200042362001971565b62000238600160a060020a03600435166200197a565b3480156200061a57600080fd5b50620003e360043562001a10565b3480156200063557600080fd5b5062000238600160a060020a036004351660243562001b97565b62000238600160a060020a0360043516602435604435151562001c32565b3480156200067a57600080fd5b5062000252600160a060020a036004351662002163565b3480156200069e57600080fd5b506200042362002175565b348015620006b657600080fd5b50620002386200217e565b348015620006ce57600080fd5b5062000339620021d9565b348015620006e657600080fd5b5062000700600160a060020a0360043516602435620021e7565b60408051941515855292151560208501529015158383015215156060830152519081900360800190f35b3480156200073757600080fd5b5062000238620022cf565b3480156200074f57600080fd5b50620003e3620028db565b3480156200076757600080fd5b506200077e600160a060020a0360043516620028e1565b60408051600160a060020a0390991689526020890197909752878701959095526060870193909352608086019190915260a085015260c0840152151560e083015251908190036101000190f35b3360009081526017602052604090205460ff161515620007ea57600080fd5b601a805460ff1916911515919091179055565b60135481565b60025465010000000000900461ffff1681565b600160a060020a0380831660009081526015602052604081205490911615156200083f57600080fd5b50600160a060020a038083166000908152601560205260408082205481517f92ef178500000000000000000000000000000000000000000000000000000000815260048101869052915193169283926392ef17859234926024808301939282900301818588803b158015620008b357600080fd5b505af1158015620008c8573d6000803e3d6000fd5b5050505050505050565b3360009081526017602052604090205460ff161515620008f157600080fd5b600160a060020a0381163314156200097f5760408051600080516020620050b3833981519152815260206004820152602860248201527f596f75206d6179206e6f742072656d6f766520796f757273656c66206173206160448201527f6e2061646d696e2e000000000000000000000000000000000000000000000000606482015290519081900360840190fd5b600160a060020a03166000908152601760205260409020805460ff19169055565b600160a060020a0380831660009081526015602052604081205490918291829182911681811562000a7e5750604080517f45349baa0000000000000000000000000000000000000000000000000000000081526004810188905290518291600160a060020a038316916345349baa91602480820192610100929091908290030181600087803b15801562000a3357600080fd5b505af115801562000a48573d6000803e3d6000fd5b505050506040513d61010081101562000a6057600080fd5b50805160208201516040830151606090930151919850965090945092505b505092959194509250565b6002546301000000900460010b81565b600160a060020a0380831660009081526015602090815260408083205481517f346a9074000000000000000000000000000000000000000000000000000000008152600481018790523360248201523460448201529151941693849263346a9074926064808201939182900301818787803b15801562000b1857600080fd5b505af115801562000b2d573d6000803e3d6000fd5b505050506040513d602081101562000b4457600080fd5b505160195490915062000b5e908263ffffffff62002cf916565b6019553360009081526016602052604090205462000b86903483900363ffffffff62002cf916565b33600081815260166020908152604091829020939093558051600160a060020a038816815292830186905282810191909152517f149942d878346b6adfbcd0c929bbbccabd318cb6b33554e0251aed6cf60fe1469181900360600190a150505050565b3360009081526017602052604090205460ff16151562000c0857600080fd5b6018805473ffffffffffffffffffffffffffffffffffffffff1916600160a060020a0392909216919091179055565b3360009081526017602052604081205481908190819060ff16151562000c5c57600080fd5b600160a060020a0380861660009081526015602052604090205416151562000cd45760408051600080516020620050b3833981519152815260206004820152601360248201527f426f6f6b20646f6573206e6f7420657869737400000000000000000000000000604482015290519081900360640190fd5b600160a060020a0380861660009081526015602052604080822054825460015483517fcf35bdd00000000000000000000000000000000000000000000000000000000081526004810191909152925191851698509093169263cf35bdd09260248084019360a093929083900390910190829087803b15801562000d5657600080fd5b505af115801562000d6b573d6000803e3d6000fd5b505050506040513d60a081101562000d8257600080fd5b50606081015160809091015190935091505060018201811562000da3575060005b604080517f98656f1e00000000000000000000000000000000000000000000000000000000815260ff831660048201529051600160a060020a038616916398656f1e91602480830192600092919082900301818387803b15801562000e0757600080fd5b505af115801562000e1c573d6000803e3d6000fd5b505060408051600160a060020a038916815260ff8516602082015281517f565153f7c98e9a57f5146ca9ef82e7f612147fb49364943dbf1ef45dafa800ff9450908190039091019150a15050505050565b60195481565b601854600160a060020a031681565b60176020526000908152604090205460ff1681565b336000908152601560205260408120548190600160a060020a0316151562000ebe57600080fd5b33600090815260156020908152604080832054835460015483517f11236ca000000000000000000000000000000000000000000000000000000000815260048101919091529251600160a060020a0392831697509116936311236ca093602480850194919392918390030190829087803b15801562000f3c57600080fd5b505af115801562000f51573d6000803e3d6000fd5b505050506040513d602081101562000f6857600080fd5b5051604080517f757d991500000000000000000000000000000000000000000000000000000000815260048101869052602481018390529051919250600160a060020a0384169163757d99159160448082019260009290919082900301818387803b15801562000fd757600080fd5b505af115801562000fec573d6000803e3d6000fd5b50505050505050565b33600081815260166020526040808220805490839055905190929183156108fc02918491818181858888f1935050505015801562001037573d6000803e3d6000fd5b5050565b33600090815260156020526040812054600160a060020a03161515620010b15760408051600080516020620050b3833981519152815260206004820152601560248201527f55736572206d7573742068617665206120626f6f6b0000000000000000000000604482015290519081900360640190fd5b600a821015620011115760408051600080516020620050b3833981519152815260206004820152601560248201527f4d757374206d65657420746865206d696e696d756d0000000000000000000000604482015290519081900360640190fd5b50336000908152601560205260408082205481517f6127e697000000000000000000000000000000000000000000000000000000008152600481018590529151600160a060020a03909116928392636127e697926024808301939282900301818387803b1580156200118257600080fd5b505af115801562001197573d6000803e3d6000fd5b505050505050565b60025460ff1681565b33600090815260176020526040812054819060ff161515620011c957600080fd5b600160a060020a03808416600090815260156020526040902054161515620011f057600080fd5b600160a060020a03808416600090815260156020908152604080832054835460015483517feed42acc0000000000000000000000000000000000000000000000000000000081526004810191909152925191861697509094169363eed42acc93602480840194938390030190829087803b1580156200126e57600080fd5b505af115801562001283573d6000803e3d6000fd5b505050506040513d60208110156200129a57600080fd5b50516013549091508110620012ae57600080fd5b60008054600154604080517fae9308b7000000000000000000000000000000000000000000000000000000008152600481019290925251600160a060020a039092169263ae9308b7926024808401936020939083900390910190829087803b1580156200131a57600080fd5b505af11580156200132f573d6000803e3d6000fd5b505050506040513d60208110156200134657600080fd5b505115156200135457600080fd5b6014546040517f31ca7e5b000000000000000000000000000000000000000000000000000000008152600160a060020a038416916331ca7e5b91600391600b9160ff9091169060048101906101040184825b815481526020019060010190808311620013a657505061010081019084905b815481526020019060010190808311620013c5575050821515151581526020019350505050600060405180830381600087803b15801562000fd757600080fd5b3360009081526017602052604090205460ff1615156200142457600080fd5b600160a060020a03166000908152601760205260409020805460ff19166001179055565b600160a060020a03808316600090815260156020526040812054909182911615156200147357600080fd5b600160a060020a03808516600090815260156020908152604080832054835460015483517f11236ca0000000000000000000000000000000000000000000000000000000008152600481019190915292519186169750909416936311236ca093602480840194938390030190829087803b158015620014f157600080fd5b505af115801562001506573d6000803e3d6000fd5b505050506040513d60208110156200151d57600080fd5b5051604080517f8ca0fd390000000000000000000000000000000000000000000000000000000081526004810186905260248101889052604481018390523360648201529051919250600160a060020a03841691638ca0fd399160848082019260009290919082900301818387803b1580156200159957600080fd5b505af1158015620015ae573d6000803e3d6000fd5b505050505050505050565b601560205260009081526040902054600160a060020a031681565b600054600160a060020a031681565b3360009081526017602052604081205460ff1615156200160257600080fd5b50600160a060020a038083166000908152601560205260408082205481517f1fd1a58a0000000000000000000000000000000000000000000000000000000081526004810186905291519316928392631fd1a58a926024808201939182900301818387803b15801562000fd757600080fd5b600160a060020a0381166000908152601660205260409020546200169f903463ffffffff62002cf916565b600160a060020a03909116600090815260166020526040902055565b600160a060020a03808316600090815260156020908152604080832054835460015483517f11236ca0000000000000000000000000000000000000000000000000000000008152600481019190915292519186169516926311236ca0926024808201939182900301818787803b1580156200173557600080fd5b505af11580156200174a573d6000803e3d6000fd5b505050506040513d60208110156200176157600080fd5b5051604080517fa788d7490000000000000000000000000000000000000000000000000000000081526004810183905260248101869052336044820152609660648201529051919250600160a060020a0384169163a788d749913491608480830192600092919082900301818588803b1580156200159957600080fd5b60015481565b3360009081526017602052604090205460ff1615156200180357600080fd5b8160010b60001280156200181a575060648260010b125b1515620018775760408051600080516020620050b3833981519152815260206004820152601f60248201527f546172676574206d757374206265206265747765656e203020616e6420312500604482015290519081900360640190fd5b8060010b60c7191280156200188f575060c88160010b125b1515620018ec5760408051600080516020620050b3833981519152815260206004820152601f60248201527f4261736973206d757374206265206265747765656e202d3220616e6420322500604482015290519081900360640190fd5b60028054828403600190810b61ffff90811663010000000264ffff00000019878701840b9092166101000262ffff00199094169390931716919091179091556040805184830b830b815283830b90920b602083015280517f9583991f6e74a53432b73b80e30112f2f25ba2e4b87f9d262da740b69560f8a69281900390910190a15050565b601a5460ff1681565b600160a060020a038082166000908152601560205260408120549091161515620019a357600080fd5b50600160a060020a038082166000908152601560205260408082205481517f4e5339d500000000000000000000000000000000000000000000000000000000815291519316928392634e5339d59234926004808301939282900301818588803b15801562000fd757600080fd5b33600090815260156020526040812054600160a060020a03161562001aab5760408051600080516020620050b3833981519152815260206004820152602560248201527f55736572206d757374206e6f7420686176652061207072656578697374696e6760448201527f20626f6f6b000000000000000000000000000000000000000000000000000000606482015290519081900360840190fd5b600a82101562001b0b5760408051600080516020620050b3833981519152815260206004820152601560248201527f4d757374206d65657420746865206d696e696d756d0000000000000000000000604482015290519081900360640190fd5b33308362001b1862002d0d565b600160a060020a039384168152919092166020820152604080820192909252905190819003606001906000f08015801562001b57573d6000803e3d6000fd5b50336000908152601560205260409020805473ffffffffffffffffffffffffffffffffffffffff1916600160a060020a0392831617908190551692915050565b600160a060020a03808316600090815260156020526040812054909116151562001bc057600080fd5b50600160a060020a038083166000908152601560205260408082205481517fd11fdf3f000000000000000000000000000000000000000000000000000000008152600481018690529151931692839263d11fdf3f926024808201939182900301818387803b15801562000fd757600080fd5b601a546000908190819081908190819060ff161562001ca15760408051600080516020620050b3833981519152815260206004820152601860248201527f436f6e747261637420686173206265656e207061757365640000000000000000604482015290519081900360640190fd5b670de0b6b3a7640000880234101562001d0a5760408051600080516020620050b3833981519152815260206004820152601a60248201527f496e7375666669656e742045544820666f72207468697320524d000000000000604482015290519081900360640190fd5b600a88101562001d905760408051600080516020620050b3833981519152815260206004820152602260248201527f524d206d757374206265206c6172676572207468616e20746865206d696e696d60448201527f756d000000000000000000000000000000000000000000000000000000000000606482015290519081900360840190fd5b600160a060020a03808a1660009081526015602090815260408083205481517fe09b0a95000000000000000000000000000000000000000000000000000000008152915194169950899363e09b0a9593600480840194938390030190829087803b15801562001dfe57600080fd5b505af115801562001e13573d6000803e3d6000fd5b505050506040513d602081101562001e2a57600080fd5b5051604080517f2ac6da140000000000000000000000000000000000000000000000000000000081529051919650600160a060020a03881691632ac6da14916004808201926020929091908290030181600087803b15801562001e8c57600080fd5b505af115801562001ea1573d6000803e3d6000fd5b505050506040513d602081101562001eb857600080fd5b5051604080517f6258fe44000000000000000000000000000000000000000000000000000000008152905191955060009450600160a060020a03881691636258fe449160048082019260209290919082900301818987803b15801562001f1d57600080fd5b505af115801562001f32573d6000803e3d6000fd5b505050506040513d602081101562001f4957600080fd5b50519150861562001f69578385111562001f635783850392505b62001f78565b8484111562001f785784840392505b8260028388600160a060020a031663604686686040518163ffffffff167c0100000000000000000000000000000000000000000000000000000000028152600401602060405180830381600087803b15801562001fd457600080fd5b505af115801562001fe9573d6000803e3d6000fd5b505050506040513d60208110156200200057600080fd5b5051038115156200200d57fe5b04018811156200206d5760408051600080516020620050b3833981519152815260206004820152601760248201527f524d20746f206c6172676520666f722074686973204c50000000000000000000604482015290519081900360640190fd5b604080517fca1e455d000000000000000000000000000000000000000000000000000000008152336004820152602481018a905288151560448201529051600160a060020a0388169163ca1e455d91349160648082019260209290919082900301818588803b158015620020e057600080fd5b505af1158015620020f5573d6000803e3d6000fd5b50505050506040513d60208110156200210d57600080fd5b505160408051600160a060020a038c16815260208101839052815192935033927fe95b84089158c05865c3d665e3a7f684fe6e53021697288c8c498d6e2f9d40a5929181900390910190a2505050505050505050565b60166020526000908152604090205481565b60145460ff1681565b3360009081526017602052604081205460ff1615156200219d57600080fd5b5060198054600091829055604051909161dead9183156108fc0291849190818181858888f1935050505015801562001037573d6000803e3d6000fd5b600254610100900460010b81565b600160a060020a0380831660009081526015602052604081205490918291829182911681811562000a7e5750604080517f45349baa0000000000000000000000000000000000000000000000000000000081526004810188905290518291600160a060020a038316916345349baa91602480820192610100929091908290030181600087803b1580156200227a57600080fd5b505af11580156200228f573d6000803e3d6000fd5b505050506040513d610100811015620022a757600080fd5b50608081015160a082015160c083015160e090930151919b909a509198509650945050505050565b336000908152601760205260408120548190819081908190819060ff161515620022f857600080fd5b60008054600154604080517fae9308b7000000000000000000000000000000000000000000000000000000008152600481019290925251600160a060020a039092169263ae9308b7926024808401936020939083900390910190829087803b1580156200236457600080fd5b505af115801562002379573d6000803e3d6000fd5b505050506040513d60208110156200239057600080fd5b505115156200239e57600080fd5b60008054600154604080517fc55d0f56000000000000000000000000000000000000000000000000000000008152600481019290925251600160a060020a039092169263c55d0f56926024808401936020939083900390910190829087803b1580156200240a57600080fd5b505af11580156200241f573d6000803e3d6000fd5b505050506040513d60208110156200243657600080fd5b505160008054604080517fc55d0f56000000000000000000000000000000000000000000000000000000008152600481018490529051939950600160a060020a039091169263c55d0f5692602480840193602093929083900390910190829087803b158015620024a557600080fd5b505af1158015620024ba573d6000803e3d6000fd5b505050506040513d6020811015620024d157600080fd5b50519450600091505b60088260ff1610156200281f5760008054600154604080517f2555aef0000000000000000000000000000000000000000000000000000000008152600481019290925260ff8616602483015251600160a060020a0390921692632555aef0926044808401936020939083900390910190829087803b1580156200255c57600080fd5b505af115801562002571573d6000803e3d6000fd5b505050506040513d60208110156200258857600080fd5b505160008054604080517f2555aef00000000000000000000000000000000000000000000000000000000081526004810184905260ff871660248201529051939750600160a060020a0390911692632555aef092604480840193602093929083900390910190829087803b1580156200260057600080fd5b505af115801562002615573d6000803e3d6000fd5b505050506040513d60208110156200262c57600080fd5b505192508315806200263c575082155b15620026485762002813565b670de0b6b3a76400008487670de0b6b3a7640000028115156200266757fe5b04039050612710600260019054906101000a900460010b60010b670de0b6b3a7640000028115156200269557fe5b058103600360ff841660088110620026a957fe5b01556002546127109063010000009004600190810b900b670de0b6b3a76400000205600082900303600b60ff841660088110620026e257fe5b015560025460ff1615620027805760025460649065010000000000900461ffff16600360ff8516600881106200271457fe5b0154028115156200272157fe5b05600360ff8416600881106200273357fe5b015560025460649065010000000000900461ffff16600b60ff8516600881106200275957fe5b0154028115156200276657fe5b05600b60ff8416600881106200277857fe5b015562002813565b600254606486029065010000000000900461ffff168402600360ff851660088110620027a857fe5b015402811515620027b557fe5b05600360ff841660088110620027c757fe5b0155600254606486029065010000000000900461ffff168402600b60ff851660088110620027f157fe5b015402811515620027fe57fe5b05600b60ff8416600881106200281057fe5b01555b600190910190620024da565b60008054600154604080517f2555aef000000000000000000000000000000000000000000000000000000000815260048101929092526024820184905251600160a060020a0390921692632555aef0926044808401936020939083900390910190829087803b1580156200289257600080fd5b505af1158015620028a7573d6000803e3d6000fd5b505050506040513d6020811015620028be57600080fd5b50516014805460ff19169190971117909555505042601355505050565b61dead81565b600160a060020a038082166000908152601560205260408120549091169080808080808080881562002ced5788905080600160a060020a031663604686686040518163ffffffff167c0100000000000000000000000000000000000000000000000000000000028152600401602060405180830381600087803b1580156200296857600080fd5b505af11580156200297d573d6000803e3d6000fd5b505050506040513d60208110156200299457600080fd5b5051604080517fe09b0a950000000000000000000000000000000000000000000000000000000081529051919950600160a060020a0383169163e09b0a95916004808201926020929091908290030181600087803b158015620029f657600080fd5b505af115801562002a0b573d6000803e3d6000fd5b505050506040513d602081101562002a2257600080fd5b5051604080517f2ac6da140000000000000000000000000000000000000000000000000000000081529051919850600160a060020a03831691632ac6da14916004808201926020929091908290030181600087803b15801562002a8457600080fd5b505af115801562002a99573d6000803e3d6000fd5b505050506040513d602081101562002ab057600080fd5b5051604080517f6258fe440000000000000000000000000000000000000000000000000000000081529051919750600160a060020a03831691636258fe44916004808201926020929091908290030181600087803b15801562002b1257600080fd5b505af115801562002b27573d6000803e3d6000fd5b505050506040513d602081101562002b3e57600080fd5b5051604080517f524d81d30000000000000000000000000000000000000000000000000000000081529051919650600160a060020a0383169163524d81d3916004808201926020929091908290030181600087803b15801562002ba057600080fd5b505af115801562002bb5573d6000803e3d6000fd5b505050506040513d602081101562002bcc57600080fd5b5051604080517f056b7b730000000000000000000000000000000000000000000000000000000081529051919550600160a060020a0383169163056b7b73916004808201926020929091908290030181600087803b15801562002c2e57600080fd5b505af115801562002c43573d6000803e3d6000fd5b505050506040513d602081101562002c5a57600080fd5b5051604080517f542295b00000000000000000000000000000000000000000000000000000000081529051919450600160a060020a0383169163542295b0916004808201926020929091908290030181600087803b15801562002cbc57600080fd5b505af115801562002cd1573d6000803e3d6000fd5b505050506040513d602081101562002ce857600080fd5b505191505b50919395975091939597565b8181018281101562002d0757fe5b92915050565b6040516123948062002d1f83390190560060806040523480156200001157600080fd5b506040516060806200239483398101604090815281516020830151919092015160018054600160a060020a03808516600160a060020a03199283161790925560008054928616929091169190911790556200008381670de0b6b3a764000064010000000062001d216200009382021704565b60105550504260025550620000c6565b6000821515620000a657506000620000c0565b50818102818382811515620000b757fe5b0414620000c057fe5b92915050565b6122be80620000d66000396000f30060806040526004361061018a5763ffffffff7c0100000000000000000000000000000000000000000000000000000000600035041663056b7b73811461018f5780631d95807c146101b65780631fd1a58a1461024957806323a8da86146102565780632ac6da141461026e578063313c06a01461028357806331ca7e5b146102b4578063346a90741461032457806340f6ac311461033e57806345349baa146103535780634e5339d5146103b4578063524d81d3146103bc578063542295b0146103d157806360468668146103fa5780636127e6971461040f5780636258fe44146104275780636f16a5d91461043c57806370c2ccaa14610451578063757d9915146104695780638ca0fd391461048457806392ef1785146104ae57806395547d1b146104b957806398656f1e146104ce578063a788d749146104e9578063ad34908414610506578063b769c4411461051b578063ca1e455d14610530578063d11fdf3f1461054c578063e09b0a9514610564578063f67dcd2214610579578063f9cdb2f614610591575b600080fd5b34801561019b57600080fd5b506101a46105a6565b60408051918252519081900360200190f35b3480156101c257600080fd5b506101ce6004356105ac565b604080519d8e52600160a060020a03909c1660208e01528c8c019a909a5260608c019890985260ff90961660808b015293151560a08a015291151560c0890152151560e08801521515610100870152151561012086015215156101408501521515610160840152151561018083015251908190036101a00190f35b610254600435610646565b005b34801561026257600080fd5b506101a4600435610687565b34801561027a57600080fd5b506101a46106a6565b34801561028f57600080fd5b506102986106ac565b60408051600160a060020a039092168252519081900360200190f35b3480156102c057600080fd5b5060408051610100818101909252610254913691600491610104919083906008908390839080828437505060408051610100818101909252949796958181019594509250600891508390839080828437509396505050509035151591506106bb9050565b6101a4600435600160a060020a036024351660443561096a565b34801561034a57600080fd5b506101a4610a58565b34801561035f57600080fd5b5061036b600435610a5e565b60408051988952602089019790975260ff9095168787015292151560608701529015156080860152151560a0850152151560c0840152151560e083015251908190036101000190f35b610254610ac4565b3480156103c857600080fd5b506101a4610adc565b3480156103dd57600080fd5b506103e6610ae2565b604080519115158252519081900360200190f35b34801561040657600080fd5b506101a4610aeb565b34801561041b57600080fd5b50610254600435610af1565b34801561043357600080fd5b506101a4610b17565b34801561044857600080fd5b506101a4610b1d565b34801561045d57600080fd5b506101a4600435610b23565b34801561047557600080fd5b50610254600435602435610b31565b34801561049057600080fd5b50610254600435602435604435600160a060020a0360643516610d37565b610254600435610f44565b3480156104c557600080fd5b506101a4610f89565b3480156104da57600080fd5b5061025460ff60043516610f8f565b610254600435602435600160a060020a036044351660643561102b565b34801561051257600080fd5b506103e6611308565b34801561052757600080fd5b50610298611316565b6101a4600160a060020a03600435166024356044351515611325565b34801561055857600080fd5b506102546004356117ea565b34801561057057600080fd5b506101a46118cb565b34801561058557600080fd5b506101a46004356118d1565b34801561059d57600080fd5b506101a46118df565b60105481565b600f60205260009081526040902080546001820154600283015460038401546004909401549293600160a060020a039092169290919060ff80821691610100810482169162010000820481169163010000008104821691640100000000820481169165010000000000810482169166010000000000008204811691670100000000000000810482169168010000000000000000909104168d565b600154600090600160a060020a0316331461066057600080fd5b506000908152600f60205260409020600401805464ff000000001916640100000000179055565b600c80548290811061069557fe5b600091825260209091200154905081565b60085481565b600054600160a060020a031681565b6001546000908190600160a060020a031633146106d757600080fd5b600254620546000142116107605760408051600080516020612273833981519152815260206004820152602260248201527f426f6f6b20686173206265656e20736574746c656420746f6f20726563656e7460448201527f6c79000000000000000000000000000000000000000000000000000000000000606482015290519081900360840190fd5b82156107e557600091505b600d548210156107a357610798600d8381548110151561078757fe5b9060005260206000200154856118e5565b60019091019061076b565b600091505b600e548210156107e0576107d5600e838154811015156107c457fe5b9060005260206000200154866118e5565b6001909101906107a8565b61083d565b600091505b600e5482101561081157610806600e838154811015156107c457fe5b6001909101906107ea565b600091505b600d5482101561083d57610832600d8381548110151561078757fe5b600190910190610816565b4260025560006006556008546007541115610861576008546007540360095561086c565b600754600854036009555b6009546004541015610963576003805460ff191660011790556004546009546108b59190612710906108a6906104e263ffffffff611d2116565b8115156108af57fe5b04611d50565b9050806004540360048190555061096381600160009054906101000a9004600160a060020a0316600160a060020a031663412753586040518163ffffffff167c0100000000000000000000000000000000000000000000000000000000028152600401602060405180830381600087803b15801561093257600080fd5b505af1158015610946573d6000803e3d6000fd5b505050506040513d602081101561095c57600080fd5b5051611d66565b5050505050565b60015460009081908190600160a060020a0316331461098857600080fd5b6000868152600f602052604081209054909250600160a060020a03868116911614806109c357506001820154600160a060020a038681169116145b15156109ce57600080fd5b600482015465010000000000900460ff16156109e957600080fd5b6003820154612710906109c40204905080841015610a0657600080fd5b600054600160a060020a0316331415610a355760048201805466ff000000000000191666010000000000001790555b60048201805465ff00000000001916650100000000001790559150509392505050565b60055481565b6000908152600f6020526040902060028101546003820154600490920154909260ff808316926101008104821692640100000000820483169265010000000000830481169267010000000000000081048216926801000000000000000090910490911690565b600454610ad7903463ffffffff611ded16565b600455565b600b5481565b60035460ff1681565b60045481565b600154600160a060020a03163314610b0857600080fd5b670de0b6b3a764000002601055565b60095481565b600a5481565b600d80548290811061069557fe5b600154600160a060020a03163314610b4857600080fd5b60035460ff1680610b5c5750610b5c611308565b15610beb57600454821115610be65760408051600080516020612273833981519152815260206004820152602b60248201527f417474656d7074696e6720746f207769746864726177206d6f7265207468616e60448201527f20746865206d617267696e000000000000000000000000000000000000000000606482015290519081900360840190fd5b610d06565b600954610bfe908363ffffffff611ded16565b6004541015610c825760408051600080516020612273833981519152815260206004820152603360248201527f417474656d7074696e6720746f207769746864726177206d6f7265207468616e60448201527f2074686520616c6c6f77656420616d6f756e7400000000000000000000000000606482015290519081900360840190fd5b6002548110610d065760408051600080516020612273833981519152815260206004820152602c60248201527f4c502063616e6e6f7420776974686472617720647572696e672074686520736560448201527f74746c6520706572696f642e0000000000000000000000000000000000000000606482015290519081900360840190fd5b600454610d19908363ffffffff611dfa16565b600455600054610d33908390600160a060020a0316611d66565b5050565b600154600090600160a060020a03163314610d5157600080fd5b506000848152600f602052604090206002548310610de45760408051600080516020612273833981519152815260206004820152602f60248201527f54616b65722063616e6e6f7420776974686472617720647572696e672074686560448201527f20736574746c6520706572696f642e0000000000000000000000000000000000606482015290519081900360840190fd5b6003810154610df9908563ffffffff611ded16565b60028201541015610e7f5760408051600080516020612273833981519152815260206004820152602160248201527f54616b6572206d75737420686176652073756666696369656e74206d6172676960448201527f6e00000000000000000000000000000000000000000000000000000000000000606482015290519081900360840190fd5b6001810154600160a060020a03838116911614610f115760408051600080516020612273833981519152815260206004820152602360248201527f4d7573742062652074616b657220746f2063616c6c20746869732066756e637460448201527f696f6e0000000000000000000000000000000000000000000000000000000000606482015290519081900360840190fd5b6002810154610f26908563ffffffff611dfa16565b60028201556001810154610963908590600160a060020a0316611d66565b6000818152600f60205260409020600481015462010000900460ff161515610f6b57600080fd5b6002810154610f80903463ffffffff611ded16565b60029091015550565b60065481565b60015460009081908190600160a060020a03163314610fad57600080fd5b600c549250600091505b828263ffffffff16101561101957600f6000600c8463ffffffff16815481101515610fde57fe5b6000918252602080832091909101548352820192909252604001902060048101805460ff191660ff8716179055600192909201919050610fb7565b611025600c600061219e565b50505050565b6001546000908190600160a060020a0316331461104757600080fd5b6000858152600f602052604090206001810154909250600160a060020a03858116911614806110835750600054600160a060020a038581169116145b15156110de5760408051600080516020612273833981519152815260206004820152601c60248201527f43616e63656c6c6572206973206e6f74204c50206f722054616b657200000000604482015290519081900360640190fd5b6004820154640100000000900460ff16156111485760408051600080516020612273833981519152815260206004820181905260248201527f537562636f6e747261637420697320616c72656164792063616e63656c6c6564604482015290519081900360640190fd5b60025486106111cc5760408051600080516020612273833981519152815260206004820152602f60248201527f506c6179657273206d6179206e6f742063616e63656c20647572696e6720746860448201527f6520736574746c6520706572696f640000000000000000000000000000000000606482015290519081900360840190fd5b6001820154600160a060020a0385811691161480156111fb5750600482015468010000000000000000900460ff165b156112125750600381015461753090830204611220565b506003810154612710908302045b3481111561127d5760408051600080516020612273833981519152815260206004820152601760248201527f496e73756666696369656e742063616e63656c20666565000000000000000000604482015290519081900360640190fd5b6004808301805464ff000000001916640100000000179055600154604080517f4127535800000000000000000000000000000000000000000000000000000000815290516112f4938593600160a060020a031692634127535892818301926020928290030181600087803b15801561093257600080fd5b61130081340385611d66565b505050505050565b600254620bdd800142115b90565b600154600160a060020a031681565b6000806113306121bf565b600154600160a060020a0316331461134757600080fd5b601054670de0b6b3a76400008602101561136057600080fd5b600b54605a1161136f57600080fd5b670de0b6b3a7640000850260608201819052841560a0830152600160c083018190523460408085019190915260e0840191909152600160a060020a03888116602080860191909152600054600b548451919093166c01000000000000000000000000028183015242603482015260548082019390935283518082039093018352607401928390528151939550909282918401908083835b602083106114255780518252601f199092019160209182019101611406565b5181516020939093036101000a60001901801990911692169190911790526040519201829003909120600b80546001019055955050851591506114e0905057600e80548083526001810182556000919091527fbb7b4a454dc3493923482f07822329ed19e8244eff582cc204f8554c3620c3fd018390556008546114af908363ffffffff611ded16565b600881905560095460075490910311156114d257600754600854036009556114db565b60016101808201525b611557565b600d80548083526001810182556000919091527fd7b6990105719101dabeb77144f2a3385c8033acd3af97e9423a695e81ad1eb50183905560075461152b908363ffffffff611ded16565b6007819055600954600854909103111561154e5760085460075403600955611557565b60016101808201525b80600f600085600019166000191681526020019081526020016000206000820151816000015560208201518160010160006101000a815481600160a060020a030219169083600160a060020a03160217905550604082015181600201556060820151816003015560808201518160040160006101000a81548160ff021916908360ff16021790555060a08201518160040160016101000a81548160ff02191690831515021790555060c08201518160040160026101000a81548160ff02191690831515021790555060e08201518160040160036101000a81548160ff0219169083151502179055506101008201518160040160046101000a81548160ff0219169083151502179055506101208201518160040160056101000a81548160ff0219169083151502179055506101408201518160040160066101000a81548160ff0219169083151502179055506101608201518160040160076101000a81548160ff0219169083151502179055506101808201518160040160086101000a81548160ff021916908315150217905550905050600c8390806001815401808255809150509060018203906000526020600020016000909192909190915090600019169055506009546004541115156117a15760408051600080516020612273833981519152815260206004820152603560248201527f536f6d657468696e672077656e742077726f6e672c20746869732074616b652060448201527f73686f756c64206e6f7420626520616c6c6f7765640000000000000000000000606482015290519081900360840190fd5b6040805183815290518491600160a060020a038916917f40fdfa24bd8824df63e84a7d751da75da0ff20a5c64b6934cc29d5e0ad973b829181900360200190a350509392505050565b600154600090600160a060020a0316331461180457600080fd5b506000818152600f602052604090206004810154670100000000000000900460ff1680611833575060035460ff165b806118415750611841611308565b15156118c25760408051600080516020612273833981519152815260206004820152602860248201527f537562636f6e7472616374206973206e6f7420656c696769626c6520666f722060448201527f64656c6574696f6e000000000000000000000000000000000000000000000000606482015290519081900360840190fd5b610d3382611e0c565b60075481565b600e80548290811061069557fe5b60025481565b6000828152600f60205260408120600481015490919081908190819081908190670100000000000000900460ff161561191d57611d16565b60048701546301000000900460ff16801561193d5750600487015460ff16155b156119565760048701805463ff00000019169055611d16565b60038701546004880154670de0b6b3a764000090910490899060ff166008811061197c57fe5b6020020151600019020295506000861315611999578594506119a1565b856000190294505b6000861315611a4d576119b8876002015486611d50565b60028801549094506119d0908563ffffffff611dfa16565b6002880155600487015465010000000000900460ff161515611a07576004546119ff908563ffffffff611ded16565b600455611a48565b60048701546601000000000000900460ff1615611a31576004546119ff908563ffffffff611ded16565b600654611a44908563ffffffff611ded16565b6006555b611bd1565b611a5960065486611d50565b9250611a69600454848703611d50565b600454909250611a7f908363ffffffff611dfa16565b600455600654611a95908463ffffffff611dfa16565b600655600487015465010000000000900460ff161515611ad0576002870154611ac69083850163ffffffff611ded16565b6002880155611bd1565b60048701546601000000000000900460ff161515611aff576002870154611ac69083850163ffffffff611ded16565b600160009054906101000a9004600160a060020a0316600160a060020a031663fccc28136040518163ffffffff167c0100000000000000000000000000000000000000000000000000000000028152600401602060405180830381600087803b158015611b6b57600080fd5b505af1158015611b7f573d6000803e3d6000fd5b505050506040513d6020811015611b9557600080fd5b5051604051600160a060020a039091169083850180156108fc02916000818181858888f19350505050158015611bcf573d6000803e3d6000fd5b505b600487015465010000000000900460ff1680611bf957506004870154640100000000900460ff165b15611c0c57611c0789612127565b611d16565b866003015487600201541015611d0657611c4087600201546127106108a66104e28b60030154611d2190919063ffffffff16565b6002880154909150611c58908263ffffffff611dfa16565b6002880155600154604080517f412753580000000000000000000000000000000000000000000000000000000081529051611cc3928492600160a060020a03909116916341275358916004808201926020929091908290030181600087803b15801561093257600080fd5b60018701546040518a91600160a060020a0316907f950c076252eaa33bd75047ed815554ed9e51d125a32e50ecaba55381c156fc1990600090a3611c0789612127565b60048701805463ff0000ff191690555b505050505050505050565b6000821515611d3257506000611d4a565b50818102818382811515611d4257fe5b0414611d4a57fe5b92915050565b6000818311611d60575081611d4a565b50919050565b600154604080517f87bd2bbc000000000000000000000000000000000000000000000000000000008152600160a060020a038481166004830152915191909216916387bd2bbc91859160248082019260009290919082900301818588803b158015611dd057600080fd5b505af1158015611de4573d6000803e3d6000fd5b50505050505050565b81810182811015611d4a57fe5b600082821115611e0657fe5b50900390565b6000806000806000611e1c6121bf565b6000878152600f602052604081206002810180549290556001810154909750909550611e52908690600160a060020a0316611d66565b85546004870154909450610100900460ff1615611ef457600d8054600f916000916000198101908110611e8157fe5b600091825260208083209091015483528201929092526040019020848155600d8054919450906000198101908110611eb557fe5b9060005260206000200154600d85815481101515611ecf57fe5b600091825260209091200155600d805490611eee90600019830161222b565b50611f7b565b600e8054600f916000916000198101908110611f0c57fe5b600091825260208083209091015483528201929092526040019020848155600e8054919350906000198101908110611f4057fe5b9060005260206000200154600e85815481101515611f5a57fe5b600091825260209091200155600e805490611f7990600019830161222b565b505b80600f600089600019166000191681526020019081526020016000206000820151816000015560208201518160010160006101000a815481600160a060020a030219169083600160a060020a03160217905550604082015181600201556060820151816003015560808201518160040160006101000a81548160ff021916908360ff16021790555060a08201518160040160016101000a81548160ff02191690831515021790555060c08201518160040160026101000a81548160ff02191690831515021790555060e08201518160040160036101000a81548160ff0219169083151502179055506101008201518160040160046101000a81548160ff0219169083151502179055506101208201518160040160056101000a81548160ff0219169083151502179055506101408201518160040160066101000a81548160ff0219169083151502179055506101608201518160040160076101000a81548160ff0219169083151502179055506101808201518160040160086101000a81548160ff021916908315150217905550905050600b600081548092919060019003919050555050505050505050565b6000818152600f6020526040902060038101546004820154610100900460ff16156121675760075461215f908263ffffffff611dfa16565b60075561217e565b60085461217a908263ffffffff611dfa16565b6008555b50600401805467ff00000000000000191667010000000000000017905550565b50805460008255906000526020600020908101906121bc9190612254565b50565b604080516101a081018252600080825260208201819052918101829052606081018290526080810182905260a0810182905260c0810182905260e08101829052610100810182905261012081018290526101408101829052610160810182905261018081019190915290565b81548183558181111561224f5760008381526020902061224f918101908301612254565b505050565b61131391905b8082111561226e576000815560010161225a565b5090560008c379a000000000000000000000000000000000000000000000000000000000a165627a7a72305820c9e9117ac9dbe81bffb83bf43a64d08767d52f995ecb7e4a20da22037dc1d203002908c379a000000000000000000000000000000000000000000000000000000000a165627a7a72305820bd1db1268f1984f9335e572efacd603954fe55851da9d9df5caaf0d75452d53c0029",
  "source": "pragma solidity ^0.4.25;\n\nimport \"./Book.sol\";\nimport \"./Oracle.sol\";\nimport \"openzeppelin-solidity/contracts/math/SafeMath.sol\";\n\ncontract AssetSwap {\n    \n    using SafeMath for uint;\n    \n    Oracle public oracle;\n    \n    uint public ASSET_ID;\n    bool public isETHDenominated;\n    \n    uint constant CLOSE_FEE = 150; // in hundredths of a %\n    uint constant GLOBAL_MIN_RM = 10; // in ETH\n\n    int16 public takerLongRate; // in hundredths of a %\n    int16 public takerShortRate; // in hundredths of a %\n    uint16 public leverageRatio;    // the LR * 100\n\n    // For computing profit\n    int[8] private takerLongReturns;\n    int[8] private takerShortReturns;\n    uint public lastComputeReturnsTime;\n    bool public longProfited;\n    \n    mapping(address => address) public books;\n    mapping(address => uint) public withdrawBalances;\n    mapping(address => bool) public admins;\n    address public feeAddress;\n    address public constant BURN_ADDRESS = 0xdead;\n    uint public burnFees;\n    bool public isPaused; \n\n    event OrderTaken(address lp, address indexed taker, bytes32 id);\n    event FirstPrice(address lp, uint8 startDay);\n    event Burn(address lp, bytes32 id, address sender);\n    event RatesUpdated(int16 target, int16 basis);\n    \n    modifier onlyAdmin()\n    {\n        require(admins[msg.sender]);\n        _;\n    }\n\n    modifier pausable() {\n        require (!isPaused, \"Contract has been paused\");\n        _;\n    }\n    \n    /** Sets up a new SwapMarket contract\n    * @param _admin the address of the soon-to-be administrator\n    * @param priceOracle the address of the Oracle contract\n    * @param assetID the id of the asset according to the Oracle contract\n    * @param _leverageRatio the leverage ratio associated with the asset\n    * @param _isETHDenominated determines the asset currency used for returns\n    */\n    constructor (\n        address _admin,\n        address priceOracle,\n        uint assetID,\n        uint16 _leverageRatio,\n        bool _isETHDenominated)\n        public\n    {\n        admins[_admin] = true;\n        \n        oracle = Oracle(priceOracle);\n        ASSET_ID = assetID;\n        isETHDenominated = _isETHDenominated;\n\n        leverageRatio = _leverageRatio;\n    }\n\n    /** Adjust the Long and Short rates for all contracts\n    * @param target the new target rate in hundredths of a percent\n    * @param basis the new basis rate in hundredths of a percent\n    * @dev the \"long rate\" is target - basis, the \"short rate\" is target + basis\n    * @dev the new rates won't go into effect until the following week after ComputeReturns is called\n    */\n    function setRates(int16 target, int16 basis)\n        public\n        onlyAdmin\n    {\n        // target between 0 and 1\n        // basis between -2 and 2\n        // Does not switch until next week\n        require(0 < target &&  target < 100, \"Target must be between 0 and 1%\");\n        require(-200 < basis && basis < 200, \"Basis must be between -2 and 2%\");\n\n        takerLongRate = target + basis;\n        takerShortRate = target - basis;\n        \n        emit RatesUpdated(target, basis);\n    }\n\n    function adminCancel(address lp, bytes32 id)\n        public\n        onlyAdmin\n    {\n        Book b = Book(books[lp]);\n        b.adminCancel(id);\n    }\n\n    /** Allow the LP to create a new book\n    * @param min the minimum take size in ETH for the book\n    */\n    function createBook(uint min)\n        public\n        returns (address newBook)\n    {\n        require (books[msg.sender] == 0x0, \"User must not have a preexisting book\");\n        require (min >= GLOBAL_MIN_RM, \"Must meet the minimum\");\n        books[msg.sender] = new Book(msg.sender, this, min);\n        return books[msg.sender];\n    }\n\n    /** Allow the LP to change the minimum take size in their book\n    * @param min the minimum take size in ETH for the book\n    */\n    function adjustMinRM(uint min)\n        public\n    {\n        require (books[msg.sender] != 0x0, \"User must have a book\");\n        require (min >= GLOBAL_MIN_RM, \"Must meet the minimum\");\n        Book b = Book(books[msg.sender]);\n        b.adjustMinRM(min);\n    }\n\n\n    /** Take a new subcontract with an LP\n    * @param lp the LP to take from\n    * @param amount the amount IN ETHER to set the RM of the subcontract\n    * @param takerSide the side the taker wishes to take, true for long, false for short\n    */\n    function take(address lp, uint amount, bool takerSide)\n        public\n        payable\n        pausable\n    {\n        require(msg.value >= amount * (1 ether), \"Insuffient ETH for this RM\"); // allow only whole number amounts\n        require(amount >= GLOBAL_MIN_RM, \"RM must be larger than the minimum\");\n        Book book = Book(books[lp]);\n        uint lpLong = book.totalLongMargin();\n        uint lpShort = book.totalShortMargin();\n        uint freeMargin = 0;\n        uint lpRM = book.lpRequiredMargin();\n\n        if (takerSide) // taker is long, lp is short\n        {\n            if (lpLong > lpShort)\n                freeMargin = lpLong - lpShort;\n        }\n        else // taker is short, lp is long\n        {\n            if (lpShort > lpLong)\n                freeMargin = lpShort - lpLong;\n        }\n\n        require(amount <= (book.lpMargin() - lpRM)/2 + freeMargin, \"RM to large for this LP\");\n        bytes32 newId = book.take.value(msg.value)(msg.sender, amount, takerSide);\n        emit OrderTaken(lp, msg.sender, newId);\n    }\n\n    /** Burn a specific subcontract at a cost\n    * @param lp the address of the LP with the subcontract\n    * @param id the id of the subcontract to burn\n    */\n    function playerBurn(address lp, bytes32 id)\n        public\n        payable\n    {\n        Book b = Book(books[lp]);\n        uint fee = b.burn(id, msg.sender, msg.value);\n        burnFees = burnFees.add(fee);\n        withdrawBalances[msg.sender] = withdrawBalances[msg.sender].add(msg.value - fee);\n        emit Burn(lp, id, msg.sender);\n\n    }\n    \n    /** Sets the contract to terminate at the end of the week\n    * @param lp the address of the lp with the subcontract\n    * @param id the id of the subcontract to cancel\n    */\n    function playerCancel(address lp, bytes32 id)\n        public\n        payable\n    {\n        Book b = Book(books[lp]);\n        uint lastSettleTime = oracle.getLastSettleTime(ASSET_ID);\n        b.cancel.value(msg.value)(lastSettleTime, id, msg.sender, CLOSE_FEE);\n    }\n\n    /** Adds value to the taker's margin\n    * @param lp the address of the lp with the subcontract\n    * @param id the id of the subcontract to add margin to\n    */\n    function takerFund(address lp, bytes32 id)\n        public\n        payable\n    {\n        require(books[lp] != 0x0);\n        Book b = Book(books[lp]);\n        b.fundTakerMargin.value(msg.value)(id);\n    }\n\n    /** Adds value to the lp's margin for their whole book\n    * @param lp the address of the lp to add margin to\n    */\n    function lpFund(address lp)\n        public\n        payable\n    {\n        require(books[lp] != 0x0);\n        Book b = Book(books[lp]);\n        b.fundlpMargin.value(msg.value)();\n    }\n    \n    /** Moves value out of the taker margin into the withdraw balance\n    * @param amount the amount to move in wei\n    * @param lp the lp with the subcontract to move balance from the taker margin\n    * @param id the id of the subcontract\n    */\n    function takerWithdrawal(uint amount, address lp, bytes32 id)\n        public\n    {\n        require(books[lp] != 0x0);\n        \n        Book b = Book(books[lp]);\n        uint lastOracleSettleTime = oracle.getLastSettleTime(ASSET_ID);\n\n        // will revert if during settle period\n        b.takerWithdrawal(id, amount, lastOracleSettleTime, msg.sender);\n    }\n\n    /** Moves value out of the lp margin into the withdraw balance\n    * @param amount the amount to move in wei\n    */\n    function lpMarginWithdrawal(uint amount)\n        public\n    {\n        require(books[msg.sender] != 0x0);\n        \n        Book b = Book(books[msg.sender]);\n        uint lastOracleSettleTime= oracle.getLastSettleTime(ASSET_ID);\n\n        // Will revert if during settle period\n        b.lpMarginWithdrawal(amount, lastOracleSettleTime);\n    }\n\n    /** Sends the owed balance to a user stored on this contract to an external address\n    */\n    function withdrawBalance()\n        public \n    {\n        uint amount = withdrawBalances[msg.sender];\n        withdrawBalances[msg.sender] = 0;\n        msg.sender.transfer(amount);\n    }\n\n    /** Function for easily getting the useful data about an LP's book\n    * @param lp the lp who owns the book\n    * @return book the address of the lp book\n    * @return lpMargin the lp's current margin\n    * @return totalLong the total RM of all long contracts the LP is engaged in\n    * @return totalShort the total RM of all short contracts the LP is engaged in\n    * @return lpRM the margin required for the LP\n    * @return numContracts the number of subcontracts that the lp has in their book\n    * @return bookMinimum the minimum size in wei to make a subcontract with this book\n    */\n    function getBookData(address lp)\n        public\n        view\n        returns ( address book,\n            uint lpMargin,\n            uint totalLong,\n            uint totalShort,\n            uint lpRM, \n            uint numContracts,\n            uint bookMinimum,\n            bool lpDefaulted)\n    {\n        book = books[lp];\n        if (book != 0x0) {\n            Book b = Book(book);\n            lpMargin = b.lpMargin();\n            totalLong = b.totalLongMargin();\n            totalShort = b.totalShortMargin();\n            lpRM = b.lpRequiredMargin();\n            numContracts = b.numContracts();\n            bookMinimum = b.minRM();\n            lpDefaulted = b.lpDefaulted();\n        }\n    }\n\n    /** Function to easily get specific take information about a subcontract\n    * @param lp the address of the lp with the subcontract\n    * @param id the id of the subcontract\n    * @return takerMargin the taker's margin\n    * @return reqMargin the required margin of the subcontract\n    * @return initialDay the day of the week the contract was started on\n    * @return side the LP's side for the contract\n    */\n    function getSubcontractData(address lp, bytes32 id)\n        public\n        view\n        returns (\n            uint takerMargin,\n            uint reqMargin,\n            uint8 initialDay,\n            bool side)\n    {\n        address book = books[lp];\n        if (book != 0x0) {\n            Book b = Book(book);\n            (takerMargin, reqMargin, initialDay, side,\n                , , , ) = b.getSubcontract(id);\n        }\n    }\n\n    /** Function to get specific status information about a subcontract\n    * @param lp the address of the lp with the subcontract\n    * @param id the id of the subcontract\n    * @return isCancelled the status of if the subcontract is cancelled\n    * @return isBurned the status of if the subcontract is burned\n    * @return toDelete if the subcontract is marked for deletion\n    * @return takerCloseDiscount if the takers close fee will be lowered\n    */\n    function getSubcontractStatus(address lp, bytes32 id)\n        public\n        view\n        returns (\n            bool isCancelled,\n            bool isBurned,\n            bool toDelete,\n            bool takerCloseDiscount)\n    {\n        address book = books[lp];\n        if (book != 0x0) {\n            Book b = Book(book);\n            (, , , ,\n                isCancelled, isBurned, toDelete, takerCloseDiscount) = b.getSubcontract(id);\n        }\n    }\n\n    /** Set all new contracts in the lp's book to use the next oracle price\n    * @param lp the address of the lp to put prices in\n    */\n    function priceInitialization(address lp)\n        public\n        onlyAdmin\n    {\n        require(books[lp] != 0x0, \"Book does not exist\");\n        Book b = Book(books[lp]);\n        uint8 currentDay;\n        bool isFinalDay;\n        ( , , ,currentDay, isFinalDay) = oracle.assets(ASSET_ID);\n        // want to start with the next day to be entered, which will be 0 on settlement days\n        uint8 startDay = currentDay + 1;\n        if (isFinalDay)\n            startDay = 0;\n        b.firstPrice(startDay);\n        emit FirstPrice(lp, startDay);\n    }\n\n    /** Calculate what the returns are in terms of the maker for every day this week\n    * @dev this should be ran sometime after prices are updated but before settle\n    * @dev returns are computed once then applied to all contracts\n    * @dev changes the funding rates and leverage ratio to apply for next week\n    * @notice \n    */\n    function computeReturns()\n        public\n        onlyAdmin\n    {\n\n        // only compute returns after settle price posted\n        require(oracle.isSettleDay(ASSET_ID));\n\n        uint assetPrice  = oracle.getCurrentPrice(ASSET_ID);\n        uint ethPrice = oracle.getCurrentPrice(0);\n\n        uint assetPastPrice;\n        uint ethPastPrice;\n\n        for (uint8 i = 0; i < 8; i++)\n        {\n            assetPastPrice = oracle.lastWeekPrices(ASSET_ID, i);\n            ethPastPrice = oracle.lastWeekPrices(0, i);\n            if (assetPastPrice == 0 || ethPastPrice == 0)\n                continue;\n\n            int assetReturn = int((assetPrice * (1 ether)) / assetPastPrice) - 1 ether;\n            takerLongReturns[i] = assetReturn - ((1 ether) * int(takerLongRate))/1e4;\n            takerShortReturns[i] = (-1 * assetReturn) - ((1 ether) * int(takerShortRate))/1e4;\n            if (isETHDenominated)\n            {   \n                takerLongReturns[i] = (takerLongReturns[i] * int(leverageRatio))/100;\n                takerShortReturns[i] = (takerShortReturns[i] * int(leverageRatio))/100;\n            }\n            else\n            {\n                takerLongReturns[i] = (takerLongReturns[i] * int(leverageRatio * ethPastPrice))/int(ethPrice * 100);\n                takerShortReturns[i] = (takerShortReturns[i] * int(leverageRatio * ethPastPrice))/int(ethPrice * 100);\n            }\n        }\n        \n        longProfited = (assetPrice > oracle.lastWeekPrices(ASSET_ID, 0));\n        lastComputeReturnsTime = block.timestamp;\n    }\n    \n    /** Settle all subcontracts for this lp\n    * @param lp the lp to settle\n    */\n    function settle(address lp)\n        public\n        onlyAdmin\n    {\n        require(books[lp] != 0x0);\n        Book b = Book(books[lp]);\n\n        // Can't be settled if returns haven't been computed yet\n        uint lastUpdateTime = oracle.getLastUpdateTime(ASSET_ID);\n        require(lastComputeReturnsTime > lastUpdateTime);\n        require(oracle.isSettleDay(ASSET_ID));\n        \n        b.settle(takerLongReturns, takerShortReturns, longProfited);\n    }\n\n    /** Prevent new subcontracts from being created while contract is paused\n    * @param pauseValue true for pause, false for unpause\n    */\n    function pause(bool pauseValue)\n        public\n        onlyAdmin\n    {\n        isPaused = pauseValue;\n    }\n\n    /** Transfer all collected burn fees to the burn address\n    */\n    function emptyBurn()\n        public\n        onlyAdmin\n    {\n        uint amount = burnFees;\n        burnFees = 0;\n        BURN_ADDRESS.transfer(amount);\n    }\n\n    /** Credit a users balance with the message value\n    * @param recipient the user to get balance\n    * @dev used by the Book when it needs to give players value\n    */\n    function balanceTransfer(address recipient)\n        public\n        payable\n    {\n        withdrawBalances[recipient] = withdrawBalances[recipient].add(msg.value);\n    }\n\n    /** Terminate a defaulted/burned/cancelled subcontract\n    * @param lp the address of the lp with the subcontract\n    * @param id the subcontract id\n    */\n    function redeem(address lp, bytes32 id)\n        public\n    {\n        require(books[lp] != 0x0);\n        Book b = Book(books[lp]);\n        b.redeemSubcontract(id);\n\n    }\n\n    /** Change the address that can withdraw the collected fees\n    * @param newAddress the new address to change to\n    */\n    function changeFeeAddress(address newAddress)\n        public\n        onlyAdmin\n    {\n        feeAddress = newAddress;\n    }\n\n    /** Grant administrator priviledges to a user\n    * @param newAdmin the address to promote\n    */\n    function addAdmin(address newAdmin)\n        public\n        onlyAdmin\n    {\n        admins[newAdmin] = true;\n    }\n\n    /** Remove administrator priviledges from a user\n    * @param toRemove the address to demote\n    * @notice you may not remove yourself\n    */\n    function removeAdmin(address toRemove)\n        public\n        onlyAdmin\n    {\n        require(toRemove != msg.sender, \"You may not remove yourself as an admin.\");\n        admins[toRemove] = false;\n    }\n}",
  "sourcePath": "/Users/mackenzie/OracleSwap/contracts/AssetSwap.sol",
  "compiler": {
    "name": "solc",
    "version": "0.4.25+commit.59dbf8f1.Emscripten.clang"
  },
  "schemaVersion": "2.0.2",
  "updatedAt": "2019-07-02T17:26:51.074Z"
}