{
  "contractName": "Book",
  "abi": [
    {
      "constant": true,
      "inputs": [],
      "name": "minRM",
      "outputs": [
        {
          "name": "",
          "type": "uint256"
        }
      ],
      "payable": false,
      "stateMutability": "view",
      "type": "function"
    },
    {
      "constant": true,
      "inputs": [
        {
          "name": "",
          "type": "bytes32"
        }
      ],
      "name": "subcontracts",
      "outputs": [
        {
          "name": "index",
          "type": "uint256"
        },
        {
          "name": "Taker",
          "type": "address"
        },
        {
          "name": "TakerMargin",
          "type": "uint256"
        },
        {
          "name": "ReqMargin",
          "type": "uint256"
        },
        {
          "name": "InitialDay",
          "type": "uint8"
        },
        {
          "name": "MakerSide",
          "type": "bool"
        },
        {
          "name": "isInitialized",
          "type": "bool"
        },
        {
          "name": "isNewContract",
          "type": "bool"
        },
        {
          "name": "isCancelled",
          "type": "bool"
        },
        {
          "name": "isBurned",
          "type": "bool"
        },
        {
          "name": "makerBurned",
          "type": "bool"
        },
        {
          "name": "toDelete",
          "type": "bool"
        },
        {
          "name": "takerCloseDiscount",
          "type": "bool"
        }
      ],
      "payable": false,
      "stateMutability": "view",
      "type": "function"
    },
    {
      "constant": true,
      "inputs": [
        {
          "name": "",
          "type": "uint256"
        }
      ],
      "name": "pendingContracts",
      "outputs": [
        {
          "name": "",
          "type": "bytes32"
        }
      ],
      "payable": false,
      "stateMutability": "view",
      "type": "function"
    },
    {
      "constant": true,
      "inputs": [],
      "name": "totalShortMargin",
      "outputs": [
        {
          "name": "",
          "type": "uint256"
        }
      ],
      "payable": false,
      "stateMutability": "view",
      "type": "function"
    },
    {
      "constant": true,
      "inputs": [],
      "name": "lp",
      "outputs": [
        {
          "name": "",
          "type": "address"
        }
      ],
      "payable": false,
      "stateMutability": "view",
      "type": "function"
    },
    {
      "constant": true,
      "inputs": [],
      "name": "burnFees",
      "outputs": [
        {
          "name": "",
          "type": "uint256"
        }
      ],
      "payable": false,
      "stateMutability": "view",
      "type": "function"
    },
    {
      "constant": true,
      "inputs": [],
      "name": "numContracts",
      "outputs": [
        {
          "name": "",
          "type": "uint256"
        }
      ],
      "payable": false,
      "stateMutability": "view",
      "type": "function"
    },
    {
      "constant": true,
      "inputs": [],
      "name": "lpDefaulted",
      "outputs": [
        {
          "name": "",
          "type": "bool"
        }
      ],
      "payable": false,
      "stateMutability": "view",
      "type": "function"
    },
    {
      "constant": true,
      "inputs": [],
      "name": "lpMargin",
      "outputs": [
        {
          "name": "",
          "type": "uint256"
        }
      ],
      "payable": false,
      "stateMutability": "view",
      "type": "function"
    },
    {
      "constant": true,
      "inputs": [],
      "name": "lpRequiredMargin",
      "outputs": [
        {
          "name": "",
          "type": "uint256"
        }
      ],
      "payable": false,
      "stateMutability": "view",
      "type": "function"
    },
    {
      "constant": true,
      "inputs": [],
      "name": "takeMinimum",
      "outputs": [
        {
          "name": "",
          "type": "uint256"
        }
      ],
      "payable": false,
      "stateMutability": "view",
      "type": "function"
    },
    {
      "constant": true,
      "inputs": [
        {
          "name": "",
          "type": "uint256"
        }
      ],
      "name": "shortTakerContracts",
      "outputs": [
        {
          "name": "",
          "type": "bytes32"
        }
      ],
      "payable": false,
      "stateMutability": "view",
      "type": "function"
    },
    {
      "constant": true,
      "inputs": [],
      "name": "burnMargin",
      "outputs": [
        {
          "name": "",
          "type": "uint256"
        }
      ],
      "payable": false,
      "stateMutability": "view",
      "type": "function"
    },
    {
      "constant": true,
      "inputs": [],
      "name": "assetSwap",
      "outputs": [
        {
          "name": "",
          "type": "address"
        }
      ],
      "payable": false,
      "stateMutability": "view",
      "type": "function"
    },
    {
      "constant": true,
      "inputs": [],
      "name": "totalLongMargin",
      "outputs": [
        {
          "name": "",
          "type": "uint256"
        }
      ],
      "payable": false,
      "stateMutability": "view",
      "type": "function"
    },
    {
      "constant": true,
      "inputs": [
        {
          "name": "",
          "type": "uint256"
        }
      ],
      "name": "longTakerContracts",
      "outputs": [
        {
          "name": "",
          "type": "bytes32"
        }
      ],
      "payable": false,
      "stateMutability": "view",
      "type": "function"
    },
    {
      "constant": true,
      "inputs": [],
      "name": "lastBookSettleTime",
      "outputs": [
        {
          "name": "",
          "type": "uint256"
        }
      ],
      "payable": false,
      "stateMutability": "view",
      "type": "function"
    },
    {
      "inputs": [
        {
          "name": "user",
          "type": "address"
        },
        {
          "name": "admin",
          "type": "address"
        },
        {
          "name": "minBalance",
          "type": "uint256"
        }
      ],
      "payable": false,
      "stateMutability": "nonpayable",
      "type": "constructor"
    },
    {
      "anonymous": false,
      "inputs": [
        {
          "indexed": true,
          "name": "_taker",
          "type": "address"
        },
        {
          "indexed": true,
          "name": "_id",
          "type": "bytes32"
        },
        {
          "indexed": false,
          "name": "_amount",
          "type": "uint256"
        }
      ],
      "name": "OrderTaken",
      "type": "event"
    },
    {
      "anonymous": false,
      "inputs": [
        {
          "indexed": true,
          "name": "_taker",
          "type": "address"
        },
        {
          "indexed": true,
          "name": "_id",
          "type": "bytes32"
        }
      ],
      "name": "TakerDefault",
      "type": "event"
    },
    {
      "anonymous": false,
      "inputs": [
        {
          "indexed": false,
          "name": "index",
          "type": "uint256"
        },
        {
          "indexed": false,
          "name": "willDelete",
          "type": "bool"
        }
      ],
      "name": "DeleteTraker",
      "type": "event"
    },
    {
      "constant": true,
      "inputs": [
        {
          "name": "id",
          "type": "bytes32"
        }
      ],
      "name": "getSubcontract",
      "outputs": [
        {
          "name": "takerMargin",
          "type": "uint256"
        },
        {
          "name": "reqMargin",
          "type": "uint256"
        },
        {
          "name": "initialDay",
          "type": "uint8"
        },
        {
          "name": "side",
          "type": "bool"
        },
        {
          "name": "isCancelled",
          "type": "bool"
        },
        {
          "name": "isBurned",
          "type": "bool"
        },
        {
          "name": "toDelete",
          "type": "bool"
        },
        {
          "name": "takerDiscount",
          "type": "bool"
        }
      ],
      "payable": false,
      "stateMutability": "view",
      "type": "function"
    },
    {
      "constant": false,
      "inputs": [
        {
          "name": "taker",
          "type": "address"
        },
        {
          "name": "amount",
          "type": "uint256"
        },
        {
          "name": "takerSide",
          "type": "bool"
        }
      ],
      "name": "take",
      "outputs": [
        {
          "name": "id",
          "type": "bytes32"
        }
      ],
      "payable": true,
      "stateMutability": "payable",
      "type": "function"
    },
    {
      "constant": false,
      "inputs": [],
      "name": "fundlpMargin",
      "outputs": [],
      "payable": true,
      "stateMutability": "payable",
      "type": "function"
    },
    {
      "constant": false,
      "inputs": [
        {
          "name": "id",
          "type": "bytes32"
        }
      ],
      "name": "fundTakerMargin",
      "outputs": [],
      "payable": true,
      "stateMutability": "payable",
      "type": "function"
    },
    {
      "constant": false,
      "inputs": [
        {
          "name": "priceDay",
          "type": "uint8"
        }
      ],
      "name": "firstPrice",
      "outputs": [],
      "payable": false,
      "stateMutability": "nonpayable",
      "type": "function"
    },
    {
      "constant": false,
      "inputs": [
        {
          "name": "oraclePriceTime",
          "type": "uint256"
        },
        {
          "name": "id",
          "type": "bytes32"
        },
        {
          "name": "sender",
          "type": "address"
        },
        {
          "name": "cancelFee",
          "type": "uint256"
        }
      ],
      "name": "cancel",
      "outputs": [],
      "payable": true,
      "stateMutability": "payable",
      "type": "function"
    },
    {
      "constant": false,
      "inputs": [
        {
          "name": "id",
          "type": "bytes32"
        }
      ],
      "name": "adminCancel",
      "outputs": [],
      "payable": true,
      "stateMutability": "payable",
      "type": "function"
    },
    {
      "constant": false,
      "inputs": [
        {
          "name": "id",
          "type": "bytes32"
        },
        {
          "name": "sender",
          "type": "address"
        },
        {
          "name": "amount",
          "type": "uint256"
        }
      ],
      "name": "burn",
      "outputs": [
        {
          "name": "",
          "type": "uint256"
        }
      ],
      "payable": true,
      "stateMutability": "payable",
      "type": "function"
    },
    {
      "constant": false,
      "inputs": [
        {
          "name": "id",
          "type": "bytes32"
        },
        {
          "name": "amount",
          "type": "uint256"
        },
        {
          "name": "lastOracleSettlePrice",
          "type": "uint256"
        },
        {
          "name": "sender",
          "type": "address"
        }
      ],
      "name": "takerWithdrawal",
      "outputs": [],
      "payable": false,
      "stateMutability": "nonpayable",
      "type": "function"
    },
    {
      "constant": false,
      "inputs": [
        {
          "name": "takerLongRets",
          "type": "int256[8]"
        },
        {
          "name": "takerShortRets",
          "type": "int256[8]"
        },
        {
          "name": "longProfited",
          "type": "bool"
        }
      ],
      "name": "settle",
      "outputs": [],
      "payable": false,
      "stateMutability": "nonpayable",
      "type": "function"
    },
    {
      "constant": false,
      "inputs": [
        {
          "name": "amount",
          "type": "uint256"
        },
        {
          "name": "lastOracleSettleTime",
          "type": "uint256"
        }
      ],
      "name": "lpMarginWithdrawal",
      "outputs": [],
      "payable": false,
      "stateMutability": "nonpayable",
      "type": "function"
    },
    {
      "constant": false,
      "inputs": [
        {
          "name": "min",
          "type": "uint256"
        }
      ],
      "name": "adjustMinRM",
      "outputs": [],
      "payable": false,
      "stateMutability": "nonpayable",
      "type": "function"
    },
    {
      "constant": false,
      "inputs": [
        {
          "name": "id",
          "type": "bytes32"
        }
      ],
      "name": "redeemSubcontract",
      "outputs": [],
      "payable": false,
      "stateMutability": "nonpayable",
      "type": "function"
    },
    {
      "constant": true,
      "inputs": [],
      "name": "reachedSelfDestructTime",
      "outputs": [
        {
          "name": "",
          "type": "bool"
        }
      ],
      "payable": false,
      "stateMutability": "view",
      "type": "function"
    }
  ],
  "bytecode": "0x60806040523480156200001157600080fd5b506040516060806200239483398101604090815281516020830151919092015160018054600160a060020a03808516600160a060020a03199283161790925560008054928616929091169190911790556200008381670de0b6b3a764000064010000000062001d216200009382021704565b60105550504260025550620000c6565b6000821515620000a657506000620000c0565b50818102818382811515620000b757fe5b0414620000c057fe5b92915050565b6122be80620000d66000396000f30060806040526004361061018a5763ffffffff7c0100000000000000000000000000000000000000000000000000000000600035041663056b7b73811461018f5780631d95807c146101b65780631fd1a58a1461024957806323a8da86146102565780632ac6da141461026e578063313c06a01461028357806331ca7e5b146102b4578063346a90741461032457806340f6ac311461033e57806345349baa146103535780634e5339d5146103b4578063524d81d3146103bc578063542295b0146103d157806360468668146103fa5780636127e6971461040f5780636258fe44146104275780636f16a5d91461043c57806370c2ccaa14610451578063757d9915146104695780638ca0fd391461048457806392ef1785146104ae57806395547d1b146104b957806398656f1e146104ce578063a788d749146104e9578063ad34908414610506578063b769c4411461051b578063ca1e455d14610530578063d11fdf3f1461054c578063e09b0a9514610564578063f67dcd2214610579578063f9cdb2f614610591575b600080fd5b34801561019b57600080fd5b506101a46105a6565b60408051918252519081900360200190f35b3480156101c257600080fd5b506101ce6004356105ac565b604080519d8e52600160a060020a03909c1660208e01528c8c019a909a5260608c019890985260ff90961660808b015293151560a08a015291151560c0890152151560e08801521515610100870152151561012086015215156101408501521515610160840152151561018083015251908190036101a00190f35b610254600435610646565b005b34801561026257600080fd5b506101a4600435610687565b34801561027a57600080fd5b506101a46106a6565b34801561028f57600080fd5b506102986106ac565b60408051600160a060020a039092168252519081900360200190f35b3480156102c057600080fd5b5060408051610100818101909252610254913691600491610104919083906008908390839080828437505060408051610100818101909252949796958181019594509250600891508390839080828437509396505050509035151591506106bb9050565b6101a4600435600160a060020a036024351660443561096a565b34801561034a57600080fd5b506101a4610a58565b34801561035f57600080fd5b5061036b600435610a5e565b60408051988952602089019790975260ff9095168787015292151560608701529015156080860152151560a0850152151560c0840152151560e083015251908190036101000190f35b610254610ac4565b3480156103c857600080fd5b506101a4610adc565b3480156103dd57600080fd5b506103e6610ae2565b604080519115158252519081900360200190f35b34801561040657600080fd5b506101a4610aeb565b34801561041b57600080fd5b50610254600435610af1565b34801561043357600080fd5b506101a4610b17565b34801561044857600080fd5b506101a4610b1d565b34801561045d57600080fd5b506101a4600435610b23565b34801561047557600080fd5b50610254600435602435610b31565b34801561049057600080fd5b50610254600435602435604435600160a060020a0360643516610d37565b610254600435610f44565b3480156104c557600080fd5b506101a4610f89565b3480156104da57600080fd5b5061025460ff60043516610f8f565b610254600435602435600160a060020a036044351660643561102b565b34801561051257600080fd5b506103e6611308565b34801561052757600080fd5b50610298611316565b6101a4600160a060020a03600435166024356044351515611325565b34801561055857600080fd5b506102546004356117ea565b34801561057057600080fd5b506101a46118cb565b34801561058557600080fd5b506101a46004356118d1565b34801561059d57600080fd5b506101a46118df565b60105481565b600f60205260009081526040902080546001820154600283015460038401546004909401549293600160a060020a039092169290919060ff80821691610100810482169162010000820481169163010000008104821691640100000000820481169165010000000000810482169166010000000000008204811691670100000000000000810482169168010000000000000000909104168d565b600154600090600160a060020a0316331461066057600080fd5b506000908152600f60205260409020600401805464ff000000001916640100000000179055565b600c80548290811061069557fe5b600091825260209091200154905081565b60085481565b600054600160a060020a031681565b6001546000908190600160a060020a031633146106d757600080fd5b600254620546000142116107605760408051600080516020612273833981519152815260206004820152602260248201527f426f6f6b20686173206265656e20736574746c656420746f6f20726563656e7460448201527f6c79000000000000000000000000000000000000000000000000000000000000606482015290519081900360840190fd5b82156107e557600091505b600d548210156107a357610798600d8381548110151561078757fe5b9060005260206000200154856118e5565b60019091019061076b565b600091505b600e548210156107e0576107d5600e838154811015156107c457fe5b9060005260206000200154866118e5565b6001909101906107a8565b61083d565b600091505b600e5482101561081157610806600e838154811015156107c457fe5b6001909101906107ea565b600091505b600d5482101561083d57610832600d8381548110151561078757fe5b600190910190610816565b4260025560006006556008546007541115610861576008546007540360095561086c565b600754600854036009555b6009546004541015610963576003805460ff191660011790556004546009546108b59190612710906108a6906104e263ffffffff611d2116565b8115156108af57fe5b04611d50565b9050806004540360048190555061096381600160009054906101000a9004600160a060020a0316600160a060020a031663412753586040518163ffffffff167c0100000000000000000000000000000000000000000000000000000000028152600401602060405180830381600087803b15801561093257600080fd5b505af1158015610946573d6000803e3d6000fd5b505050506040513d602081101561095c57600080fd5b5051611d66565b5050505050565b60015460009081908190600160a060020a0316331461098857600080fd5b6000868152600f602052604081209054909250600160a060020a03868116911614806109c357506001820154600160a060020a038681169116145b15156109ce57600080fd5b600482015465010000000000900460ff16156109e957600080fd5b6003820154612710906109c40204905080841015610a0657600080fd5b600054600160a060020a0316331415610a355760048201805466ff000000000000191666010000000000001790555b60048201805465ff00000000001916650100000000001790559150509392505050565b60055481565b6000908152600f6020526040902060028101546003820154600490920154909260ff808316926101008104821692640100000000820483169265010000000000830481169267010000000000000081048216926801000000000000000090910490911690565b600454610ad7903463ffffffff611ded16565b600455565b600b5481565b60035460ff1681565b60045481565b600154600160a060020a03163314610b0857600080fd5b670de0b6b3a764000002601055565b60095481565b600a5481565b600d80548290811061069557fe5b600154600160a060020a03163314610b4857600080fd5b60035460ff1680610b5c5750610b5c611308565b15610beb57600454821115610be65760408051600080516020612273833981519152815260206004820152602b60248201527f417474656d7074696e6720746f207769746864726177206d6f7265207468616e60448201527f20746865206d617267696e000000000000000000000000000000000000000000606482015290519081900360840190fd5b610d06565b600954610bfe908363ffffffff611ded16565b6004541015610c825760408051600080516020612273833981519152815260206004820152603360248201527f417474656d7074696e6720746f207769746864726177206d6f7265207468616e60448201527f2074686520616c6c6f77656420616d6f756e7400000000000000000000000000606482015290519081900360840190fd5b6002548110610d065760408051600080516020612273833981519152815260206004820152602c60248201527f4c502063616e6e6f7420776974686472617720647572696e672074686520736560448201527f74746c6520706572696f642e0000000000000000000000000000000000000000606482015290519081900360840190fd5b600454610d19908363ffffffff611dfa16565b600455600054610d33908390600160a060020a0316611d66565b5050565b600154600090600160a060020a03163314610d5157600080fd5b506000848152600f602052604090206002548310610de45760408051600080516020612273833981519152815260206004820152602f60248201527f54616b65722063616e6e6f7420776974686472617720647572696e672074686560448201527f20736574746c6520706572696f642e0000000000000000000000000000000000606482015290519081900360840190fd5b6003810154610df9908563ffffffff611ded16565b60028201541015610e7f5760408051600080516020612273833981519152815260206004820152602160248201527f54616b6572206d75737420686176652073756666696369656e74206d6172676960448201527f6e00000000000000000000000000000000000000000000000000000000000000606482015290519081900360840190fd5b6001810154600160a060020a03838116911614610f115760408051600080516020612273833981519152815260206004820152602360248201527f4d7573742062652074616b657220746f2063616c6c20746869732066756e637460448201527f696f6e0000000000000000000000000000000000000000000000000000000000606482015290519081900360840190fd5b6002810154610f26908563ffffffff611dfa16565b60028201556001810154610963908590600160a060020a0316611d66565b6000818152600f60205260409020600481015462010000900460ff161515610f6b57600080fd5b6002810154610f80903463ffffffff611ded16565b60029091015550565b60065481565b60015460009081908190600160a060020a03163314610fad57600080fd5b600c549250600091505b828263ffffffff16101561101957600f6000600c8463ffffffff16815481101515610fde57fe5b6000918252602080832091909101548352820192909252604001902060048101805460ff191660ff8716179055600192909201919050610fb7565b611025600c600061219e565b50505050565b6001546000908190600160a060020a0316331461104757600080fd5b6000858152600f602052604090206001810154909250600160a060020a03858116911614806110835750600054600160a060020a038581169116145b15156110de5760408051600080516020612273833981519152815260206004820152601c60248201527f43616e63656c6c6572206973206e6f74204c50206f722054616b657200000000604482015290519081900360640190fd5b6004820154640100000000900460ff16156111485760408051600080516020612273833981519152815260206004820181905260248201527f537562636f6e747261637420697320616c72656164792063616e63656c6c6564604482015290519081900360640190fd5b60025486106111cc5760408051600080516020612273833981519152815260206004820152602f60248201527f506c6179657273206d6179206e6f742063616e63656c20647572696e6720746860448201527f6520736574746c6520706572696f640000000000000000000000000000000000606482015290519081900360840190fd5b6001820154600160a060020a0385811691161480156111fb5750600482015468010000000000000000900460ff165b156112125750600381015461753090830204611220565b506003810154612710908302045b3481111561127d5760408051600080516020612273833981519152815260206004820152601760248201527f496e73756666696369656e742063616e63656c20666565000000000000000000604482015290519081900360640190fd5b6004808301805464ff000000001916640100000000179055600154604080517f4127535800000000000000000000000000000000000000000000000000000000815290516112f4938593600160a060020a031692634127535892818301926020928290030181600087803b15801561093257600080fd5b61130081340385611d66565b505050505050565b600254620bdd800142115b90565b600154600160a060020a031681565b6000806113306121bf565b600154600160a060020a0316331461134757600080fd5b601054670de0b6b3a76400008602101561136057600080fd5b600b54605a1161136f57600080fd5b670de0b6b3a7640000850260608201819052841560a0830152600160c083018190523460408085019190915260e0840191909152600160a060020a03888116602080860191909152600054600b548451919093166c01000000000000000000000000028183015242603482015260548082019390935283518082039093018352607401928390528151939550909282918401908083835b602083106114255780518252601f199092019160209182019101611406565b5181516020939093036101000a60001901801990911692169190911790526040519201829003909120600b80546001019055955050851591506114e0905057600e80548083526001810182556000919091527fbb7b4a454dc3493923482f07822329ed19e8244eff582cc204f8554c3620c3fd018390556008546114af908363ffffffff611ded16565b600881905560095460075490910311156114d257600754600854036009556114db565b60016101808201525b611557565b600d80548083526001810182556000919091527fd7b6990105719101dabeb77144f2a3385c8033acd3af97e9423a695e81ad1eb50183905560075461152b908363ffffffff611ded16565b6007819055600954600854909103111561154e5760085460075403600955611557565b60016101808201525b80600f600085600019166000191681526020019081526020016000206000820151816000015560208201518160010160006101000a815481600160a060020a030219169083600160a060020a03160217905550604082015181600201556060820151816003015560808201518160040160006101000a81548160ff021916908360ff16021790555060a08201518160040160016101000a81548160ff02191690831515021790555060c08201518160040160026101000a81548160ff02191690831515021790555060e08201518160040160036101000a81548160ff0219169083151502179055506101008201518160040160046101000a81548160ff0219169083151502179055506101208201518160040160056101000a81548160ff0219169083151502179055506101408201518160040160066101000a81548160ff0219169083151502179055506101608201518160040160076101000a81548160ff0219169083151502179055506101808201518160040160086101000a81548160ff021916908315150217905550905050600c8390806001815401808255809150509060018203906000526020600020016000909192909190915090600019169055506009546004541115156117a15760408051600080516020612273833981519152815260206004820152603560248201527f536f6d657468696e672077656e742077726f6e672c20746869732074616b652060448201527f73686f756c64206e6f7420626520616c6c6f7765640000000000000000000000606482015290519081900360840190fd5b6040805183815290518491600160a060020a038916917f40fdfa24bd8824df63e84a7d751da75da0ff20a5c64b6934cc29d5e0ad973b829181900360200190a350509392505050565b600154600090600160a060020a0316331461180457600080fd5b506000818152600f602052604090206004810154670100000000000000900460ff1680611833575060035460ff165b806118415750611841611308565b15156118c25760408051600080516020612273833981519152815260206004820152602860248201527f537562636f6e7472616374206973206e6f7420656c696769626c6520666f722060448201527f64656c6574696f6e000000000000000000000000000000000000000000000000606482015290519081900360840190fd5b610d3382611e0c565b60075481565b600e80548290811061069557fe5b60025481565b6000828152600f60205260408120600481015490919081908190819081908190670100000000000000900460ff161561191d57611d16565b60048701546301000000900460ff16801561193d5750600487015460ff16155b156119565760048701805463ff00000019169055611d16565b60038701546004880154670de0b6b3a764000090910490899060ff166008811061197c57fe5b6020020151600019020295506000861315611999578594506119a1565b856000190294505b6000861315611a4d576119b8876002015486611d50565b60028801549094506119d0908563ffffffff611dfa16565b6002880155600487015465010000000000900460ff161515611a07576004546119ff908563ffffffff611ded16565b600455611a48565b60048701546601000000000000900460ff1615611a31576004546119ff908563ffffffff611ded16565b600654611a44908563ffffffff611ded16565b6006555b611bd1565b611a5960065486611d50565b9250611a69600454848703611d50565b600454909250611a7f908363ffffffff611dfa16565b600455600654611a95908463ffffffff611dfa16565b600655600487015465010000000000900460ff161515611ad0576002870154611ac69083850163ffffffff611ded16565b6002880155611bd1565b60048701546601000000000000900460ff161515611aff576002870154611ac69083850163ffffffff611ded16565b600160009054906101000a9004600160a060020a0316600160a060020a031663fccc28136040518163ffffffff167c0100000000000000000000000000000000000000000000000000000000028152600401602060405180830381600087803b158015611b6b57600080fd5b505af1158015611b7f573d6000803e3d6000fd5b505050506040513d6020811015611b9557600080fd5b5051604051600160a060020a039091169083850180156108fc02916000818181858888f19350505050158015611bcf573d6000803e3d6000fd5b505b600487015465010000000000900460ff1680611bf957506004870154640100000000900460ff165b15611c0c57611c0789612127565b611d16565b866003015487600201541015611d0657611c4087600201546127106108a66104e28b60030154611d2190919063ffffffff16565b6002880154909150611c58908263ffffffff611dfa16565b6002880155600154604080517f412753580000000000000000000000000000000000000000000000000000000081529051611cc3928492600160a060020a03909116916341275358916004808201926020929091908290030181600087803b15801561093257600080fd5b60018701546040518a91600160a060020a0316907f950c076252eaa33bd75047ed815554ed9e51d125a32e50ecaba55381c156fc1990600090a3611c0789612127565b60048701805463ff0000ff191690555b505050505050505050565b6000821515611d3257506000611d4a565b50818102818382811515611d4257fe5b0414611d4a57fe5b92915050565b6000818311611d60575081611d4a565b50919050565b600154604080517f87bd2bbc000000000000000000000000000000000000000000000000000000008152600160a060020a038481166004830152915191909216916387bd2bbc91859160248082019260009290919082900301818588803b158015611dd057600080fd5b505af1158015611de4573d6000803e3d6000fd5b50505050505050565b81810182811015611d4a57fe5b600082821115611e0657fe5b50900390565b6000806000806000611e1c6121bf565b6000878152600f602052604081206002810180549290556001810154909750909550611e52908690600160a060020a0316611d66565b85546004870154909450610100900460ff1615611ef457600d8054600f916000916000198101908110611e8157fe5b600091825260208083209091015483528201929092526040019020848155600d8054919450906000198101908110611eb557fe5b9060005260206000200154600d85815481101515611ecf57fe5b600091825260209091200155600d805490611eee90600019830161222b565b50611f7b565b600e8054600f916000916000198101908110611f0c57fe5b600091825260208083209091015483528201929092526040019020848155600e8054919350906000198101908110611f4057fe5b9060005260206000200154600e85815481101515611f5a57fe5b600091825260209091200155600e805490611f7990600019830161222b565b505b80600f600089600019166000191681526020019081526020016000206000820151816000015560208201518160010160006101000a815481600160a060020a030219169083600160a060020a03160217905550604082015181600201556060820151816003015560808201518160040160006101000a81548160ff021916908360ff16021790555060a08201518160040160016101000a81548160ff02191690831515021790555060c08201518160040160026101000a81548160ff02191690831515021790555060e08201518160040160036101000a81548160ff0219169083151502179055506101008201518160040160046101000a81548160ff0219169083151502179055506101208201518160040160056101000a81548160ff0219169083151502179055506101408201518160040160066101000a81548160ff0219169083151502179055506101608201518160040160076101000a81548160ff0219169083151502179055506101808201518160040160086101000a81548160ff021916908315150217905550905050600b600081548092919060019003919050555050505050505050565b6000818152600f6020526040902060038101546004820154610100900460ff16156121675760075461215f908263ffffffff611dfa16565b60075561217e565b60085461217a908263ffffffff611dfa16565b6008555b50600401805467ff00000000000000191667010000000000000017905550565b50805460008255906000526020600020908101906121bc9190612254565b50565b604080516101a081018252600080825260208201819052918101829052606081018290526080810182905260a0810182905260c0810182905260e08101829052610100810182905261012081018290526101408101829052610160810182905261018081019190915290565b81548183558181111561224f5760008381526020902061224f918101908301612254565b505050565b61131391905b8082111561226e576000815560010161225a565b5090560008c379a000000000000000000000000000000000000000000000000000000000a165627a7a72305820c9e9117ac9dbe81bffb83bf43a64d08767d52f995ecb7e4a20da22037dc1d2030029",
  "source": "pragma solidity ^0.4.25;\n\nimport \"openzeppelin-solidity/contracts/math/SafeMath.sol\";\nimport \"./AssetSwap.sol\";\n\ncontract Book {\n\n    using SafeMath for uint;\n    \n    address public lp;\n    AssetSwap public assetSwap;\n    \n    uint public lastBookSettleTime;\n    \n    bool public lpDefaulted;\n    uint public lpMargin;\n    uint public burnFees;\n\n    uint public burnMargin;\n    uint public totalLongMargin;    // total RM of all subks where lp is long\n    uint public totalShortMargin;   // total RM of all subks where lp is short\n    uint public lpRequiredMargin;   // ajusted by take, reset at settle\n    uint public takeMinimum;\n    \n    uint public numContracts;\n    bytes32[] public pendingContracts;    // for subcontracts awaiting price initialization\n    bytes32[] public shortTakerContracts; // where lp is long\n    bytes32[] public longTakerContracts;  // where lp is short\n    \n    mapping(bytes32 => Subcontract) public subcontracts;\n\n    uint public minRM; // in wei\n\n    uint constant DEFAULT_FEE = 1250; // in hundredths of a percent\n    uint constant BURN_FEE = 2500; // in hundredths of a percent\n    uint constant TIME_TO_SELF_DESTRUCT = 9 days;\n    uint constant TIME_BETWEEN_SETTLES = 4 days;\n    uint constant MAX_SUBCONTRACTS = 90;\n\n    \n    modifier onlyAdmin()\n    {\n        require(msg.sender == address(assetSwap));\n        _;\n    }\n    \n    event OrderTaken(address indexed _taker, bytes32 indexed _id, uint _amount);\n    event TakerDefault(address indexed _taker, bytes32 indexed _id);\n    event DeleteTraker(uint index, bool willDelete);\n    \n    struct Subcontract {\n        uint index;\n\t\taddress Taker; \t\t\n\t\tuint256 TakerMargin;\n\t\tuint256 ReqMargin;        // in wei\n        uint8 InitialDay;\n\t\tbool MakerSide;           // true for long\n\t\tbool isInitialized;       // true if taken\n        bool isNewContract;       // true if started this week\n\t\tbool isCancelled; \t      \n\t\tbool isBurned;\n\t\tbool makerBurned;\n        bool toDelete;\n        bool takerCloseDiscount;\n\t}\n\n    /** Sets up a new Book for an LP.\n    * @notice each LP should have only one book\n    * @dev the minumum take size is established here and never changes\n    * @param user the address of the LP the new book should belong to\n    * @param admin the address responsible for managing the Book (should be the assetSwap)\n    * @param minBalance the minimum balance size in ETH\n    */\n    constructor(address user, address admin, uint minBalance)\n        public \n    {\n        assetSwap = AssetSwap(admin);\n        lp = user;\n        minRM = minBalance.mul(1 ether);\n        lastBookSettleTime = block.timestamp;\n    }\n\t\n    /** Internal function for removing a subcontract from storage.\n    * @notice automatically refunds the balances and does the proper accounting for the taker\n    * @param id the id of the subcontract to erase\n    */\n\tfunction deleteSubcontract(bytes32 id) \n\t    internal\n    {\n\n\t    Subcontract storage k = subcontracts[id];\n\t\t\n        uint tMargin = k.TakerMargin;\n        k.TakerMargin = 0;\n        balanceSend(tMargin, k.Taker);\n        \n        // implicitly delete by swapping with last element and shortening\n        uint index = k.index;\n        if (k.MakerSide) {\n            Subcontract storage lastShort = subcontracts[shortTakerContracts[shortTakerContracts.length - 1]];\n            lastShort.index = index;\n            shortTakerContracts[index] = shortTakerContracts[shortTakerContracts.length - 1];\n            shortTakerContracts.length--;\n        } else {\n            Subcontract storage lastLong = subcontracts[longTakerContracts[longTakerContracts.length - 1]];\n            lastLong.index = index;\n            longTakerContracts[index] = longTakerContracts[longTakerContracts.length - 1];\n            longTakerContracts.length--;\n        }\n            \n        Subcontract memory blank;\n        subcontracts[id] = blank;\n        numContracts--;\n\t}\n    /** Internal function for removing a subcontract from consideration.\n    * @notice the contract should be redeemed after this\n    * @notice this is only called during settle\n    * @param id the id of the subcontract to erase\n    */\n    function markForDeletion(bytes32 id)\n        internal\n    {\n        Subcontract storage k = subcontracts[id];\n        uint rMargin = k.ReqMargin;\n        if (k.MakerSide)\n            totalLongMargin = totalLongMargin.sub(rMargin);\n        else\n            totalShortMargin = totalShortMargin.sub(rMargin);\n        k.toDelete = true;\n    }\n\n    /** This function returns the stored values of a subcontract\n    * @param id the subcontract id\n    * @return takerMargin the takers actual margin balance\n    * @return reqMargin the required margin for both parties for the subcontract\n    * @return initialDay the integer value corresponding to the index (day) for retrieving prices\n    * @return side the side of the contract in terms of the LP\n    * @return isCancelled if true, the subcontract has been marked as cancelled\n    * @return isBurned if true, the subconract has been marked as burned\n    * @return toDelete if true, the subcontract has been evaluated the last time and should be deleted\n    */\n    function getSubcontract(bytes32 id)\n        public\n        view\n        returns (uint takerMargin, uint reqMargin, uint8 initialDay,\n          bool side, bool isCancelled, bool isBurned, bool toDelete, bool takerDiscount)\n    {\n        Subcontract storage k = subcontracts[id];\n        takerMargin = k.TakerMargin;\n        reqMargin = k.ReqMargin;\n        initialDay = k.InitialDay;\n        side = k.MakerSide;\n        isCancelled = k.isCancelled;\n        isBurned = k.isBurned;\n        toDelete = k.toDelete;\n        takerDiscount = k.takerCloseDiscount;\n    }\n\n    /** Create a new subcontract of the given parameters\n    * @param taker the address of the party on the other side of the contract\n    * @param amount the amount in ETH to create the subcontract for\n    * @param takerSide the side (long = true) the taker is taking\n    * @return id the id of the newly created subcontract\n\t*/\n\tfunction take(address taker, uint amount, bool takerSide)\n        public\n        payable\n        onlyAdmin\n        returns (bytes32 id)\n    {\n        require(amount * 1 ether >= minRM);\n        require(numContracts < MAX_SUBCONTRACTS);\n        uint RM = amount * 1 ether; \n\n        Subcontract memory order;\n        order.ReqMargin = RM;\n        order.MakerSide = !takerSide;\n        order.isInitialized = true;\n        order.TakerMargin = msg.value;\n        order.isNewContract = true;\n        order.Taker = taker;\n\n        id = keccak256(abi.encodePacked(lp, block.timestamp, numContracts));\n        numContracts++;\n\n        if (takerSide)\n        {           // Case 1: taker is long, make is short\n            order.index = longTakerContracts.length;\n            longTakerContracts.push(id);\n            totalShortMargin = totalShortMargin.add(RM);\n            if (totalShortMargin - totalLongMargin > lpRequiredMargin)\n                lpRequiredMargin = totalShortMargin - totalLongMargin;\n            else \n                order.takerCloseDiscount = true;\n        } else {    // Case 2: taker is short, maker is long\n            order.index = shortTakerContracts.length;\n            shortTakerContracts.push(id);\n            totalLongMargin = totalLongMargin.add(RM);\n            if (totalLongMargin - totalShortMargin > lpRequiredMargin)\n                lpRequiredMargin = totalLongMargin - totalShortMargin;\n            else\n                order.takerCloseDiscount = true;\n        }\n        \n        subcontracts[id] = order;\n        pendingContracts.push(id);\n        \n        require (lpMargin > lpRequiredMargin, \"Something went wrong, this take should not be allowed\");\n\n        emit OrderTaken(taker, id, RM);\n        return id;\n    }\n\n    /** Deposit wei into the LP margin\n    * @notice the message value is directly deposited\n    */\n    function fundlpMargin()\n        public\n        payable\n    {\n        lpMargin = lpMargin.add(msg.value);\n    }\n    \n    /** Deposit wei into a taker's margin\n    * @param id the id of the subcontract to deposit into\n    * @notice the message value is directly deposited.\n    */\n    function fundTakerMargin(bytes32 id)\n        public\n        payable\n    {\n        Subcontract storage k = subcontracts[id];\n        require (k.isInitialized);\n        k.TakerMargin= k.TakerMargin.add(msg.value);\n    }\n\n    /** Set the initial day of all new subcontracts\n    * @param priceDay the index value of the current day of the oracle\n    */\n    function firstPrice(uint8 priceDay)\n        public\n        onlyAdmin\n    {\n\n        uint length = pendingContracts.length;\n        for (uint32 i = 0; i < length; i++) {\n            Subcontract storage k = subcontracts[pendingContracts[i]];\n            k.InitialDay = priceDay;\n        }\n        delete pendingContracts;\n    }\n\n    /** Cancel a subcontract\n    * @param oraclePriceTime the last settle price timestamp\n    * @param id the subcontract id\n    * @param sender who sent the cancel to the AssetSwap contract\n    * @param cancelFee the cancel fee for cancelling a subcontract the rest of the time\n    */\n    function cancel(uint oraclePriceTime, bytes32 id, address sender, uint cancelFee)\n        public\n        payable\n        onlyAdmin\n    {\n        Subcontract storage k = subcontracts[id];\n\t\trequire(sender == k.Taker || sender == lp, \"Canceller is not LP or Taker\");\n        require(!k.isCancelled, \"Subcontract is already cancelled\");\n\t\trequire (oraclePriceTime < lastBookSettleTime, \"Players may not cancel during the settle period\");\n\n        uint fee;\n        if (sender == k.Taker && k.takerCloseDiscount)\n            fee =(k.ReqMargin * cancelFee)/3e4;\n        else\n            fee = (k.ReqMargin * cancelFee)/1e4;\n\t\trequire(msg.value >= fee, \"Insufficient cancel fee\");\n\n        k.isCancelled = true;\n\n        balanceSend(fee, assetSwap.feeAddress());\n        balanceSend(msg.value - fee, sender);\n    }\n\n    /** Allow the OracleSwap admin to cancel any  subcontract\n    * @param id the subcontract to cancel\n    */\n    function adminCancel(bytes32 id)\n        public\n        payable\n        onlyAdmin\n    {\n        Subcontract storage k = subcontracts[id];\n        k.isCancelled = true;\n    }\n\n    /** Burn a subcontract\n    * @param id the subcontract id\n    * @param sender who called the function in AssetSwap\n    * @param amount the message value\n    */\n    function burn( bytes32 id, address sender, uint amount)\n        public\n        payable\n        onlyAdmin\n        returns (uint)\n    {\n        Subcontract storage k = subcontracts[id];\n        require(sender == lp || sender == k.Taker);\n        require(!k.isBurned);\n        \n        // cost to kill\n\t\tuint burnFee = (k.ReqMargin * BURN_FEE)/1e4;\n\t\trequire (amount >= burnFee);\n\t\tif (msg.sender == lp)\n\t\t\tk.makerBurned = true;\n\t\t// set appropriate flags for settlment\n\t\tk.isBurned = true;\n        return burnFee;\n    }\n    \n    /** Allow a taker to withdraw margin\n    * @param id the subcontract id\n    * @param lastOracleSettlePrice the block timestamp of the last oracle settle price\n    * @param sender who sent this message to AssetSwap\n    * @notice reverts during settle period\n    */\n    function takerWithdrawal(bytes32 id, uint amount, uint lastOracleSettlePrice, address sender)\n        public\n        onlyAdmin\n    {\n        Subcontract storage k = subcontracts[id];\n        require(lastOracleSettlePrice < lastBookSettleTime,\n            \"Taker cannot withdraw during the settle period.\");\n        require(k.TakerMargin >= k.ReqMargin.add(amount),\n            \"Taker must have sufficient margin\");\n        require(sender == k.Taker,\n            \"Must be taker to call this function\");\n        \n        k.TakerMargin = k.TakerMargin.sub(amount);\n        balanceSend(amount, k.Taker);\n    }\n\n    /** Settle the whole book\n    * @param takerLongRets the returns for a long contract for a taker each day of the week\n    * @param takerShortRets the returns for a short contract for a taker each day of the week\n    * @param longProfited if true, indicates that the long positiion had earnings\n    */\n    function settle(int[8] takerLongRets, int[8] takerShortRets, bool longProfited)\n        public\n        onlyAdmin\n    {\n        require (block.timestamp > lastBookSettleTime + TIME_BETWEEN_SETTLES,\n            \"Book has been settled too recently\");\n\n        if (longProfited)\n        {\n            for (i = 0; i < shortTakerContracts.length; i++) {\n                settleSubcontract(shortTakerContracts[i], takerShortRets);\n            }\n            for (uint i = 0; i < longTakerContracts.length; i++) {\n                settleSubcontract(longTakerContracts[i], takerLongRets);\n            }  \n        }\n        else\n        {  \n            for (i = 0; i < longTakerContracts.length; i++) {\n                settleSubcontract(longTakerContracts[i], takerLongRets);\n            }\n            for (i = 0; i < shortTakerContracts.length; i++) {\n                settleSubcontract(shortTakerContracts[i], takerShortRets);\n            }\n        }\n\n        lastBookSettleTime = block.timestamp;\n        burnMargin = 0;\n\n        if (totalLongMargin > totalShortMargin)\n            lpRequiredMargin = totalLongMargin - totalShortMargin;\n        else\n            lpRequiredMargin = totalShortMargin - totalLongMargin;\n\n        if (lpMargin < lpRequiredMargin)\n        {\n            lpDefaulted = true;\n            uint toSub = min(lpMargin, lpRequiredMargin.mul(DEFAULT_FEE)/1e4);\n            lpMargin = lpMargin - toSub;\n            balanceSend(toSub, assetSwap.feeAddress());\n        }\n    }\n\n    /** Internal fn to settle an individual subcontract\n    * @param id the id of the subcontract\n    * @param takerRets the taker returns for a contract of that position for each day of the week\n    */\n    function settleSubcontract(bytes32 id, int[8] takerRets)\n        internal\n    {\n        Subcontract storage k = subcontracts[id];\n\n        // Don't settle terminated contracts\n        if (k.toDelete)\n            return;\n\n        // Dont settle subcontracts started today\n        if (k.isNewContract && k.InitialDay == 0)\n        {\n            k.isNewContract = false;\n            return;\n        }\n\n        int makerPNL = (-1 * takerRets[k.InitialDay]) * int(k.ReqMargin / 1 ether);\n        \n        uint absolutePNL;\n        if (makerPNL > 0)\n            absolutePNL = uint(makerPNL);\n        else\n            absolutePNL = uint(makerPNL * (-1));\n\n        // in the case the maker should profit\n        if (makerPNL > 0)\n        {\n            uint toTake = min(k.TakerMargin, absolutePNL);\n            k.TakerMargin = k.TakerMargin.sub(toTake);\n\n            // add to burn margin if taker burned or burn fees if maker burned\n            if (!k.isBurned)\n                lpMargin = lpMargin.add(toTake);\n            else if (k.makerBurned)\n                lpMargin = lpMargin.add(toTake);\n            else \n                burnMargin = burnMargin.add(toTake);\n        } \n        else // in the case the taker should profit\n        {\n            // Take from the burn margin if possible\n            uint burnMarginTake = min(burnMargin, absolutePNL);\n            uint lpMarginTake = min(lpMargin, (absolutePNL - burnMarginTake));\n            lpMargin = lpMargin.sub(lpMarginTake);\n            burnMargin = burnMargin.sub(burnMarginTake);\n            if (!k.isBurned)\n                k.TakerMargin = k.TakerMargin.add(lpMarginTake + burnMarginTake);\n            else if (!k.makerBurned)\n                k.TakerMargin = k.TakerMargin.add(lpMarginTake + burnMarginTake);\n            else\n                assetSwap.BURN_ADDRESS().transfer(lpMarginTake + burnMarginTake);\n        }\n        \n        \n        // close if killed or cancelled, to be redeemed by user\n        if (k.isBurned || k.isCancelled) {\n            markForDeletion(id);\n            return;\n        }\n        \n        // this is the case the taker defaulted\n        if (k.TakerMargin < k.ReqMargin)\n        {\n            uint toSub = min(k.TakerMargin, k.ReqMargin.mul(DEFAULT_FEE)/1e4);\n            k.TakerMargin = k.TakerMargin.sub(toSub);\n            balanceSend(toSub, assetSwap.feeAddress());\n            emit TakerDefault(k.Taker, id);\n            markForDeletion(id);\n        } else {\n            k.isNewContract = false;\n            k.InitialDay = 0;\n        }\n    }\n    \n    /** Withdraw margin from the LP margin \n    * @param amount the amount of margin to move\n    * @param lastOracleSettleTime timestamp of the last oracle setlement time\n    * @notice reverts if during the settle period\n    */\n    function lpMarginWithdrawal(uint amount, uint lastOracleSettleTime)\n        public\n        onlyAdmin\n    {\n        if (lpDefaulted || reachedSelfDestructTime())\n        {\n            require (lpMargin >= amount,\n                \"Attempting to withdraw more than the margin\");\n        }\n        else\n        {\n            require (lpMargin >= lpRequiredMargin.add(amount),\n                \"Attempting to withdraw more than the allowed amount\");\n            require(lastOracleSettleTime < lastBookSettleTime,\n                \"LP cannot withdraw during the settle period.\");\n        }\n        lpMargin = lpMargin.sub(amount);\n        balanceSend(amount, lp);\n    }\n\n    /** Allow the LP to change the minimum take size in their book\n    * @param min the minimum take size in ETH for the book\n    */\n    function adjustMinRM(uint min)\n        public\n        onlyAdmin\n    {\n        minRM = min * 1 ether;\n    }\n\n    /** Refund the balances and remove from storage a subcontract that has been defaulted, cancelled,\n    * burned, or expired.\n    * @param id the id of the subcontract\n    */\n    function redeemSubcontract(bytes32 id)\n        public\n        onlyAdmin\n    {\n        Subcontract storage k = subcontracts[id];\n        require(k.toDelete || lpDefaulted || reachedSelfDestructTime(),\n            \"Subcontract is not eligible for deletion\");\n        deleteSubcontract(id);\n    }\n\n    /** Function to send balances back to the Assetswap contract\n    * @param amount the amount in wei to send\n    * @param recipient the address to credit the balance to\n    */\n    function balanceSend(uint amount, address recipient)\n        internal\n    {\n        assetSwap.balanceTransfer.value(amount)(recipient);\n    }\n\n    /** Will check and see if we reached the self destruct time\n    * @return true if contract has passed self destruct time\n    */\n    function reachedSelfDestructTime()\n        public\n        view\n        returns (bool)\n    {\n        return block.timestamp > lastBookSettleTime + TIME_TO_SELF_DESTRUCT;\n    }\n\n    /** Utility function to find the minimum of two unsigned values\n    * @notice returns the first parameter if they are equal\n    */\n    function min(uint a, uint b)\n        internal\n        pure\n        returns (uint minimum)\n    {\n        if (a <= b)\n            minimum = a;\n        else\n            minimum = b;\n    }\n}",
  "sourcePath": "/Users/mackenzie/OracleSwap/contracts/Book.sol",
  "compiler": {
    "name": "solc",
    "version": "0.4.25+commit.59dbf8f1.Emscripten.clang"
  },
  "schemaVersion": "2.0.2",
  "updatedAt": "2019-07-02T17:26:51.081Z"
}