{
  "contractName": "ManagedAccount",
  "abi": [
    {
      "constant": true,
      "inputs": [],
      "name": "investor",
      "outputs": [
        {
          "name": "",
          "type": "address"
        }
      ],
      "payable": false,
      "stateMutability": "view",
      "type": "function"
    },
    {
      "constant": true,
      "inputs": [],
      "name": "manager",
      "outputs": [
        {
          "name": "",
          "type": "address"
        }
      ],
      "payable": false,
      "stateMutability": "view",
      "type": "function"
    },
    {
      "inputs": [
        {
          "name": "_manager",
          "type": "address"
        },
        {
          "name": "_investor",
          "type": "address"
        }
      ],
      "payable": false,
      "stateMutability": "nonpayable",
      "type": "constructor"
    },
    {
      "anonymous": false,
      "inputs": [
        {
          "indexed": false,
          "name": "amount",
          "type": "uint256"
        }
      ],
      "name": "AddedFunds",
      "type": "event"
    },
    {
      "constant": false,
      "inputs": [
        {
          "name": "swap",
          "type": "address"
        },
        {
          "name": "min",
          "type": "uint256"
        }
      ],
      "name": "createBook",
      "outputs": [],
      "payable": false,
      "stateMutability": "nonpayable",
      "type": "function"
    },
    {
      "constant": false,
      "inputs": [
        {
          "name": "swap",
          "type": "address"
        }
      ],
      "name": "fundBookMargin",
      "outputs": [],
      "payable": true,
      "stateMutability": "payable",
      "type": "function"
    },
    {
      "constant": false,
      "inputs": [
        {
          "name": "swap",
          "type": "address"
        },
        {
          "name": "amount",
          "type": "uint256"
        }
      ],
      "name": "withdrawBookMargin",
      "outputs": [],
      "payable": true,
      "stateMutability": "payable",
      "type": "function"
    },
    {
      "constant": false,
      "inputs": [
        {
          "name": "swap",
          "type": "address"
        }
      ],
      "name": "withdrawFromSwap",
      "outputs": [],
      "payable": false,
      "stateMutability": "nonpayable",
      "type": "function"
    },
    {
      "constant": false,
      "inputs": [
        {
          "name": "swap",
          "type": "address"
        },
        {
          "name": "id",
          "type": "bytes32"
        }
      ],
      "name": "cancel",
      "outputs": [],
      "payable": false,
      "stateMutability": "nonpayable",
      "type": "function"
    },
    {
      "constant": false,
      "inputs": [
        {
          "name": "swap",
          "type": "address"
        },
        {
          "name": "id",
          "type": "bytes32"
        }
      ],
      "name": "redeem",
      "outputs": [],
      "payable": false,
      "stateMutability": "nonpayable",
      "type": "function"
    },
    {
      "constant": false,
      "inputs": [
        {
          "name": "swap",
          "type": "address"
        }
      ],
      "name": "addAsset",
      "outputs": [],
      "payable": false,
      "stateMutability": "nonpayable",
      "type": "function"
    },
    {
      "constant": false,
      "inputs": [
        {
          "name": "newManager",
          "type": "address"
        }
      ],
      "name": "changeManager",
      "outputs": [],
      "payable": false,
      "stateMutability": "nonpayable",
      "type": "function"
    },
    {
      "constant": false,
      "inputs": [],
      "name": "fund",
      "outputs": [],
      "payable": true,
      "stateMutability": "payable",
      "type": "function"
    },
    {
      "constant": false,
      "inputs": [],
      "name": "investorWithdraw",
      "outputs": [],
      "payable": false,
      "stateMutability": "nonpayable",
      "type": "function"
    }
  ],
  "bytecode": "0x608060405234801561001057600080fd5b506040516040806107f883398101604052805160209091015160008054600160a060020a03938416600160a060020a03199182161790915560018054939092169216919091179055610791806100676000396000f3006080604052600436106100b85763ffffffff7c0100000000000000000000000000000000000000000000000000000000600035041662d33e5c81146100bd5780631ceeb158146100d35780631e0018d6146100f7578063231c0a8a14610128578063298410e51461014957806344431b331461016a578063481c6a75146101815780639e2ed68614610196578063a3fbbaae146101ba578063b60d4288146101db578063ba8bfd83146101e3578063c85c8925146101f8575b600080fd5b6100d1600160a060020a036004351661021c565b005b3480156100df57600080fd5b506100d1600160a060020a03600435166024356102cd565b34801561010357600080fd5b5061010c6103b9565b60408051600160a060020a039092168252519081900360200190f35b34801561013457600080fd5b506100d1600160a060020a03600435166103c8565b34801561015557600080fd5b506100d1600160a060020a036004351661046d565b6100d1600160a060020a03600435166024356104a8565b34801561018d57600080fd5b5061010c61053c565b3480156101a257600080fd5b506100d1600160a060020a036004351660243561054b565b3480156101c657600080fd5b506100d1600160a060020a03600435166105e5565b6100d161062b565b3480156101ef57600080fd5b506100d1610677565b34801561020457600080fd5b506100d1600160a060020a03600435166024356106cb565b60008054600160a060020a03163314806102405750600154600160a060020a031633145b151561024b57600080fd5b50604080517fb74bf3e800000000000000000000000000000000000000000000000000000000815230600482015290518291600160a060020a0383169163b74bf3e8913491602480830192600092919082900301818588803b1580156102b057600080fd5b505af11580156102c4573d6000803e3d6000fd5b50505050505050565b60008054600160a060020a03163314806102f15750600154600160a060020a031633145b15156102fc57600080fd5b600160a060020a03831660009081526002602052604090205460ff16151561032357600080fd5b82905080600160a060020a031663b9ac6767836040518263ffffffff167c010000000000000000000000000000000000000000000000000000000002815260040180828152602001915050602060405180830381600087803b15801561038857600080fd5b505af115801561039c573d6000803e3d6000fd5b505050506040513d60208110156103b257600080fd5b5050505050565b600154600160a060020a031681565b60008054600160a060020a03163314806103ec5750600154600160a060020a031633145b15156103f757600080fd5b81905080600160a060020a0316635fd8c7106040518163ffffffff167c0100000000000000000000000000000000000000000000000000000000028152600401600060405180830381600087803b15801561045157600080fd5b505af1158015610465573d6000803e3d6000fd5b505050505050565b600154600160a060020a0316331461048457600080fd5b600160a060020a03166000908152600260205260409020805460ff19166001179055565b60008054600160a060020a03163314806104cc5750600154600160a060020a031633145b15156104d757600080fd5b82905080600160a060020a0316634832d3ca836040518263ffffffff167c010000000000000000000000000000000000000000000000000000000002815260040180828152602001915050600060405180830381600087803b1580156102b057600080fd5b600054600160a060020a031681565b60008054600160a060020a031633148061056f5750600154600160a060020a031633145b151561057a57600080fd5b50604080517f8b3b42c10000000000000000000000000000000000000000000000000000000081523060048201526024810183905290518391600160a060020a03831691638b3b42c19160448082019260009290919082900301818387803b1580156102b057600080fd5b600154600160a060020a031633146105fc57600080fd5b6000805473ffffffffffffffffffffffffffffffffffffffff1916600160a060020a0392909216919091179055565b600154600160a060020a0316331461064257600080fd5b6040805134815290517f3d264125e9d4fefca2b6405b6b832887f27b651a65f44514ab1d07edbe488e679181900360200190a1565b600154600160a060020a0316331461068e57600080fd5b600154604051600160a060020a0390911690303180156108fc02916000818181858888f193505050501580156106c8573d6000803e3d6000fd5b50565b60008054600160a060020a03163314806106ef5750600154600160a060020a031633145b15156106fa57600080fd5b50604080517fc85c89250000000000000000000000000000000000000000000000000000000081523060048201526024810183905290518391600160a060020a0383169163c85c89259160448082019260009290919082900301818387803b1580156102b057600080fd00a165627a7a72305820327ee5dd7424c0e54ac4be444f7b76f87475485c786807632cbff292ddb4df900029",
  "source": "pragma solidity ^0.4.24;\n\nimport \"./AssetSwap.sol\";\n\ncontract ManagedAccount {\n\n    address public manager;\n    address public investor;\n    mapping(address => bool) approvedSwaps;\n\n    event AddedFunds(uint amount);\n    \n    modifier onlyInvestor()\n    {\n        require(msg.sender == investor);\n        _;\n    }\n\n    modifier onlyApproved()\n    {\n        require(msg.sender == manager || msg.sender == investor);\n        _;\n    }\n    \n    constructor(address _manager, address _investor) public\n    {\n        manager = _manager;\n        investor = _investor;\n    }\n\n    /*** assetswap functions ***/\n    function createBook(address swap, uint min)\n        public\n        onlyApproved\n    {\n        require(approvedSwaps[swap]);\n        AssetSwap s = AssetSwap(swap);\n\n        s.createBook(min);\n    }\n\n    function fundBookMargin(address swap)\n        public\n        payable\n        onlyApproved\n    {\n        AssetSwap s = AssetSwap(swap);\n        s.lpFund.value(msg.value)(address(this));\n    }\n\n    function withdrawBookMargin(address swap, uint amount)\n        public\n        payable\n        onlyApproved\n    {\n        AssetSwap s = AssetSwap(swap);\n        s.lpMarginWithdrawal(amount);\n    }\n\n    function withdrawFromSwap(address swap)\n        public\n        onlyApproved\n    {\n        AssetSwap s = AssetSwap(swap);\n        s.withdrawBalance();\n    }\n\n    function cancel(address swap, bytes32 id)\n        public\n        onlyApproved\n    {\n        AssetSwap s = AssetSwap(swap);\n        s.playerCancel(address(this), id);\n    }\n\n    function redeem(address swap, bytes32 id)\n        public\n        onlyApproved\n    {\n        AssetSwap s = AssetSwap(swap);\n        s.redeem(address(this), id);\n    }\n\n\n    /*** management functions ***/\n    function addAsset(address swap)\n        public\n        onlyInvestor\n    {\n        approvedSwaps[swap] = true;\n    }\n\n\n    function changeManager(address newManager) \n        public\n        onlyInvestor\n    {\n        manager = newManager;\n    }\n\n    function fund()\n        public\n        payable\n        onlyInvestor\n    {\n        emit AddedFunds(msg.value);\n    }\n\n    function investorWithdraw()\n        public\n        onlyInvestor\n    {\n        investor.transfer(address(this).balance);\n    }\n}",
  "sourcePath": "/Users/mackenzie/OracleSwap/contracts/ManagedAccount.sol",
  "compiler": {
    "name": "solc",
    "version": "0.4.25+commit.59dbf8f1.Emscripten.clang"
  },
  "schemaVersion": "2.0.2",
  "updatedAt": "2019-07-02T17:26:51.088Z"
}