{
  "contractName": "Oracle",
  "abi": [
    {
      "constant": true,
      "inputs": [
        {
          "name": "",
          "type": "uint256"
        },
        {
          "name": "",
          "type": "uint256"
        }
      ],
      "name": "lastWeekPrices",
      "outputs": [
        {
          "name": "",
          "type": "uint256"
        }
      ],
      "payable": false,
      "stateMutability": "view",
      "type": "function"
    },
    {
      "constant": true,
      "inputs": [
        {
          "name": "",
          "type": "address"
        }
      ],
      "name": "admins",
      "outputs": [
        {
          "name": "",
          "type": "bool"
        }
      ],
      "payable": false,
      "stateMutability": "view",
      "type": "function"
    },
    {
      "constant": true,
      "inputs": [
        {
          "name": "",
          "type": "address"
        }
      ],
      "name": "readers",
      "outputs": [
        {
          "name": "",
          "type": "bool"
        }
      ],
      "payable": false,
      "stateMutability": "view",
      "type": "function"
    },
    {
      "constant": true,
      "inputs": [
        {
          "name": "",
          "type": "uint256"
        }
      ],
      "name": "assets",
      "outputs": [
        {
          "name": "name",
          "type": "bytes32"
        },
        {
          "name": "lastPriceUpdateTime",
          "type": "uint256"
        },
        {
          "name": "lastSettlePriceTime",
          "type": "uint256"
        },
        {
          "name": "currentDay",
          "type": "uint8"
        },
        {
          "name": "isFinalDay",
          "type": "bool"
        }
      ],
      "payable": false,
      "stateMutability": "view",
      "type": "function"
    },
    {
      "inputs": [
        {
          "name": "ethPrice",
          "type": "uint256"
        }
      ],
      "payable": false,
      "stateMutability": "nonpayable",
      "type": "constructor"
    },
    {
      "anonymous": false,
      "inputs": [
        {
          "indexed": true,
          "name": "id",
          "type": "uint256"
        },
        {
          "indexed": false,
          "name": "name",
          "type": "bytes32"
        },
        {
          "indexed": false,
          "name": "price",
          "type": "uint256"
        }
      ],
      "name": "AssetAdded",
      "type": "event"
    },
    {
      "anonymous": false,
      "inputs": [
        {
          "indexed": true,
          "name": "id",
          "type": "uint256"
        },
        {
          "indexed": false,
          "name": "name",
          "type": "bytes32"
        },
        {
          "indexed": false,
          "name": "price",
          "type": "uint256"
        },
        {
          "indexed": false,
          "name": "timestamp",
          "type": "uint256"
        }
      ],
      "name": "PriceUpdated",
      "type": "event"
    },
    {
      "anonymous": false,
      "inputs": [
        {
          "indexed": true,
          "name": "id",
          "type": "uint256"
        },
        {
          "indexed": false,
          "name": "name",
          "type": "bytes32"
        },
        {
          "indexed": false,
          "name": "price",
          "type": "uint256"
        },
        {
          "indexed": false,
          "name": "timestamp",
          "type": "uint256"
        }
      ],
      "name": "SettlePrice",
      "type": "event"
    },
    {
      "anonymous": false,
      "inputs": [
        {
          "indexed": true,
          "name": "id",
          "type": "uint256"
        },
        {
          "indexed": true,
          "name": "name",
          "type": "bytes32"
        },
        {
          "indexed": false,
          "name": "price",
          "type": "uint256"
        },
        {
          "indexed": false,
          "name": "timestamp",
          "type": "uint256"
        }
      ],
      "name": "PriceCorrected",
      "type": "event"
    },
    {
      "constant": false,
      "inputs": [
        {
          "name": "name",
          "type": "bytes32"
        },
        {
          "name": "startPrice",
          "type": "uint256"
        }
      ],
      "name": "addAsset",
      "outputs": [
        {
          "name": "id",
          "type": "uint256"
        }
      ],
      "payable": false,
      "stateMutability": "nonpayable",
      "type": "function"
    },
    {
      "constant": false,
      "inputs": [
        {
          "name": "assetID",
          "type": "uint256"
        },
        {
          "name": "price",
          "type": "uint256"
        },
        {
          "name": "finalDayStatus",
          "type": "bool"
        }
      ],
      "name": "setIntraweekPrice",
      "outputs": [],
      "payable": false,
      "stateMutability": "nonpayable",
      "type": "function"
    },
    {
      "constant": false,
      "inputs": [
        {
          "name": "assetID",
          "type": "uint256"
        },
        {
          "name": "price",
          "type": "uint256"
        }
      ],
      "name": "setSettlePrice",
      "outputs": [],
      "payable": false,
      "stateMutability": "nonpayable",
      "type": "function"
    },
    {
      "constant": false,
      "inputs": [
        {
          "name": "assetID",
          "type": "uint256"
        },
        {
          "name": "newPrice",
          "type": "uint256"
        }
      ],
      "name": "editPrice",
      "outputs": [],
      "payable": false,
      "stateMutability": "nonpayable",
      "type": "function"
    },
    {
      "constant": false,
      "inputs": [
        {
          "name": "newAdmin",
          "type": "address"
        }
      ],
      "name": "addAdmin",
      "outputs": [],
      "payable": false,
      "stateMutability": "nonpayable",
      "type": "function"
    },
    {
      "constant": false,
      "inputs": [
        {
          "name": "toRemove",
          "type": "address"
        }
      ],
      "name": "removeAdmin",
      "outputs": [],
      "payable": false,
      "stateMutability": "nonpayable",
      "type": "function"
    },
    {
      "constant": false,
      "inputs": [
        {
          "name": "newReader",
          "type": "address"
        }
      ],
      "name": "addReader",
      "outputs": [],
      "payable": false,
      "stateMutability": "nonpayable",
      "type": "function"
    },
    {
      "constant": true,
      "inputs": [
        {
          "name": "id",
          "type": "uint256"
        }
      ],
      "name": "getCurrentPrices",
      "outputs": [
        {
          "name": "currentPrices",
          "type": "uint256[8]"
        }
      ],
      "payable": false,
      "stateMutability": "view",
      "type": "function"
    },
    {
      "constant": true,
      "inputs": [
        {
          "name": "id",
          "type": "uint256"
        }
      ],
      "name": "getCurrentPrice",
      "outputs": [
        {
          "name": "price",
          "type": "uint256"
        }
      ],
      "payable": false,
      "stateMutability": "view",
      "type": "function"
    },
    {
      "constant": true,
      "inputs": [
        {
          "name": "id",
          "type": "uint256"
        }
      ],
      "name": "getLastUpdateTime",
      "outputs": [
        {
          "name": "timestamp",
          "type": "uint256"
        }
      ],
      "payable": false,
      "stateMutability": "view",
      "type": "function"
    },
    {
      "constant": true,
      "inputs": [
        {
          "name": "id",
          "type": "uint256"
        }
      ],
      "name": "getLastSettleTime",
      "outputs": [
        {
          "name": "timestamp",
          "type": "uint256"
        }
      ],
      "payable": false,
      "stateMutability": "view",
      "type": "function"
    },
    {
      "constant": true,
      "inputs": [
        {
          "name": "id",
          "type": "uint256"
        }
      ],
      "name": "isFinalDay",
      "outputs": [
        {
          "name": "",
          "type": "bool"
        }
      ],
      "payable": false,
      "stateMutability": "view",
      "type": "function"
    },
    {
      "constant": true,
      "inputs": [
        {
          "name": "id",
          "type": "uint256"
        }
      ],
      "name": "isSettleDay",
      "outputs": [
        {
          "name": "",
          "type": "bool"
        }
      ],
      "payable": false,
      "stateMutability": "view",
      "type": "function"
    }
  ],
  "bytecode": "0x60806040523480156200001157600080fd5b50604051602080620016348339810160409081529051336000908152600360205291909120805460ff19166001179055620000767f4554485553440000000000000000000000000000000000000000000000000000826401000000006200007e810204565b50506200038a565b60006200008a620002d9565b6200009462000307565b3360009081526003602052604090205460ff1680620000b257503330145b1515620000be57600080fd5b84825260006060830181815242602085018181526040860191825283546001808201865585805287517f290decd9548b62a8d60345a988386fc84ba6bc95484008f6362f93160ef3e56360049093029283015591517f290decd9548b62a8d60345a988386fc84ba6bc95484008f6362f93160ef3e56482015591517f290decd9548b62a8d60345a988386fc84ba6bc95484008f6362f93160ef3e56583015591517f290decd9548b62a8d60345a988386fc84ba6bc95484008f6362f93160ef3e5669091018054608087015160ff1990911660ff9093169290921761ff00191661010092151592909202919091179055600280549182018082559252620001ef907f405787fa12a823e0f2b7631cc41b3ba8828b3321ca811111fa75cd3aa3bb5ace60089182020190849062000327565b50508381526001805480820180835560009290925262000239907fb10e2d527612073b26eecdfd717e6a320cf44b4afac2b0732d9fcbe2b7fa0cf660089182020190849062000327565b505060005460408051878152602081018790528151600019909301927feddd632405ffb0ed362b99fb2bfd848180a6e12242e6a03aec07673272ca1838929181900390910190a2600054604080518781526020810187905242818301529051600019909201917f87634baedd902d9b72997561b6a1a43dec51a612aaf2947f263da41d0fc84a459181900360600190a25050600054600019019392505050565b6040805160a08101825260008082526020820181905291810182905260608101829052608081019190915290565b610100604051908101604052806008906020820280388339509192915050565b826008810192821562000358579160200282015b82811115620003585782518255916020019190600101906200033b565b50620003669291506200036a565b5090565b6200038791905b8082111562000366576000815560010162000371565b90565b61129a806200039a6000396000f3006080604052600436106100f05763ffffffff7c010000000000000000000000000000000000000000000000000000000060003504166311236ca081146100f5578063117665641461011f5780631785f53c14610170578063248de5bc146101a05780632555aef0146101cc578063429b62e5146101e757806345129a0a1461021557806351e59ffb14610235578063704802751461026357806374a2c5b2146102915780638ec308f4146102ac578063ae9308b7146102c7578063afd8b1d1146102df578063c55d0f561461030d578063cf35bdd014610325578063d0e7a5cb1461036d578063eed42acc14610388575b600080fd5b34801561010157600080fd5b5061010d6004356103a0565b60408051918252519081900360200190f35b34801561012b57600080fd5b506101376004356103c9565b604051808261010080838360005b8381101561015d578181015183820152602001610145565b5050505090500191505060405180910390f35b34801561017c57600080fd5b5061019e73ffffffffffffffffffffffffffffffffffffffff600435166104d1565b005b3480156101ac57600080fd5b506101b86004356105b6565b604080519115158252519081900360200190f35b3480156101d857600080fd5b5061010d6004356024356105e8565b3480156101f357600080fd5b506101b873ffffffffffffffffffffffffffffffffffffffff6004351661061a565b34801561022157600080fd5b5061019e600435602435604435151561062f565b34801561024157600080fd5b506101b873ffffffffffffffffffffffffffffffffffffffff6004351661083b565b34801561026f57600080fd5b5061019e73ffffffffffffffffffffffffffffffffffffffff60043516610850565b34801561029d57600080fd5b5061019e60043560243561089f565b3480156102b857600080fd5b5061010d600435602435610bba565b3480156102d357600080fd5b506101b8600435610e0b565b3480156102eb57600080fd5b5061019e73ffffffffffffffffffffffffffffffffffffffff60043516610e39565b34801561031957600080fd5b5061010d600435610e88565b34801561033157600080fd5b5061033d600435610f8a565b6040805195865260208601949094528484019290925260ff16606084015215156080830152519081900360a00190f35b34801561037957600080fd5b5061019e600435602435610fce565b34801561039457600080fd5b5061010d600435611151565b600080828154811015156103b057fe5b9060005260206000209060040201600201549050919050565b6103d161117a565b3360009081526003602052604090205460ff16806103fe57503360009081526004602052604090205460ff165b151561047f576040805160008051602061124f833981519152815260206004820152603660248201527f46756e6374696f6e2063616c6c6572206973206e6f7420617070726f7665642060448201527f746f2063616c6c20746869732066756e6374696f6e2e00000000000000000000606482015290519081900360840190fd5b600180548390811061048d57fe5b6000918252602090912060408051610100810191829052926008908102909201919082845b8154815260200190600101908083116104b25750505050509050919050565b3360009081526003602052604090205460ff1615156104ef57600080fd5b73ffffffffffffffffffffffffffffffffffffffff8116331415610588576040805160008051602061124f833981519152815260206004820152602860248201527f596f75206d6179206e6f742072656d6f766520796f757273656c66206173206160448201527f6e2061646d696e2e000000000000000000000000000000000000000000000000606482015290519081900360840190fd5b73ffffffffffffffffffffffffffffffffffffffff166000908152600360205260409020805460ff19169055565b600080828154811015156105c657fe5b6000918252602090912060049091020160030154610100900460ff1692915050565b60028054839081106105f657fe5b90600052602060002090600802018160088110151561061157fe5b01549150829050565b60036020526000908152604090205460ff1681565b3360009081526003602052604081205460ff16151561064d57600080fd5b600080548590811061065b57fe5b9060005260206000209060040201905061fd20816001015401421115156106f7576040805160008051602061124f833981519152815260206004820152603660248201527f53756666696369656e742074696d65206d75737420706173732062657477656560448201527f6e206461696c7920707269636520757064617465732e00000000000000000000606482015290519081900360840190fd5b6003810154610100900460ff1615610784576040805160008051602061124f833981519152815260206004820152603860248201527f546865206e65787420707269636520757064617465206d75737420626520612060448201527f736574746c656d656e74207072696365207570646174652e0000000000000000606482015290519081900360840190fd5b60038101805460ff198116600160ff92831681019092161790915542818301558054849190869081106107b357fe5b60009182526020909120600384015460089283029091019160ff9091169081106107d957fe5b01556003810180548315156101000261ff00199091161790558054604080519182526020820185905242828201525185917f87634baedd902d9b72997561b6a1a43dec51a612aaf2947f263da41d0fc84a45919081900360600190a250505050565b60046020526000908152604090205460ff1681565b3360009081526003602052604090205460ff16151561086e57600080fd5b73ffffffffffffffffffffffffffffffffffffffff166000908152600360205260409020805460ff19166001179055565b60006108a961117a565b3360009081526003602052604090205460ff1615156108c757600080fd5b60008054859081106108d557fe5b9060005260206000209060040201915061fd2082600101540142111515610971576040805160008051602061124f833981519152815260206004820152603660248201527f53756666696369656e742074696d65206d75737420706173732062657477656560448201527f6e206461696c7920707269636520757064617465732e00000000000000000000606482015290519081900360840190fd5b6002820154620697800142116109fc576040805160008051602061124f833981519152815260206004820152603760248201527f53756666696369656e742074696d65206d75737420706173732062657477656560448201527f6e207765656b6c7920707269636520757064617465732e000000000000000000606482015290519081900360840190fd5b6003820154610100900460ff161515610a8a576040805160008051602061124f833981519152815260206004820152603760248201527f536574746c656d656e7420646179206d7573742068617665206265656e20646560448201527f636c61726564207468652070726576696f757320646179000000000000000000606482015290519081900360840190fd5b6001805485908110610a9857fe5b9060005260206000209060080201600285815481101515610ab557fe5b9060005260206000209060080201906008610ad192919061119a565b5060038201805460ff191690558281526001805482919086908110610af257fe5b9060005260206000209060080201906008610b0e9291906111d5565b5042600183018190556002830181905560038301805461ff00191690558254604080519182526020820186905281810192909252905185917f87634baedd902d9b72997561b6a1a43dec51a612aaf2947f263da41d0fc84a45919081900360600190a28154604080519182526020820185905242828201525185917f3bc32acccf2657cda429bf0fd110a39e648f1e72c62dd5d64f2a7f17b3508e17919081900360600190a250505050565b6000610bc4611203565b610bcc61117a565b3360009081526003602052604090205460ff1680610be957503330145b1515610bf457600080fd5b84825260006060830181815242602085018181526040860191825283546001808201865585805287517f290decd9548b62a8d60345a988386fc84ba6bc95484008f6362f93160ef3e56360049093029283015591517f290decd9548b62a8d60345a988386fc84ba6bc95484008f6362f93160ef3e56482015591517f290decd9548b62a8d60345a988386fc84ba6bc95484008f6362f93160ef3e56583015591517f290decd9548b62a8d60345a988386fc84ba6bc95484008f6362f93160ef3e5669091018054608087015160ff1990911660ff9093169290921761ff00191661010092151592909202919091179055600280549182018082559252610d23907f405787fa12a823e0f2b7631cc41b3ba8828b3321ca811111fa75cd3aa3bb5ace6008918202019084906111d5565b505083815260018054808201808355600092909252610d6b907fb10e2d527612073b26eecdfd717e6a320cf44b4afac2b0732d9fcbe2b7fa0cf66008918202019084906111d5565b505060005460408051878152602081018790528151600019909301927feddd632405ffb0ed362b99fb2bfd848180a6e12242e6a03aec07673272ca1838929181900390910190a2600054604080518781526020810187905242818301529051600019909201917f87634baedd902d9b72997561b6a1a43dec51a612aaf2947f263da41d0fc84a459181900360600190a25050600054600019019392505050565b60008082815481101515610e1b57fe5b600091825260209091206004909102016003015460ff161592915050565b3360009081526003602052604090205460ff161515610e5757600080fd5b73ffffffffffffffffffffffffffffffffffffffff166000908152600460205260409020805460ff19166001179055565b3360009081526003602052604081205460ff1680610eb557503360009081526004602052604090205460ff165b1515610f36576040805160008051602061124f833981519152815260206004820152603660248201527f46756e6374696f6e2063616c6c6572206973206e6f7420617070726f7665642060448201527f746f2063616c6c20746869732066756e6374696f6e2e00000000000000000000606482015290519081900360840190fd5b6001805483908110610f4457fe5b9060005260206000209060080201600083815481101515610f6157fe5b600091825260209091206003600490920201015460ff1660088110610f8257fe5b015492915050565b6000805482908110610f9857fe5b60009182526020909120600490910201805460018201546002830154600390930154919350919060ff8082169161010090041685565b3360009081526003602052604081205460ff161515610fec57600080fd5b6000805484908110610ffa57fe5b9060005260206000209060040201905061070881600101540142101515611096576040805160008051602061124f833981519152815260206004820152603860248201527f43616e6e6f74206564697420746865207072696365206166746572207468652060448201527f74696d65206d696e696d756d2068617320656c61707365640000000000000000606482015290519081900360840190fd5b816001848154811015156110a657fe5b60009182526020909120600384015460089283029091019160ff9091169081106110cc57fe5b01558054604080519182526020820184905242828201525184917f87634baedd902d9b72997561b6a1a43dec51a612aaf2947f263da41d0fc84a45919081900360600190a2805460408051848152426020820152815186927f75364b7102d0e7f92c49e3c9da966fc3c23e66e61fe7f5f1e26f87b17878ec1d928290030190a3505050565b6000808281548110151561116157fe5b9060005260206000209060040201600101549050919050565b610100604051908101604052806008906020820280388339509192915050565b82600881019282156111c5579182015b828111156111c55782548255916001019190600101906111aa565b506111d1929150611231565b5090565b82600881019282156111c5579160200282015b828111156111c55782518255916020019190600101906111e8565b6040805160a08101825260008082526020820181905291810182905260608101829052608081019190915290565b61124b91905b808211156111d15760008155600101611237565b90560008c379a000000000000000000000000000000000000000000000000000000000a165627a7a7230582033360aed9a83827d789316674a50cf0f3bcea2d8fdd2aae01bce21a652a1b3f50029",
  "source": "pragma solidity ^0.4.25;\n\ncontract Oracle {\n    \n    struct Asset {\n        bytes32 name;\n        uint lastPriceUpdateTime;\n        uint lastSettlePriceTime;\n        uint8 currentDay;\n        bool isFinalDay;\n    }\n    \n    Asset[] public assets;\n    uint[8][] private prices; // includes 6 decimal places, 12000000 = 12.000000\n    uint[8][] public lastWeekPrices; // includes 6 decimal places, 120000000 = 12.000000\n\n    mapping(address => bool) public admins;\n    mapping(address => bool) public readers;\n\n    uint constant DAILY_PRICE_TIME_MIN = 18 hours;\n    uint constant WEEKLY_PRICE_TIME_MIN = 5 days;\n    uint constant EDIT_PRICE_TIME_MAX = 30 minutes;\n    \n    modifier onlyAdmin()\n    {\n        require(admins[msg.sender]);\n        _;\n    }\n    \n    event AssetAdded(\n        uint indexed id,\n        bytes32 name,\n        uint price\n    );\n\n    event PriceUpdated(\n        uint indexed id,\n        bytes32 name,\n        uint price,\n        uint timestamp\n    );\n\n    event SettlePrice(\n        uint indexed id,\n        bytes32 name,\n        uint price,\n        uint timestamp\n    );\n\n    event PriceCorrected(\n        uint indexed id,\n        bytes32 indexed name, \n        uint price,\n        uint timestamp\n    );\n    \n    /** Contract Constructor\n    * @param ethPrice the starting price of ETH in USD, represented as 150000000 = 150.00 USD\n    * @dev The message sender is assigned as the contract administrator\n    */\n    constructor (uint ethPrice) public {\n        admins[msg.sender] = true;\n        addAsset(\"ETHUSD\", ethPrice);\n    }\n\n    /** Add a new asset tracked by the Oracle\n    * @param name the plaintext name of the asset\n    * @param startPrice the starting price of the asset in USD * 10^6, eg 120000 = $0.120000\n    * @dev this should usually be called on a Settlement Day\n    * @return id the newly assigned ID of the asset\n    */\n    function addAsset(bytes32 name, uint startPrice)\n        public\n        returns (uint id)\n    {\n        require (admins[msg.sender] || msg.sender == address(this));\n\n        // Fill the asset struct\n        Asset memory asset;\n        asset.name = name;\n        asset.currentDay = 0;\n        asset.lastPriceUpdateTime = block.timestamp;\n        asset.lastSettlePriceTime = block.timestamp;\n        assets.push(asset);\n\n        // set up price array and LR\n        uint[8] memory _prices;\n        lastWeekPrices.push(_prices);\n\n        _prices[0] = startPrice;\n        prices.push(_prices);\n\n        emit AssetAdded(assets.length - 1, name, startPrice);\n        emit PriceUpdated(assets.length - 1, name, startPrice, block.timestamp);\n        return assets.length - 1;\n    }\n    \n    /** Publishes an asset price. Does not initiate a settlement.\n    * @param assetID the ID of the asset to update\n    * @param price the current price of the asset * 10^6\n    * @param finalDayStatus true if this is the last intraweek price update (the next will be a settle)\n    * @dev this can only be called after the required time has elapsed since the most recent price update\n    * @dev if finalDayStatus is true this function cannot be called again until after settle\n    */ \n    function setIntraweekPrice(uint assetID, uint price, bool finalDayStatus)\n        public\n        onlyAdmin\n    {\n        Asset storage asset = assets[assetID];        \n        // Prevent price update too early\n        require(block.timestamp > asset.lastPriceUpdateTime + DAILY_PRICE_TIME_MIN,\n            \"Sufficient time must pass between daily price updates.\");\n        require(!asset.isFinalDay, \"The next price update must be a settlement price update.\");\n        \n        asset.currentDay = asset.currentDay + 1;\n        asset.lastPriceUpdateTime = block.timestamp;\n        prices[assetID][asset.currentDay] = price;\n        asset.isFinalDay = finalDayStatus;\n\n        emit PriceUpdated(assetID, asset.name, price, block.timestamp);\n    }\n    \n    /** Publishes a new asset price while updating data for a new week of prices\n    * @param assetID the id of the asset to update\n    * @param price the current price of the asset * 10^6\n    * @dev Moves the current prices into LastWeekPrices, overwriting them\n    */\n    function setSettlePrice(uint assetID, uint price)\n        public\n        onlyAdmin\n    {\n        Asset storage asset = assets[assetID];\n        // Timing restrictions to prevent oracle cheating\n        require(block.timestamp > asset.lastPriceUpdateTime + DAILY_PRICE_TIME_MIN,\n            \"Sufficient time must pass between daily price updates.\");\n        require(block.timestamp > asset.lastSettlePriceTime + WEEKLY_PRICE_TIME_MIN,\n            \"Sufficient time must pass between weekly price updates.\");\n        require(asset.isFinalDay, \"Settlement day must have been declared the previous day\");\n\n        // push current prices into previous week\n        lastWeekPrices[assetID] = prices[assetID];\n\n        // Set up new price array\n        asset.currentDay = 0;\n        uint[8] memory newPrices;\n        newPrices[0] = price;\n\n        prices[assetID] = newPrices;\n\n        asset.lastPriceUpdateTime = block.timestamp;\n        asset.lastSettlePriceTime = block.timestamp;\n        asset.isFinalDay = false;\n\n        emit PriceUpdated(assetID, asset.name, price, block.timestamp);\n        emit SettlePrice(assetID, asset.name, price, block.timestamp);\n    }\n    \n    /** Quickly fix an erroneous price\n    * @param assetID the id of the asset to change\n    * @param newPrice the new price to change to\n    * @dev this must be called within 30 minutes of the lates price update occurence\n    */\n    function editPrice(uint assetID, uint newPrice)\n        public\n        onlyAdmin\n    {\n        Asset storage asset = assets[assetID];\n        require(block.timestamp < asset.lastPriceUpdateTime + EDIT_PRICE_TIME_MAX,\n            \"Cannot edit the price after the time minimum has elapsed\");\n        prices[assetID][asset.currentDay] = newPrice;\n        emit PriceUpdated(assetID, asset.name, newPrice, block.timestamp);\n        emit PriceCorrected(assetID, asset.name, newPrice, block.timestamp);\n    }\n\n    /** Grant administrator priviledges to a user\n    * @param newAdmin the address to promote\n    */\n    function addAdmin(address newAdmin)\n        public\n        onlyAdmin\n    {\n        admins[newAdmin] = true;\n    }\n\n    /** Remove administrator priviledges from a user\n    * @param toRemove the address to demote\n    * @notice you may not remove yourself\n    */\n    function removeAdmin(address toRemove)\n        public\n        onlyAdmin\n    {\n        require(toRemove != msg.sender, \"You may not remove yourself as an admin.\");\n        admins[toRemove] = false;\n    }\n\n    /** Grant an address permision to access private information about the assets\n    * @param newReader the address of the account to grant reading priviledges\n    * @dev this allows the reader to use the getCurrentPricesFunction\n    */\n    function addReader(address newReader)\n        public\n        onlyAdmin\n    {\n        readers[newReader] = true;\n    }\n\n    /** Return the entire current price array for a given asset\n    * @param id the asset id of the desired asset\n    * @return currentPrices the price array for the asset\n    * @dev only the admin and addresses granted readership may call this function\n    */\n    function getCurrentPrices(uint id)\n        public\n        view\n        returns (uint[8] currentPrices)\n    {\n        require (admins[msg.sender] || readers[msg.sender],\n            \"Function caller is not approved to call this function.\");\n        currentPrices = prices[id];\n    }\n\n    /** Return only the latest prices\n    * @param id the asset id of the desired asset\n    * @return price the latest price of the given asset\n    * @dev only the admin or a designated reader may call this function\n    */\n    function getCurrentPrice(uint id)\n        public\n        view\n        returns (uint price)\n    {\n        require (admins[msg.sender] || readers[msg.sender],\n            \"Function caller is not approved to call this function.\");    \n        price =  prices[id][assets[id].currentDay];\n    }\n\n    /** Get the timestamp of the last price update time\n    * @param id the asset id of the desired asset\n    * @return timestamp the price update timestamp\n    */\n    function getLastUpdateTime(uint id)\n        public\n        view\n        returns (uint timestamp)\n    {\n        timestamp = assets[id].lastPriceUpdateTime;\n    }\n\n    /** Get the timestamp of the last settle update time\n    * @param id the asset id of the desired asset\n    * @return timestamp the settle timestamp\n    */\n    function getLastSettleTime(uint id)\n        public\n        view\n        returns (uint timestamp)\n    {\n        timestamp = assets[id].lastSettlePriceTime;\n    }\n\n    /** Show if the current day is the final price update before settle\n    * @param id the asset id of the desired asset\n    * @return true if it is the final day, false otherwise\n    */\n    function isFinalDay(uint id)\n        public\n        view\n        returns (bool)\n    {\n        return assets[id].isFinalDay;\n    }\n\n    /** Show if the last price update was a settle price update\n    * @param id the asset id of the desired asset\n    * @return true if the last update was a settle, false otherwise\n    */\n    function isSettleDay(uint id)\n        public\n        view\n        returns (bool)\n    {\n        return (assets[id].currentDay == 0);\n    }\n}",
  "sourcePath": "/Users/mackenzie/drizzlecontract/contracts/Oracle.sol",
  "compiler": {
    "name": "solc",
    "version": "0.4.25+commit.59dbf8f1.Emscripten.clang"
  },
  "schemaVersion": "2.0.2",
  "updatedAt": "2019-06-28T14:13:17.635Z"
}