{
  "contractName": "OracleFactory",
  "abi": [
    {
      "constant": true,
      "inputs": [
        {
          "name": "",
          "type": "uint256"
        }
      ],
      "name": "oracles",
      "outputs": [
        {
          "name": "",
          "type": "address"
        }
      ],
      "payable": false,
      "stateMutability": "view",
      "type": "function"
    },
    {
      "inputs": [],
      "payable": false,
      "stateMutability": "nonpayable",
      "type": "constructor"
    },
    {
      "anonymous": false,
      "inputs": [
        {
          "indexed": false,
          "name": "_new",
          "type": "address"
        }
      ],
      "name": "OracleCreated",
      "type": "event"
    },
    {
      "constant": false,
      "inputs": [
        {
          "name": "_asset",
          "type": "bytes32"
        }
      ],
      "name": "newOracle",
      "outputs": [
        {
          "name": "_address",
          "type": "address"
        }
      ],
      "payable": false,
      "stateMutability": "nonpayable",
      "type": "function"
    }
  ],
  "bytecode": "0x608060405234801561001057600080fd5b50610b4d806100206000396000f30060806040526004361061004b5763ffffffff7c01000000000000000000000000000000000000000000000000000000006000350416635b69a7d88114610050578063700e3eaa14610091575b600080fd5b34801561005c57600080fd5b506100686004356100a9565b6040805173ffffffffffffffffffffffffffffffffffffffff9092168252519081900360200190f35b34801561009d57600080fd5b506100686004356100de565b60008054829081106100b757fe5b60009182526020909120015473ffffffffffffffffffffffffffffffffffffffff16905081565b60008033836100eb6101df565b73ffffffffffffffffffffffffffffffffffffffff90921682526020820152604080519182900301906000f080158015610129573d6000803e3d6000fd5b506040805173ffffffffffffffffffffffffffffffffffffffff8316815290519192507f5dba83b2e4f5ef7ead6ae8f4902f5335ce28561a5207952f0b0a9d9f3a01a1b7919081900360200190a1600080546001810182559080527f290decd9548b62a8d60345a988386fc84ba6bc95484008f6362f93160ef3e56301805473ffffffffffffffffffffffffffffffffffffffff191673ffffffffffffffffffffffffffffffffffffffff831617905592915050565b604051610932806101f0833901905600608060405234801561001057600080fd5b5060405160408061093283398101604052805160209091015160178054600160a060020a03909316600160a060020a031990931692909217909155601655600080556015805464ff00000000191690556108c38061006f6000396000f30060806040526004361061011c5763ffffffff7c0100000000000000000000000000000000000000000000000000000000600035041663053f14da811461012157806315cc11ad1461014857806338d52e0f1461015d57806351e59ffb146101725780635a7991bc146101b45780635c9302c9146101cc57806377de4777146101f75780637b98d2be1461021157806388cc58d6146102295780638f2839701461024157806398d5fdca1461026f578063a22a8b2914610284578063afd8b1d11461029c578063b990dc01146102ca578063bd9a548b146102df578063c93f81501461032d578063cb2db5701461035b578063d050f5d114610379578063dfd9eacd1461038e578063f385cecb146103a6578063f851a440146103bb575b600080fd5b34801561012d57600080fd5b506101366103f9565b60408051918252519081900360200190f35b34801561015457600080fd5b506101366103ff565b34801561016957600080fd5b50610136610405565b34801561017e57600080fd5b506101a073ffffffffffffffffffffffffffffffffffffffff6004351661040b565b604080519115158252519081900360200190f35b3480156101c057600080fd5b50610136600435610420565b3480156101d857600080fd5b506101e1610434565b6040805160ff9092168252519081900360200190f35b34801561020357600080fd5b5061020f600435610445565b005b34801561021d57600080fd5b5061020f60043561051c565b34801561023557600080fd5b5061020f600435610535565b34801561024d57600080fd5b5061020f73ffffffffffffffffffffffffffffffffffffffff600435166105d7565b34801561027b57600080fd5b50610136610637565b34801561029057600080fd5b5061020f60043561065d565b3480156102a857600080fd5b5061020f73ffffffffffffffffffffffffffffffffffffffff600435166106ce565b3480156102d657600080fd5b50610136610723565b3480156102eb57600080fd5b506102f4610729565b604051808261010080838360005b8381101561031a578181015183820152602001610302565b5050505090500191505060405180910390f35b34801561033957600080fd5b50610342610783565b60408051600192830b90920b8252519081900360200190f35b34801561036757600080fd5b5061020f60043560243560010b61078c565b34801561038557600080fd5b506101a06107b3565b34801561039a57600080fd5b506101366004356107bc565b3480156103b257600080fd5b506103426107c9565b3480156103c757600080fd5b506103d06107d8565b6040805173ffffffffffffffffffffffffffffffffffffffff9092168252519081900360200190f35b60035481565b60025481565b60165481565b60186020526000908152604090205460ff1681565b600d816008811061042d57fe5b0154905081565b601554640100000000900460ff1681565b61044d6107f4565b60175473ffffffffffffffffffffffffffffffffffffffff16331461047157600080fd5b60008054600355829055610489600d60056008610814565b506015805464ff00000000191690556104a5600582600861084f565b50816005600001554260018181556002919091556004805460ff191690556015805480830b90920b61ffff16620100000263ffff0000199092169190911790556040805183815290517fd3e0cba651866d46aa23e60dffc4760c44647f1a574e812bc065b9b04ef63c2a9181900360200190a15050565b6004805460ff1916600117905561053281610535565b50565b60175473ffffffffffffffffffffffffffffffffffffffff16331461055957600080fd5b600080546003558190556015805460ff64010000000080830482166001018216810264ff0000000019909316929092179283905583926005929004166008811061059f57fe5b01556040805182815290517f66cbca4f3c64fecf1dcb9ce094abcf7f68c3450a1d4e3a8e917dd621edb4ebe09181900360200190a150565b60175473ffffffffffffffffffffffffffffffffffffffff1633146105fb57600080fd5b6017805473ffffffffffffffffffffffffffffffffffffffff191673ffffffffffffffffffffffffffffffffffffffff92909216919091179055565b3360009081526018602052604081205460ff16151561065557600080fd5b506000545b90565b60175473ffffffffffffffffffffffffffffffffffffffff16331461068157600080fd5b60025461038401421061069357600080fd5b60008190556040805182815290517f8a445da07e350aa74019b9a9c928cbf2d5ed2d2433ce83c9cc1ad332972008029181900360200190a150565b60175473ffffffffffffffffffffffffffffffffffffffff1633146106f257600080fd5b73ffffffffffffffffffffffffffffffffffffffff166000908152601860205260409020805460ff19166001179055565b60015481565b6107316107f4565b3360009081526018602052604090205460ff16151561074f57600080fd5b604080516101008101918290529060059060089082845b815481526020019060010190808311610766575050505050905090565b60155460010b81565b61079582610445565b6015805460019290920b61ffff1661ffff1990921691909117905550565b60045460ff1681565b6005816008811061042d57fe5b60155462010000900460010b81565b60175473ffffffffffffffffffffffffffffffffffffffff1681565b610100604051908101604052806008906020820280388339509192915050565b826008810192821561083f579182015b8281111561083f578254825591600101919060010190610824565b5061084b92915061087d565b5090565b826008810192821561083f579160200282015b8281111561083f578251825591602001919060010190610862565b61065a91905b8082111561084b57600081556001016108835600a165627a7a72305820808b6d5a55e41832be78bd7afae09839f039614d598d114c0906d0366f4ebc380029a165627a7a7230582055173902a8a0e419a1575df39d304b8b59062b54e6e4c4c5bca43c8e637e0c530029",
  "source": "pragma solidity ^0.4.0;\n\nimport \"./Oracle.sol\";\n\ncontract OracleFactory {\n\n\tevent OracleCreated(address _new);\n\n\taddress[] public oracles;\n\n\tconstructor() public {\n\n\t}\n\n\tfunction newOracle(bytes32 _asset) public returns(address _address) {\n\t\tOracle c = new Oracle(msg.sender, _asset);\n\t\temit OracleCreated(address(c));\n\t\toracles.push(c);\n\t\treturn c;\n\t}\n}",
  "sourcePath": "/Users/mackenzie/drizzlecontract/contracts/OracleFactory.sol",
  "compiler": {
    "name": "solc",
    "version": "0.4.24+commit.e67f0147.Emscripten.clang"
  },
  "schemaVersion": "2.0.1",
  "updatedAt": "2018-09-13T22:53:47.731Z"
}