{
  "contractName": "SwapMarket",
  "abi": [
    {
      "constant": true,
      "inputs": [],
      "name": "minRM",
      "outputs": [
        {
          "name": "",
          "type": "uint256"
        }
      ],
      "payable": false,
      "stateMutability": "view",
      "type": "function"
    },
    {
      "constant": true,
      "inputs": [],
      "name": "cancelFee",
      "outputs": [
        {
          "name": "",
          "type": "uint8"
        }
      ],
      "payable": false,
      "stateMutability": "view",
      "type": "function"
    },
    {
      "constant": true,
      "inputs": [],
      "name": "AssetOracle",
      "outputs": [
        {
          "name": "",
          "type": "address"
        }
      ],
      "payable": false,
      "stateMutability": "view",
      "type": "function"
    },
    {
      "constant": true,
      "inputs": [
        {
          "name": "",
          "type": "address"
        }
      ],
      "name": "openMargins",
      "outputs": [
        {
          "name": "",
          "type": "uint256"
        }
      ],
      "payable": false,
      "stateMutability": "view",
      "type": "function"
    },
    {
      "constant": true,
      "inputs": [
        {
          "name": "",
          "type": "address"
        }
      ],
      "name": "balances",
      "outputs": [
        {
          "name": "",
          "type": "uint256"
        }
      ],
      "payable": false,
      "stateMutability": "view",
      "type": "function"
    },
    {
      "constant": true,
      "inputs": [],
      "name": "USEQVOL",
      "outputs": [
        {
          "name": "",
          "type": "address"
        }
      ],
      "payable": false,
      "stateMutability": "view",
      "type": "function"
    },
    {
      "constant": true,
      "inputs": [],
      "name": "marginSafetyFactor",
      "outputs": [
        {
          "name": "",
          "type": "uint8"
        }
      ],
      "payable": false,
      "stateMutability": "view",
      "type": "function"
    },
    {
      "constant": true,
      "inputs": [],
      "name": "ETHUSD",
      "outputs": [
        {
          "name": "",
          "type": "address"
        }
      ],
      "payable": false,
      "stateMutability": "view",
      "type": "function"
    },
    {
      "constant": true,
      "inputs": [
        {
          "name": "",
          "type": "address"
        }
      ],
      "name": "books",
      "outputs": [
        {
          "name": "",
          "type": "address"
        }
      ],
      "payable": false,
      "stateMutability": "view",
      "type": "function"
    },
    {
      "constant": true,
      "inputs": [],
      "name": "collectedFees",
      "outputs": [
        {
          "name": "",
          "type": "uint256"
        }
      ],
      "payable": false,
      "stateMutability": "view",
      "type": "function"
    },
    {
      "constant": true,
      "inputs": [],
      "name": "weeklyReturn",
      "outputs": [
        {
          "name": "",
          "type": "int256"
        }
      ],
      "payable": false,
      "stateMutability": "view",
      "type": "function"
    },
    {
      "constant": true,
      "inputs": [
        {
          "name": "",
          "type": "address"
        }
      ],
      "name": "rates",
      "outputs": [
        {
          "name": "currentLong",
          "type": "int16"
        },
        {
          "name": "currentShort",
          "type": "int16"
        },
        {
          "name": "nextLong",
          "type": "int16"
        },
        {
          "name": "nextShort",
          "type": "int16"
        },
        {
          "name": "updated",
          "type": "bool"
        }
      ],
      "payable": false,
      "stateMutability": "view",
      "type": "function"
    },
    {
      "constant": true,
      "inputs": [
        {
          "name": "",
          "type": "uint256"
        }
      ],
      "name": "dailyReturns",
      "outputs": [
        {
          "name": "",
          "type": "int256"
        }
      ],
      "payable": false,
      "stateMutability": "view",
      "type": "function"
    },
    {
      "constant": true,
      "inputs": [],
      "name": "isPaused",
      "outputs": [
        {
          "name": "",
          "type": "bool"
        }
      ],
      "payable": false,
      "stateMutability": "view",
      "type": "function"
    },
    {
      "constant": true,
      "inputs": [],
      "name": "openFee",
      "outputs": [
        {
          "name": "",
          "type": "uint8"
        }
      ],
      "payable": false,
      "stateMutability": "view",
      "type": "function"
    },
    {
      "constant": true,
      "inputs": [],
      "name": "defaultRates",
      "outputs": [
        {
          "name": "currentLong",
          "type": "int16"
        },
        {
          "name": "currentShort",
          "type": "int16"
        },
        {
          "name": "nextLong",
          "type": "int16"
        },
        {
          "name": "nextShort",
          "type": "int16"
        },
        {
          "name": "updated",
          "type": "bool"
        }
      ],
      "payable": false,
      "stateMutability": "view",
      "type": "function"
    },
    {
      "constant": true,
      "inputs": [
        {
          "name": "",
          "type": "address"
        }
      ],
      "name": "ownerChanges",
      "outputs": [
        {
          "name": "",
          "type": "address"
        }
      ],
      "payable": false,
      "stateMutability": "view",
      "type": "function"
    },
    {
      "constant": true,
      "inputs": [],
      "name": "longProfited",
      "outputs": [
        {
          "name": "",
          "type": "bool"
        }
      ],
      "payable": false,
      "stateMutability": "view",
      "type": "function"
    },
    {
      "constant": true,
      "inputs": [],
      "name": "admin",
      "outputs": [
        {
          "name": "",
          "type": "address"
        }
      ],
      "payable": false,
      "stateMutability": "view",
      "type": "function"
    },
    {
      "constant": true,
      "inputs": [],
      "name": "burnFee",
      "outputs": [
        {
          "name": "",
          "type": "uint16"
        }
      ],
      "payable": false,
      "stateMutability": "view",
      "type": "function"
    },
    {
      "inputs": [
        {
          "name": "_ethoracle",
          "type": "address"
        },
        {
          "name": "_useqvoloracle",
          "type": "address"
        },
        {
          "name": "_assetoracle",
          "type": "address"
        }
      ],
      "payable": false,
      "stateMutability": "nonpayable",
      "type": "constructor"
    },
    {
      "anonymous": false,
      "inputs": [
        {
          "indexed": false,
          "name": "_maker",
          "type": "address"
        },
        {
          "indexed": false,
          "name": "_book",
          "type": "address"
        }
      ],
      "name": "OpenMargin",
      "type": "event"
    },
    {
      "anonymous": false,
      "inputs": [
        {
          "indexed": false,
          "name": "_maker",
          "type": "address"
        },
        {
          "indexed": true,
          "name": "taker",
          "type": "address"
        },
        {
          "indexed": false,
          "name": "id",
          "type": "bytes32"
        }
      ],
      "name": "OrderTaken",
      "type": "event"
    },
    {
      "constant": false,
      "inputs": [
        {
          "name": "amount",
          "type": "uint256"
        }
      ],
      "name": "increaseOpenMargin",
      "outputs": [],
      "payable": true,
      "stateMutability": "payable",
      "type": "function"
    },
    {
      "constant": false,
      "inputs": [
        {
          "name": "amount",
          "type": "uint256"
        }
      ],
      "name": "reduceOpenMargin",
      "outputs": [],
      "payable": true,
      "stateMutability": "payable",
      "type": "function"
    },
    {
      "constant": true,
      "inputs": [
        {
          "name": "maker",
          "type": "address"
        }
      ],
      "name": "getBookData",
      "outputs": [
        {
          "name": "book",
          "type": "address"
        },
        {
          "name": "totalLong",
          "type": "uint256"
        },
        {
          "name": "totalShort",
          "type": "uint256"
        }
      ],
      "payable": false,
      "stateMutability": "view",
      "type": "function"
    },
    {
      "constant": true,
      "inputs": [
        {
          "name": "maker",
          "type": "address"
        },
        {
          "name": "id",
          "type": "bytes32"
        }
      ],
      "name": "getSubcontractData",
      "outputs": [
        {
          "name": "taker",
          "type": "address"
        },
        {
          "name": "takerMargin",
          "type": "uint256"
        },
        {
          "name": "reqMargin",
          "type": "uint256"
        },
        {
          "name": "initialDay",
          "type": "uint8"
        },
        {
          "name": "side",
          "type": "bool"
        },
        {
          "name": "isCancelled",
          "type": "bool"
        },
        {
          "name": "isBurned",
          "type": "bool"
        }
      ],
      "payable": false,
      "stateMutability": "view",
      "type": "function"
    },
    {
      "constant": false,
      "inputs": [
        {
          "name": "maker",
          "type": "address"
        },
        {
          "name": "amount",
          "type": "uint256"
        },
        {
          "name": "side",
          "type": "bool"
        }
      ],
      "name": "take",
      "outputs": [],
      "payable": true,
      "stateMutability": "payable",
      "type": "function"
    },
    {
      "constant": false,
      "inputs": [
        {
          "name": "owner",
          "type": "address"
        }
      ],
      "name": "firstPrice",
      "outputs": [],
      "payable": false,
      "stateMutability": "nonpayable",
      "type": "function"
    },
    {
      "constant": false,
      "inputs": [],
      "name": "computeReturns",
      "outputs": [],
      "payable": false,
      "stateMutability": "nonpayable",
      "type": "function"
    },
    {
      "constant": false,
      "inputs": [
        {
          "name": "owner",
          "type": "address"
        }
      ],
      "name": "settle",
      "outputs": [],
      "payable": false,
      "stateMutability": "nonpayable",
      "type": "function"
    },
    {
      "constant": false,
      "inputs": [
        {
          "name": "longRate",
          "type": "int16"
        },
        {
          "name": "shortRate",
          "type": "int16"
        }
      ],
      "name": "setRate",
      "outputs": [],
      "payable": false,
      "stateMutability": "nonpayable",
      "type": "function"
    },
    {
      "constant": false,
      "inputs": [
        {
          "name": "owner",
          "type": "address"
        },
        {
          "name": "id",
          "type": "bytes32"
        }
      ],
      "name": "playerBurn",
      "outputs": [],
      "payable": true,
      "stateMutability": "payable",
      "type": "function"
    },
    {
      "constant": false,
      "inputs": [
        {
          "name": "owner",
          "type": "address"
        },
        {
          "name": "id",
          "type": "bytes32"
        }
      ],
      "name": "playerCancel",
      "outputs": [],
      "payable": true,
      "stateMutability": "payable",
      "type": "function"
    },
    {
      "constant": false,
      "inputs": [
        {
          "name": "_newOwner",
          "type": "address"
        }
      ],
      "name": "changeOwner",
      "outputs": [],
      "payable": false,
      "stateMutability": "nonpayable",
      "type": "function"
    },
    {
      "constant": false,
      "inputs": [
        {
          "name": "maker",
          "type": "address"
        },
        {
          "name": "id",
          "type": "bytes32"
        }
      ],
      "name": "takerFund",
      "outputs": [],
      "payable": true,
      "stateMutability": "payable",
      "type": "function"
    },
    {
      "constant": false,
      "inputs": [
        {
          "name": "maker",
          "type": "address"
        }
      ],
      "name": "lpFund",
      "outputs": [],
      "payable": true,
      "stateMutability": "payable",
      "type": "function"
    },
    {
      "constant": false,
      "inputs": [
        {
          "name": "amount",
          "type": "uint256"
        },
        {
          "name": "owner",
          "type": "address"
        },
        {
          "name": "id",
          "type": "bytes32"
        }
      ],
      "name": "takerWithdrawal",
      "outputs": [],
      "payable": false,
      "stateMutability": "nonpayable",
      "type": "function"
    },
    {
      "constant": false,
      "inputs": [
        {
          "name": "amount",
          "type": "uint256"
        }
      ],
      "name": "ownerMarginWithdrawal",
      "outputs": [],
      "payable": false,
      "stateMutability": "nonpayable",
      "type": "function"
    },
    {
      "constant": false,
      "inputs": [],
      "name": "collectBalance",
      "outputs": [],
      "payable": false,
      "stateMutability": "nonpayable",
      "type": "function"
    },
    {
      "constant": false,
      "inputs": [
        {
          "name": "newPaused",
          "type": "bool"
        }
      ],
      "name": "pause",
      "outputs": [],
      "payable": false,
      "stateMutability": "nonpayable",
      "type": "function"
    }
  ],
  "bytecode": "0x608060405234801561001057600080fd5b50604051606080613eb683398101604090815281516020830151919092015161003761015c565b60048054600a6040840181905260608401839052808452602084018390526005805460809095015161ffff1990951690911763ffff000019908116620400001765ffff000000001916640a000000001767ffff0000000000001916660400000000000017604060020a60ff021916680100000000000000009515159590950294909417905560027fffffffffffffffff0000000000000000000000000000000000000000ffffffff90911633640100000000021760ff19908116821761ff00191661030017909316620500001790915560008054600160a060020a0319908116600160a060020a039788161790915560018054821695871695909517909455805490931691909316179055601780549091169055670de0b6b3a764000060035561018a565b6040805160a08101825260008082526020820181905291810182905260608101829052608081019190915290565b613d1d806101996000396000f3006080604052600436106101be5763ffffffff60e060020a60003504166302329a2981146101c3578063056b7b73146101df5780630ea37a5c1461020657806314025dcd1461021d5780631586bdcd146102485780631978de2b146102795780631ad0c622146102e757806324f8634a1461030857806327e235e31461031f578063298d3308146103405780633b5d2f91146103555780635038a8501461036d57806368492aef146103905780636a256b29146103a5578063714bc3fb146103c657806373db0844146103ed57806374eb1e5f1461040257806382fbf003146104235780638b3b42c11461042e5780638cf4dbfb146104455780639003adfe1461045a578063a6f9dae11461046f578063a730536114610490578063a8734f0b146104a5578063a8bd715314610505578063b187bd261461051d578063b74bf3e814610546578063b78450731461055a578063c1f2da591461056f578063c3e95b9b14610584578063ca1e455d146105a5578063ce11e789146105c1578063d651fb20146105e2578063ea3e5e39146105f7578063f851a44014610602578063f9fe553a14610617578063fce589d81461062c578063ffd9881b14610658575b600080fd5b3480156101cf57600080fd5b506101dd60043515156106a1565b005b3480156101eb57600080fd5b506101f46106d3565b60408051918252519081900360200190f35b6101dd600160a060020a03600435166024356106d9565b34801561022957600080fd5b50610232610792565b6040805160ff9092168252519081900360200190f35b34801561025457600080fd5b5061025d6107a0565b60408051600160a060020a039092168252519081900360200190f35b34801561028557600080fd5b5061029d600160a060020a03600435166024356107af565b60408051600160a060020a03909816885260208801969096528686019490945260ff909216606086015215156080850152151560a0840152151560c0830152519081900360e00190f35b3480156102f357600080fd5b506101f4600160a060020a03600435166108b2565b6101dd600160a060020a03600435166024356108c4565b34801561032b57600080fd5b506101f4600160a060020a036004351661093c565b34801561034c57600080fd5b5061025d61094e565b34801561036157600080fd5b506101dd60043561095d565b34801561037957600080fd5b506101dd600435600190810b90602435900b610a0d565b34801561039c57600080fd5b50610232610b0c565b3480156103b157600080fd5b506101dd600160a060020a0360043516610b11565b3480156103d257600080fd5b506101dd600435600160a060020a0360243516604435610e40565b3480156103f957600080fd5b5061025d610f64565b34801561040e57600080fd5b5061025d600160a060020a0360043516610f73565b6101dd600435610f8e565b6101dd600160a060020a03600435166024356110b3565b34801561045157600080fd5b506101dd6111c0565b34801561046657600080fd5b506101f4611205565b34801561047b57600080fd5b506101dd600160a060020a036004351661120b565b34801561049c57600080fd5b506101f4611247565b3480156104b157600080fd5b506104c6600160a060020a036004351661124d565b60408051600196870b870b815294860b860b602086015292850b850b8484015290840b90930b6060830152911515608082015290519081900360a00190f35b34801561051157600080fd5b506101f4600435611296565b34801561052957600080fd5b506105326112aa565b604080519115158252519081900360200190f35b6101dd600160a060020a03600435166112b3565b34801561056657600080fd5b50610232611364565b34801561057b57600080fd5b506104c661136d565b34801561059057600080fd5b5061025d600160a060020a03600435166113aa565b6101dd600160a060020a036004351660243560443515156113c5565b3480156105cd57600080fd5b506101dd600160a060020a0360043516611714565b3480156105ee57600080fd5b50610532611844565b6101dd60043561184d565b34801561060e57600080fd5b5061025d6118c8565b34801561062357600080fd5b506101dd6118df565b34801561063857600080fd5b50610641611e27565b6040805161ffff9092168252519081900360200190f35b34801561066457600080fd5b50610679600160a060020a0360043516611e37565b60408051600160a060020a039094168452602084019290925282820152519081900360600190f35b6004546401000000009004600160a060020a031633146106c057600080fd5b6017805460ff1916911515919091179055565b60035481565b600160a060020a03808316600090815260116020526040812054909116151561070157600080fd5b50600160a060020a038083166000908152601160205260408082205481517f92ef178500000000000000000000000000000000000000000000000000000000815260048101869052915193169283926392ef17859234926024808301939282900301818588803b15801561077457600080fd5b505af1158015610788573d6000803e3d6000fd5b5050505050505050565b600454610100900460ff1681565b600254600160a060020a031681565b600160a060020a038083166000908152601160205260408120549091829182918291829182918291168181156108a45750604080517f45349baa000000000000000000000000000000000000000000000000000000008152600481018b905290518291600160a060020a038316916345349baa9160248082019260e0929091908290030181600087803b15801561084557600080fd5b505af1158015610859573d6000803e3d6000fd5b505050506040513d60e081101561086f57600080fd5b508051602082015160408301516060840151608085015160a086015160c090960151949e50929c50909a509850965090945092505b505092959891949750929550565b60146020526000908152604090205481565b600160a060020a038083166000908152601160205260408082205481517ff4b8062d000000000000000000000000000000000000000000000000000000008152600481018690523360248201529151931692839263f4b8062d9234926044808301939282900301818588803b15801561077457600080fd5b60156020526000908152604090205481565b600154600160a060020a031681565b33600090815260116020526040812054600160a060020a0316151561098157600080fd5b50336000908152601160205260408082205481517f3b5d2f91000000000000000000000000000000000000000000000000000000008152600481018590529151600160a060020a03909116928392633b5d2f91926024808301939282900301818387803b1580156109f157600080fd5b505af1158015610a05573d6000803e3d6000fd5b505050505050565b600082820160010b8112610a2057600080fd5b603483830160010b12610a3257600080fd5b600260009054906101000a9004600160a060020a0316600160a060020a031663d050f5d16040518163ffffffff1660e060020a028152600401602060405180830381600087803b158015610a8557600080fd5b505af1158015610a99573d6000803e3d6000fd5b505050506040513d6020811015610aaf57600080fd5b505115610abb57600080fd5b503360009081526013602052604090208054600192830b61ffff90811666010000000000000267ffff000000000000199590940b166401000000000265ffff00000000199091161792909216179055565b606481565b6000610b1b61202b565b6004546000906401000000009004600160a060020a03163314610b3d57600080fd5b600160a060020a03808516600090815260116020526040902054161515610b6357610e3a565b50600160a060020a0380841660009081526011602090815260408083205460139092529091208054919092169350600190810b900b158015610bb157508054620100009004600190810b900b155b15610bdb57600554600181810b810b810b845262010000909104810b810b900b6020830152610c1b565b600160a060020a0384166000818152601360208181526040832054600181810b810b810b88529490935290815262010000909104820b820b90910b908301525b600260009054906101000a9004600160a060020a0316600160a060020a031663f385cecb6040518163ffffffff1660e060020a028152600401602060405180830381600087803b158015610c6e57600080fd5b505af1158015610c82573d6000803e3d6000fd5b505050506040513d6020811015610c9857600080fd5b5051600190810b900b60408084019190915260105490517f0c96dfc5000000000000000000000000000000000000000000000000000000008152600160a060020a03851691630c96dfc591600791869160ff9091169060048101906101040184825b815481526020019060010190808311610cfa5750849050606080838360005b83811015610d31578181015183820152602001610d19565b50505050905001821515151581526020019350505050600060405180830381600087803b158015610d6157600080fd5b505af1158015610d75573d6000803e3d6000fd5b5050825466010000000000006401000000008204600190810b810b61ffff90811661ffff1990941693909317918204810b900b909116620100000263ffff0000199091161783555050600160a060020a038085166000908152601260205260409020541615610e0657600160a060020a03808516600090815260126020526040902054610e0491869116611f60565b505b600160a060020a0384166000908152601260205260409020805473ffffffffffffffffffffffffffffffffffffffff191690555b50505050565b600160a060020a038083166000908152601160205260408120549091161515610e6857600080fd5b50600160a060020a0380831660009081526011602090815260408083205460025482517fb990dc010000000000000000000000000000000000000000000000000000000081529251918616958695638ca0fd39958995939092169363b990dc019360048082019493918390030190829087803b158015610ee757600080fd5b505af1158015610efb573d6000803e3d6000fd5b505050506040513d6020811015610f1157600080fd5b50516040805160e060020a63ffffffff8616028152600481019390935260248301919091526044820188905233606483015251608480830192600092919082900301818387803b15801561077457600080fd5b600054600160a060020a031681565b601160205260009081526040902054600160a060020a031681565b348114610f9a57600080fd5b33600090815260116020526040902054600160a060020a03161515611032573330610fc361204a565b600160a060020a03928316815291166020820152604080519182900301906000f080158015610ff6573d6000803e3d6000fd5b50336000908152601160205260409020805473ffffffffffffffffffffffffffffffffffffffff1916600160a060020a03929092169190911790555b33600090815260146020526040902054611052903463ffffffff611fe316565b336000818152601460209081526040808320949094556011815290839020548351928352600160a060020a03169082015281517fc6131be46ade1ff218257300cf7cf1b1ffa464a1aba072357579e4b1b85dc608929181900390910190a150565b600160a060020a0380831660009081526011602090815260408083205460025482517fb990dc01000000000000000000000000000000000000000000000000000000008152925191861695869563613a3f12953495939092169363b990dc019360048082019493918390030190829087803b15801561113157600080fd5b505af1158015611145573d6000803e3d6000fd5b505050506040513d602081101561115b57600080fd5b5051600480546040805160e060020a63ffffffff8816028152928301939093526024820188905233604483015260ff8082166064840152610100909104166084820152905160a480830192600092919082900301818588803b15801561077457600080fd5b33600081815260156020526040808220805490839055905190929183156108fc02918491818181858888f19350505050158015611201573d6000803e3d6000fd5b5050565b60165481565b336000908152601260205260409020805473ffffffffffffffffffffffffffffffffffffffff1916600160a060020a0392909216919091179055565b600f5481565b601360205260009081526040902054600181810b91620100008104820b916401000000008204810b916601000000000000810490910b9068010000000000000000900460ff1685565b600781600881106112a357fe5b0154905081565b60175460ff1681565b600160a060020a0380821660009081526011602052604081205490911615156112db57600080fd5b50600160a060020a038082166000908152601160205260408082205481517faa69f1f10000000000000000000000000000000000000000000000000000000081529151931692839263aa69f1f19234926004808301939282900301818588803b15801561134757600080fd5b505af115801561135b573d6000803e3d6000fd5b50505050505050565b60045460ff1681565b600554600181810b91620100008104820b916401000000008204810b916601000000000000810490910b9068010000000000000000900460ff1685565b601260205260009081526040902054600160a060020a031681565b60175460009081908190819081908190819060ff16156113e457600080fd5b34670de0b6b3a76400008a02146113fa57600080fd5b60035434101561140957600080fd5b600160a060020a03808b1660009081526011602090815260408083205481517fe09b0a95000000000000000000000000000000000000000000000000000000008152915194169a508a9363e09b0a9593600480840194938390030190829087803b15801561147657600080fd5b505af115801561148a573d6000803e3d6000fd5b505050506040513d60208110156114a057600080fd5b5051604080517f2ac6da140000000000000000000000000000000000000000000000000000000081529051919750600160a060020a03891691632ac6da14916004808201926020929091908290030181600087803b15801561150157600080fd5b505af1158015611515573d6000803e3d6000fd5b505050506040513d602081101561152b57600080fd5b505160045490955060649060ff163402600160a060020a038c16600090815260146020526040902054919004945084111561156557600080fd5b600092508715611582578486111561157d5784860392505b611590565b858511156115905785850392505b600160a060020a038a16600090815260146020526040902054830134850111156115b957600080fd5b600160a060020a038a166000908152601460205260409020546115e79034859003860163ffffffff611ff016565b600160a060020a038b166000908152601460205260409020819055601654909250611618908563ffffffff611fe316565b601655604080517fca1e455d00000000000000000000000000000000000000000000000000000000815233600482015234602482018190528a151560448301529151600160a060020a038a169263ca1e455d9287820390910191606480830192602092919082900301818588803b15801561169257600080fd5b505af11580156116a6573d6000803e3d6000fd5b50505050506040513d60208110156116bd57600080fd5b505160408051600160a060020a038d16815260208101839052815192935033927fe95b84089158c05865c3d665e3a7f684fe6e53021697288c8c498d6e2f9d40a5929181900390910190a250505050505050505050565b6004546000906401000000009004600160a060020a0316331461173657600080fd5b600160a060020a0380831660009081526011602052604090205416151561175c57611201565b50600160a060020a0380821660009081526011602090815260408083205460025482517f5c9302c9000000000000000000000000000000000000000000000000000000008152925191861695869563f642c34f959290911693635c9302c9936004808301949391928390030190829087803b1580156117da57600080fd5b505af11580156117ee573d6000803e3d6000fd5b505050506040513d602081101561180457600080fd5b50516040805160e060020a63ffffffff851602815260ff909216600483015251602480830192600092919082900301818387803b1580156109f157600080fd5b60105460ff1681565b3360009081526014602052604090205481111561186957600080fd5b33600090815260146020526040902054611889908263ffffffff611ff016565b336000908152601460209081526040808320939093556015905220546118b5908263ffffffff611fe316565b3360009081526015602052604090205550565b6004546401000000009004600160a060020a031681565b6118e761205a565b60045460009081908190819081906401000000009004600160a060020a0316331461191157600080fd5b61191e600787600861207a565b5060089450600093505b848460ff161015611cef57600254604080517f5a7991bc00000000000000000000000000000000000000000000000000000000815260ff871660048201529051600160a060020a0390921691635a7991bc916024808201926020929091908290030181600087803b15801561199c57600080fd5b505af11580156119b0573d6000803e3d6000fd5b505050506040513d60208110156119c657600080fd5b505115156119d357611ce4565b600254604080517f5a7991bc00000000000000000000000000000000000000000000000000000000815260ff871660048201529051670de0b6b3a764000092600160a060020a031691635a7991bc9160248083019260209291908290030181600087803b158015611a4357600080fd5b505af1158015611a57573d6000803e3d6000fd5b505050506040513d6020811015611a6d57600080fd5b5051600254604080517f98d5fdca0000000000000000000000000000000000000000000000000000000081529051611b1592670de0b6b3a764000092600160a060020a03909116916398d5fdca916004808201926020929091908290030181600087803b158015611add57600080fd5b505af1158015611af1573d6000803e3d6000fd5b505050506040513d6020811015611b0757600080fd5b50519063ffffffff61200216565b811515611b1e57fe5b05039250600160009054906101000a9004600160a060020a0316600160a060020a03166398d5fdca6040518163ffffffff1660e060020a028152600401602060405180830381600087803b158015611b7557600080fd5b505af1158015611b89573d6000803e3d6000fd5b505050506040513d6020811015611b9f57600080fd5b505183811515611bab57fe5b0591506000809054906101000a9004600160a060020a0316600160a060020a03166398d5fdca6040518163ffffffff1660e060020a028152600401602060405180830381600087803b158015611c0057600080fd5b505af1158015611c14573d6000803e3d6000fd5b505050506040513d6020811015611c2a57600080fd5b505160008054604080517f5a7991bc00000000000000000000000000000000000000000000000000000000815260ff891660048201529051600160a060020a0390921692635a7991bc926024808401936020939083900390910190829087803b158015611c9657600080fd5b505af1158015611caa573d6000803e3d6000fd5b505050506040513d6020811015611cc057600080fd5b50518302811515611ccd57fe5b05905080600760ff861660088110611ce157fe5b01555b600190930192611928565b600754600f55600254604080517f053f14da0000000000000000000000000000000000000000000000000000000081529051600160a060020a039092169163053f14da916004808201926020929091908290030181600087803b158015611d5557600080fd5b505af1158015611d69573d6000803e3d6000fd5b505050506040513d6020811015611d7f57600080fd5b5051600254604080517f98d5fdca0000000000000000000000000000000000000000000000000000000081529051600160a060020a03909216916398d5fdca916004808201926020929091908290030181600087803b158015611de157600080fd5b505af1158015611df5573d6000803e3d6000fd5b505050506040513d6020811015611e0b57600080fd5b50516010805460ff191692909111919091179055505050505050565b60045462010000900461ffff1681565b600160a060020a038082166000908152601160205260408120549091169080808315611f585783905080600160a060020a031663e09b0a956040518163ffffffff1660e060020a028152600401602060405180830381600087803b158015611e9e57600080fd5b505af1158015611eb2573d6000803e3d6000fd5b505050506040513d6020811015611ec857600080fd5b5051604080517f2ac6da140000000000000000000000000000000000000000000000000000000081529051919450600160a060020a03831691632ac6da14916004808201926020929091908290030181600087803b158015611f2957600080fd5b505af1158015611f3d573d6000803e3d6000fd5b505050506040513d6020811015611f5357600080fd5b505191505b509193909250565b600160a060020a0380821660009081526011602052604081205490911615611f8a57506000611fdd565b50600160a060020a038281166000818152601160205260408082208054868616845291832080549290951673ffffffffffffffffffffffffffffffffffffffff1992831617909455919052815416905560015b92915050565b81810182811015611fdd57fe5b600082821115611ffc57fe5b50900390565b600082151561201357506000611fdd565b5081810281838281151561202357fe5b0414611fdd57fe5b6060604051908101604052806003906020820280388339509192915050565b604051611c1c806120d683390190565b610100604051908101604052806008906020820280388339509192915050565b82600881019282156120a8579160200282015b828111156120a857825182559160200191906001019061208d565b506120b49291506120b8565b5090565b6120d291905b808211156120b457600081556001016120be565b905600608060405234801561001057600080fd5b50604051604080611c1c83398101604052805160209091015160018054600160a060020a03928316600160a060020a03199182161790915560008054929093169116179055611bb8806100646000396000f30060806040526004361061018a5763ffffffff7c01000000000000000000000000000000000000000000000000000000006000350416630c96dfc5811461018f578063102b00981461020057806313d8c8401461022757806323a8da861461023c57806327e235e3146102545780632ac6da14146102755780633b5d2f911461028a57806340f6ac31146102a257806345349baa146102b757806348fdb8711461031957806350c946fe1461032e578063524d81d31461035f5780635fd8c71014610374578063613a3f121461038957806370d5ae05146103af578063777d2381146103e05780637d1c7ba0146103f55780638b76ca931461040a5780638c6897881461041f5780638ca0fd39146104345780638da5cb5b1461045e5780638f7dcfa31461047357806392ef178514610488578063aa69f1f114610493578063ca1e455d1461049b578063d32a27d5146104b7578063d86e697d146104cc578063e09b0a9514610502578063f4b8062d14610517578063f642c34f1461052e578063f851a44014610549575b600080fd5b34801561019b57600080fd5b50604080516101008181019092526101fe91369160049161010491908390600890839083908082843750506040805160608181019092529497969581810195945092506003915083908390808284375093965050505090351515915061055e9050565b005b34801561020c57600080fd5b5061021561096e565b60408051918252519081900360200190f35b34801561023357600080fd5b50610215610974565b34801561024857600080fd5b5061021560043561097a565b34801561026057600080fd5b50610215600160a060020a0360043516610999565b34801561028157600080fd5b506102156109ab565b34801561029657600080fd5b506101fe6004356109b1565b3480156102ae57600080fd5b50610215610a4f565b3480156102c357600080fd5b506102cf600435610a55565b60408051600160a060020a03909816885260208801969096528686019490945260ff909216606086015215156080850152151560a0840152151560c0830152519081900360e00190f35b34801561032557600080fd5b50610215610aae565b34801561033a57600080fd5b50610346600435610ad5565b6040805192835260208301919091528051918290030190f35b34801561036b57600080fd5b50610215610aef565b34801561038057600080fd5b506101fe610af5565b6101fe600435602435600160a060020a036044351660ff60643581169060843516610b3a565b3480156103bb57600080fd5b506103c4610cc5565b60408051600160a060020a039092168252519081900360200190f35b3480156103ec57600080fd5b50610215610cca565b34801561040157600080fd5b50610215610cd0565b34801561041657600080fd5b506101fe610cd6565b34801561042b57600080fd5b50610215610cf9565b34801561044057600080fd5b506101fe600435602435604435600160a060020a0360643516610cff565b34801561046a57600080fd5b506103c4610ddd565b34801561047f57600080fd5b50610215610dec565b6101fe600435610df2565b6101fe610e25565b610215600160a060020a03600435166024356044351515610e3d565b3480156104c357600080fd5b506102156111b8565b3480156104d857600080fd5b506104e46004356111be565b60408051938452602084019290925282820152519081900360600190f35b34801561050e57600080fd5b50610215611296565b6101fe600435600160a060020a036024351661129c565b34801561053a57600080fd5b506101fe60ff600435166113b9565b34801561055557600080fd5b506103c46114b7565b6000806000806000806000806000806000600160009054906101000a9004600160a060020a0316600160a060020a031633600160a060020a03161415156105a457600080fd5b60009a508b156105b857600c5499506105be565b600d5499505b89156109595760008a8152600e6020526040902098508997508b156105e957886001015499506105ee565b885499505b600489015460058a01548f9060ff166008811061060757fe5b602002015160058b01805460ff19169081905591029650610100900460ff16156106595760208d015160048a015460408f01516103e8600191820b83028190058a019390910b90910205019650610683565b8c5160048a015460408f01516103e8600191820b83028190058a016000039390910b909102050196505b60008713156106945786935061069c565b866000190293505b60008713156107465760038901546106b490856114c6565b60038a01549095506106cc908663ffffffff6114df16565b60038a0155600589015465010000000000900460ff161515610703576004546106fb908663ffffffff6114f116565b600455610741565b6005890154670100000000000000900460ff161561072e576004546106fb908663ffffffff6114f116565b61073e8b8663ffffffff6114f116565b9a505b61080d565b6107508b856114c6565b92506107606004548486036114c6565b600454909250610776908363ffffffff6114df16565b6004556107898b8463ffffffff6114df16565b60058a0154909b5065010000000000900460ff1615156107c45760038901546107ba9083850163ffffffff6114f116565b60038a015561080d565b6005890154670100000000000000900460ff1615156107f45760038901546107ba9083850163ffffffff6114f116565b600a546108099083850163ffffffff6114f116565b600a555b600589015465010000000000900460ff168061083557506005890154640100000000900460ff165b1561084857610843886114fe565b6105be565b60058901546601000000000000900460ff16156108be576005890154610100900460ff16156108905760048901546005546108889163ffffffff6114f116565b6005556108ab565b60048901546006546108a79163ffffffff6114f116565b6006555b60058901805466ff000000000000191690555b600489015460038a015410156108435760038901546108de9060646114c6565b60038a01549091506108f6908263ffffffff6114df16565b60038a015560045461090e908263ffffffff6114f116565b60045561091a886114fe565b60028901546040518991600160a060020a0316907f950c076252eaa33bd75047ed815554ed9e51d125a32e50ecaba55381c156fc1990600090a36105be565b50506000600755505050505050505050505050565b60035481565b600d5481565b600f80548290811061098857fe5b600091825260209091200154905081565b60086020526000908152604090205481565b60065481565b600154600090600160a060020a031633146109cb57600080fd5b6109d3610aae565b90506109e5818363ffffffff6114f116565b60045410156109f357600080fd5b600454610a06908363ffffffff6114df16565b60045560008054600160a060020a0316815260086020526040902054610a32908363ffffffff6114f116565b60008054600160a060020a03168152600860205260409020555050565b600a5481565b6000908152600e60205260409020600281015460038201546004830154600590930154600160a060020a039092169390929160ff8082169261010083048216926401000000008104831692650100000000009091041690565b60006006546005541115610ac9575060065460055403610ad2565b50600554600654035b90565b6000908152600e6020526040902080546001909101549091565b60095481565b33600081815260086020526040808220805490839055905190929183156108fc02918491818181858888f19350505050158015610b36573d6000803e3d6000fd5b5050565b6001546000908190600160a060020a03163314610b5657600080fd5b6000868152600e602052604090206002810154909250600160a060020a0386811691161480610b925750600054600160a060020a038681169116145b1515610b9d57600080fd5b6005820154640100000000900460ff1615610bb757600080fd5b60058201546301000000900460ff1615610be157600482015460649060ff8616025b049050610c11565b600254871115610c0057600482015460649060ff851602600202610bd9565b600482015460649060ff8516020490505b34811115610c1e57600080fd5b6002820154600160a060020a0386811691161415610c5157600454610c49908263ffffffff6114f116565b600455610c82565b600054600160a060020a0386811691161415610c82576003820154610c7c908263ffffffff6114f116565b60038301555b600160a060020a03909416600090815260086020526040902080543495909503949094019093555050600501805464ff0000000019166401000000001790555050565b600081565b60045481565b60075481565b600254621a5e00014211610ce957600080fd5b6002541515610cf757600080fd5b565b60025481565b600154600090600160a060020a03163314610d1957600080fd5b6002548410610d2757600080fd5b506000848152600e602052604090206002810154600160a060020a03838116911614610d5257600080fd5b6004810154610d67908463ffffffff6114f116565b60038201541015610d7757600080fd5b6003810154610d8c908463ffffffff6114df16565b6003820155600160a060020a038216600090815260086020526040902054610dba908463ffffffff6114f116565b600160a060020a0390921660009081526008602052604090209190915550505050565b600054600160a060020a031681565b600c5481565b6000818152600e60205260409020600581015462010000900460ff161515610e1957600080fd5b60030180543401905550565b600454610e38903463ffffffff6114f116565b600455565b6000806000610e4a611acc565b6000610e54611b28565b600154600160a060020a03163314610e6b57600080fd5b879450610e7e348663ffffffff6114df16565b600754909450610e94908663ffffffff6114f116565b600755600454610eaa908563ffffffff6114f116565b600455604083810186905287156080850152600160a085018190526020808601889052610120860191909152600160a060020a038b811686526009546000548451808501929092529091166c010000000000000000000000000281840152426054808301919091528351808303909101815260749091019283905280519092918291908401908083835b60208310610f535780518252601f199092019160209182019101610f34565b6001836020036101000a03801982511681845116808217855250505050505090500191505060405180910390209150600160096000828254019250508190555082816040018190525080600e60008460001916600019168152602001908152602001600020600082015181600001906000191690556020820151816001019060001916905560408201518160020160008201518160000160006101000a815481600160a060020a030219169083600160a060020a03160217905550602082015181600101556040820151816002015560608201518160030160006101000a81548160ff021916908360ff16021790555060808201518160030160016101000a81548160ff02191690831515021790555060a08201518160030160026101000a81548160ff02191690831515021790555060c08201518160030160036101000a81548160ff02191690831515021790555060e08201518160030160046101000a81548160ff0219169083151502179055506101008201518160030160056101000a81548160ff0219169083151502179055506101208201518160030160066101000a81548160ff0219169083151502179055506101408201518160030160076101000a81548160ff0219169083151502179055505050905050600f829080600181540180825580915050906001820390600052602060002001600090919290919091509060001916905550816000191689600160a060020a03167f40fdfa24bd8824df63e84a7d751da75da0ff20a5c64b6934cc29d5e0ad973b82876040518082815260200191505060405180910390a36111ac826117fb565b50979650505050505050565b600b5481565b600e60209081526000918252604091829020805460018201548451610160810186526002840154600160a060020a0316815260038401549481019490945260048301549484019490945260059091015460ff80821660608501526101008083048216151560808601526201000083048216151560a0860152630100000083048216151560c086015264010000000083048216151560e086015265010000000000830482161515908501526601000000000000820481161515610120850152670100000000000000909104161515610140830152919083565b60055481565b6001546000908190600160a060020a031633146112b857600080fd5b6000848152600e602052604081209054909250600160a060020a03848116911614806112f357506002820154600160a060020a038481169116145b15156112fe57600080fd5b600582015465010000000000900460ff161561131957600080fd5b506004810154600390043481111561133057600080fd5b600054600160a060020a03163314156113615760058201805467ff0000000000000019166701000000000000001790555b600a54611374908263ffffffff6114f116565b600a55600160a060020a0390921660009081526008602052604090208054349390930392909201909155600501805465ff000000000019166501000000000017905550565b60015460009081908190600160a060020a031633146113d757600080fd5b600f549250600091505b828263ffffffff1610156114a557600e6000600f8463ffffffff1681548110151561140857fe5b600091825260208083209091015483528201929092526040019020600581015490915060ff640100000000909104168061144f5750600581015465010000000000900460ff165b156114815761147c600f8363ffffffff1681548110151561146c57fe5b90600052602060002001546114fe565b61149a565b60058101805460ff191660ff86161763ff000000191690555b6001909101906113e1565b6114b1600f6000611b4d565b50505050565b600154600160a060020a031681565b60008183106114d65750806114d9565b50815b92915050565b6000828211156114eb57fe5b50900390565b818101828110156114d957fe5b600080611509611b28565b6000848152600e60205260409020600c5490935084141561152d576001830154600c555b600d5484141561153d578254600d555b82541561155f5760018084015484546000908152600e60205260409020909101555b60018301541561158057825460018401546000908152600e60205260409020555b600383018054600090915560058401549092506601000000000000900460ff1615156115ea576005830154610100900460ff16156115d3576005546115cb908363ffffffff6114df16565b6005556115ea565b6006546115e6908363ffffffff6114df16565b6006555b6002830154600160a060020a0316600090815260086020526040902054611617908363ffffffff6114f116565b600860008560020160000160009054906101000a9004600160a060020a0316600160a060020a0316600160a060020a031681526020019081526020016000208190555080600e60008660001916600019168152602001908152602001600020600082015181600001906000191690556020820151816001019060001916905560408201518160020160008201518160000160006101000a815481600160a060020a030219169083600160a060020a03160217905550602082015181600101556040820151816002015560608201518160030160006101000a81548160ff021916908360ff16021790555060808201518160030160016101000a81548160ff02191690831515021790555060a08201518160030160026101000a81548160ff02191690831515021790555060c08201518160030160036101000a81548160ff02191690831515021790555060e08201518160030160046101000a81548160ff0219169083151502179055506101008201518160030160056101000a81548160ff0219169083151502179055506101208201518160030160066101000a81548160ff0219169083151502179055506101408201518160030160076101000a81548160ff02191690831515021790555050509050506001600b5403600b8190555050505050565b6000818152600e60205260408120600b5490916002830191819081908190151561182e57600c879055600d87905561195f565b600c5460028601546003870154919550600094509250610100900460ff16151561185a57816000190291505b506000838152600e602052604090206004810154600590910154610100900460ff161515611886576000035b5b80821215611903576000848152600e602052604090206001015415156118c8576000848152600e602052604090206001908101889055600d88905584875592505b506000928352600e60205260408084206001015480855293206004810154600590910154610100900460ff1615156118fe576000035b611887565b82151561195f576000848152600e602052604090205480875515611940576000848152600e60205260408082205482529020600101879055611946565b600c8790555b6000848152600e60205260409020879055600186018490555b50505060009384525050600e60205260409091208154815560018083015481830155600280840154908301805473ffffffffffffffffffffffffffffffffffffffff1916600160a060020a0390921691909117905560038084015490830155600480840154908301556005928301805493909201805460ff191660ff94851617808255835461010090819004861615150261ff00199091161780825583546201000090819004861615150262ff000019909116178082558354630100000090819004861615150263ff0000001990911617808255835464010000000090819004861615150264ff00000000199091161780825583546501000000000090819004861615150265ff000000000019909116178082558354660100000000000090819004861615150266ff0000000000001990911617808255925467010000000000000090819004909416151590930267ff000000000000001990921691909117909155600b80549091019055565b6040805161016081018252600080825260208201819052918101829052606081018290526080810182905260a0810182905260c0810182905260e081018290526101008101829052610120810182905261014081019190915290565b604080516101a08101825260008082526020820152908101611b48611acc565b905290565b5080546000825590600052602060002090810190611b6b9190611b6e565b50565b610ad291905b80821115611b885760008155600101611b74565b50905600a165627a7a723058206dbe63fcd714d80fc2d950a59af02ce293ff5ca9c391fc4a059bacc9192626130029a165627a7a7230582065519ce5796d69fa407017c3e922215b0c9a1e0e46b68e3f47d4578af2d0a9820029",
  "source": "pragma solidity ^0.4.24;\n\nimport \"./Book.sol\";\nimport \"./Oracle.sol\";\nimport \"openzeppelin-solidity/contracts/math/SafeMath.sol\";\n\ncontract SwapMarket {\n    \n    using SafeMath for uint;\n    \n    Oracle public ETHUSD;\n    Oracle public USEQVOL;\n    Oracle public AssetOracle;\n\n    uint public minRM;\n    uint8 public openFee;\n    uint8 public cancelFee;\n    uint16 public burnFee;\n    address public admin;\n    \n    struct makerRates{\n        int16 currentLong;\n        int16 currentShort;\n        int16 nextLong;\n        int16 nextShort;\n        bool updated;\n    }\n\n    makerRates public defaultRates;\n    \n    uint maxOrderLimit;\n\n    int[8] public dailyReturns;\n    int public weeklyReturn;\n    bool public longProfited;\n    //owner specific info\n    mapping(address => address) public books;\n    mapping(address => address) public ownerChanges;\n    mapping (address => makerRates) public rates;\n    mapping(address => uint) public openMargins;\n    mapping(address => uint) public balances;\n    \n    uint8 constant public marginSafetyFactor = 100;\n    \n    uint public collectedFees;\n\n    bool public isPaused;\n\n    event OpenMargin(address _maker, address _book);\n    event OrderTaken(address _maker, address indexed taker, bytes32 id);\n    \n    modifier onlyAdmin() {\n        require (msg.sender == admin);\n        _;\n    }\n\n    modifier pausable() {\n        require (!isPaused);\n        _;\n    }\n    \n    constructor (\n        address _ethoracle,\n        address _useqvoloracle,\n        address _assetoracle\n        )\n        public\n    {\n        admin = msg.sender;\n        makerRates memory adminRates;\n        // todo can't change\n        adminRates.nextLong = 10;\n        adminRates.nextShort = 4;\n        adminRates.currentLong = 10;\n        adminRates.currentShort = 4;\n\n        defaultRates = adminRates;\n\n        openFee = 2;\n        cancelFee = 3;\n        burnFee = 5;\n        \n        ETHUSD = Oracle(_ethoracle);\n        USEQVOL = Oracle(_useqvoloracle);\n        AssetOracle = Oracle(_assetoracle);\n\n        isPaused = false;\n\n        minRM = 1 * (1 ether);\n        \n    }   \n\n    // Tools for being Liquidity provider\n    function increaseOpenMargin(uint amount) \n        public\n        payable\n    {\n        require (msg.value == amount);\n        if (books[msg.sender] == 0x0) // make a new book\n            books[msg.sender] = new Book(msg.sender, this);\n        openMargins[msg.sender] = openMargins[msg.sender].add(msg.value);\n        emit OpenMargin(msg.sender, books[msg.sender]);\n    }\n\n    function reduceOpenMargin(uint amount) \n        public\n        payable\n    {\n        require (openMargins[msg.sender] >= amount);\n        openMargins[msg.sender] = openMargins[msg.sender].sub(amount);\n        balances[msg.sender] = balances[msg.sender].add(amount);\n        \n    }\n    \n    /*function getMakerRates(address maker)\n        public\n        view\n        returns (int16 longRate, int16 shortRate, int16 nextLong, int16 nextShort)\n    {\n        makerRates storage mRates = rates[maker];\n        longRate = mRates.currentLong;\n        shortRate = mRates.currentShort;\n        nextLong = mRates.nextLong;\n        nextShort = mRates.nextShort;\n    }*/\n\n    function getBookData(address maker)\n        public\n        view\n        returns (address book, uint totalLong, uint totalShort)\n    {\n        book = books[maker];\n        if (book != 0x0) {\n            Book b = Book(book);\n            totalLong = b.totalLongMargin();\n            totalShort = b.totalShortMargin();\n        }\n    }\n\n    function getSubcontractData(address maker, bytes32 id)\n        public\n        view\n        returns (address taker, uint takerMargin, uint reqMargin,\n         uint8 initialDay, bool side, bool isCancelled, bool isBurned)\n    {\n        address book = books[maker];\n        if (book != 0x0) {\n            Book b = Book(book);\n            (taker, takerMargin, reqMargin, initialDay,\n                side, isCancelled, isBurned) = b.getSubcontract(id);\n        }\n    }\n    \n    function take(address maker, uint amount, bool side)\n        public\n        payable\n        pausable\n    {\n        require(msg.value == amount * (1 ether)); // allow only whole number amounts\n        require(msg.value >= minRM);\n        Book book = Book(books[maker]);\n        uint makerLong = book.totalLongMargin();\n        uint makerShort = book.totalShortMargin();\n        uint feeAmount = (msg.value * openFee)/100;\n        require(openMargins[maker] >= feeAmount);\n\n        uint freeMargin = 0;\n        if (side) // taker is long, maker is short\n        {\n            if (makerLong > makerShort)\n                freeMargin = makerLong - makerShort;\n        }\n        else // taker is short, maker is long\n        {\n            if (makerShort > makerLong)\n                freeMargin = makerShort - makerLong;\n        }\n\n        require(msg.value + feeAmount <= openMargins[maker] + freeMargin);\n        uint remainder = openMargins[maker].sub((msg.value - freeMargin) + feeAmount);\n        openMargins[maker] = remainder;\n        collectedFees = collectedFees.add(feeAmount);\n        bytes32 newId = book.take.value(msg.value + (msg.value - freeMargin))(msg.sender, msg.value, side);\n        emit OrderTaken(maker, msg.sender, newId);\n    }\n\n    function firstPrice(address owner)\n        public\n        onlyAdmin\n    {\n        if (books[owner] == 0x0)\n            return;\n        Book b = Book(books[owner]);\n        b.firstSettle(AssetOracle.currentDay());\n    }\n\n    function computeReturns()\n        public\n        onlyAdmin\n    {\n        // pnl is caclulated as follows:\n        // PNL = USDNotional_t-1 * return / ETH_t\n        // USDNotional = RM / MarginRate * ETH_t-1\n        // return = A_t/A_t-1 - 1\n        // so PNL = (RM / MarginRate) * return * (ETH_t-1/ETH_t)\n        // for 1 ETH pnl = return/marginRate * (ETH_t-1/ETH_t)\n\n        int[8] memory blank;\n        dailyReturns = blank;\n        uint numDays = 8;\n        for (uint8 i = 0; i < numDays; i++)\n        {\n            // Do nothing if empty\n            if (AssetOracle.lastWeekPrices(i) == 0)\n                continue;\n            int assetReturn = (int(AssetOracle.getPrice().mul(1 ether)) / int(AssetOracle.lastWeekPrices(i))) - (1 ether);\n            int leveraged = assetReturn / int(USEQVOL.getPrice());\n            int pnl = (leveraged * int(ETHUSD.lastWeekPrices(i)))/int(ETHUSD.getPrice());\n\n            dailyReturns[i] = pnl;\n        }\n        weeklyReturn = dailyReturns[0];\n        longProfited = (AssetOracle.getPrice() > AssetOracle.lastPrice());\n    }\n    \n    function settle(address owner)\n        public\n        onlyAdmin\n    {\n        if (books[owner] == 0x0)\n            return; \n        Book b = Book(books[owner]);\n        int16[3] memory settleRates;\n        makerRates storage mRates = rates[owner];\n\n        // Give makers default rates\n        if (mRates.currentLong == 0 && mRates.currentShort == 0)\n        {\n            settleRates[0] = defaultRates.currentLong;\n            settleRates[1] = defaultRates.currentShort;\n        }\n        else\n        {\n            settleRates[0] = rates[owner].currentLong;\n            settleRates[1] = rates[owner].currentShort;\n        }\n        \n        settleRates[2] = AssetOracle.basis();\n        \n        b.settle(dailyReturns, settleRates, longProfited);\n        \n        mRates.currentLong = mRates.nextLong;\n        mRates.currentShort = mRates.nextShort;\n        \n        if (ownerChanges[owner] != 0x0)\n            ownerModify(owner, ownerChanges[owner]);\n        \n        ownerChanges[owner] = 0x0;\n        \n    }\n    \n    function setRate(int16 longRate, int16 shortRate)\n        public\n    {\n        require(0 < longRate + shortRate);\n        require(longRate + shortRate < 52);\n        //require()\n        require(!AssetOracle.isFinalDay()); // Rates locked in by day before\n        makerRates storage mRates = rates[msg.sender];\n        mRates.nextLong = longRate;\n        mRates.nextShort = shortRate;\n    }\n\n    function playerBurn(address owner, bytes32 id)\n        public\n        payable\n    {\n        // TODO make sure only durring settle period\n        Book b = Book(books[owner]);\n        b.burn.value(msg.value)(id, msg.sender);\n    }\n    \n    function playerCancel(address owner, bytes32 id)\n        public\n        payable\n    {\n        Book b = Book(books[owner]);\n        b.cancel.value(msg.value)(AssetOracle.lastWeeklyTime(), id, msg.sender, openFee, cancelFee);\n    }\n    \n    function changeOwner(address _newOwner)\n        public\n    {\n        ownerChanges[msg.sender] = _newOwner;\n    }\n    \n    function ownerModify(address _oldOwner, address _newOwner)\n        internal\n        returns (bool valid)\n    {\n        if (books[_newOwner] != 0x0)\n            return false;\n        books[_newOwner] = books[_oldOwner];\n        books[_oldOwner] = 0x0;\n        return true;\n    }\n\n    function takerFund(address maker, bytes32 id)\n        public\n        payable\n    {\n        require(books[maker] != 0x0);\n        Book b = Book(books[maker]);\n        b.fundTakerMargin.value(msg.value)(id);\n    }\n\n    function lpFund(address maker)\n        public\n        payable\n    {\n        require(books[maker] != 0x0);\n        Book b = Book(books[maker]);\n        b.fundOwnerMargin.value(msg.value)();\n    }\n    \n    function takerWithdrawal(uint amount, address owner, bytes32 id)\n        public\n    {\n        require(books[owner] != 0x0);\n        Book b = Book(books[owner]);\n        b.takerWithdrawal(id, AssetOracle.lastWeeklyTime(), amount, msg.sender);\n    }\n    \n    function ownerMarginWithdrawal(uint amount)\n        public\n    {\n        require(books[msg.sender] != 0x0);\n        \n        Book b = Book(books[msg.sender]);\n        b.ownerMarginWithdrawal(amount);\n    }\n\n    function collectBalance()\n        public \n    {\n        uint amount = balances[msg.sender];\n        balances[msg.sender] = 0;\n        msg.sender.transfer(amount);\n    }\n\n    function pause(bool newPaused)\n        onlyAdmin\n    {\n        isPaused = newPaused;\n    }\n}",
  "sourcePath": "/Users/mackenzie/drizzlecontract/contracts/SwapMarket.sol",
  "compiler": {
    "name": "solc",
    "version": "0.4.24+commit.e67f0147.Emscripten.clang"
  },
  "schemaVersion": "2.0.1",
  "updatedAt": "2018-09-13T22:53:47.749Z"
}