{
  "contractName": "TutorialToken",
  "abi": [
    {
      "constant": true,
      "inputs": [],
      "name": "name",
      "outputs": [
        {
          "name": "",
          "type": "string"
        }
      ],
      "payable": false,
      "stateMutability": "view",
      "type": "function"
    },
    {
      "constant": false,
      "inputs": [
        {
          "name": "_spender",
          "type": "address"
        },
        {
          "name": "_value",
          "type": "uint256"
        }
      ],
      "name": "approve",
      "outputs": [
        {
          "name": "",
          "type": "bool"
        }
      ],
      "payable": false,
      "stateMutability": "nonpayable",
      "type": "function"
    },
    {
      "constant": true,
      "inputs": [],
      "name": "totalSupply",
      "outputs": [
        {
          "name": "",
          "type": "uint256"
        }
      ],
      "payable": false,
      "stateMutability": "view",
      "type": "function"
    },
    {
      "constant": false,
      "inputs": [
        {
          "name": "_from",
          "type": "address"
        },
        {
          "name": "_to",
          "type": "address"
        },
        {
          "name": "_value",
          "type": "uint256"
        }
      ],
      "name": "transferFrom",
      "outputs": [
        {
          "name": "",
          "type": "bool"
        }
      ],
      "payable": false,
      "stateMutability": "nonpayable",
      "type": "function"
    },
    {
      "constant": true,
      "inputs": [],
      "name": "INITIAL_SUPPLY",
      "outputs": [
        {
          "name": "",
          "type": "uint256"
        }
      ],
      "payable": false,
      "stateMutability": "view",
      "type": "function"
    },
    {
      "constant": true,
      "inputs": [],
      "name": "decimals",
      "outputs": [
        {
          "name": "",
          "type": "uint256"
        }
      ],
      "payable": false,
      "stateMutability": "view",
      "type": "function"
    },
    {
      "constant": false,
      "inputs": [
        {
          "name": "_spender",
          "type": "address"
        },
        {
          "name": "_subtractedValue",
          "type": "uint256"
        }
      ],
      "name": "decreaseApproval",
      "outputs": [
        {
          "name": "",
          "type": "bool"
        }
      ],
      "payable": false,
      "stateMutability": "nonpayable",
      "type": "function"
    },
    {
      "constant": true,
      "inputs": [
        {
          "name": "_owner",
          "type": "address"
        }
      ],
      "name": "balanceOf",
      "outputs": [
        {
          "name": "",
          "type": "uint256"
        }
      ],
      "payable": false,
      "stateMutability": "view",
      "type": "function"
    },
    {
      "constant": true,
      "inputs": [],
      "name": "symbol",
      "outputs": [
        {
          "name": "",
          "type": "string"
        }
      ],
      "payable": false,
      "stateMutability": "view",
      "type": "function"
    },
    {
      "constant": false,
      "inputs": [
        {
          "name": "_to",
          "type": "address"
        },
        {
          "name": "_value",
          "type": "uint256"
        }
      ],
      "name": "transfer",
      "outputs": [
        {
          "name": "",
          "type": "bool"
        }
      ],
      "payable": false,
      "stateMutability": "nonpayable",
      "type": "function"
    },
    {
      "constant": false,
      "inputs": [
        {
          "name": "_spender",
          "type": "address"
        },
        {
          "name": "_addedValue",
          "type": "uint256"
        }
      ],
      "name": "increaseApproval",
      "outputs": [
        {
          "name": "",
          "type": "bool"
        }
      ],
      "payable": false,
      "stateMutability": "nonpayable",
      "type": "function"
    },
    {
      "constant": true,
      "inputs": [
        {
          "name": "_owner",
          "type": "address"
        },
        {
          "name": "_spender",
          "type": "address"
        }
      ],
      "name": "allowance",
      "outputs": [
        {
          "name": "",
          "type": "uint256"
        }
      ],
      "payable": false,
      "stateMutability": "view",
      "type": "function"
    },
    {
      "inputs": [],
      "payable": false,
      "stateMutability": "nonpayable",
      "type": "constructor"
    },
    {
      "anonymous": false,
      "inputs": [
        {
          "indexed": true,
          "name": "owner",
          "type": "address"
        },
        {
          "indexed": true,
          "name": "spender",
          "type": "address"
        },
        {
          "indexed": false,
          "name": "value",
          "type": "uint256"
        }
      ],
      "name": "Approval",
      "type": "event"
    },
    {
      "anonymous": false,
      "inputs": [
        {
          "indexed": true,
          "name": "from",
          "type": "address"
        },
        {
          "indexed": true,
          "name": "to",
          "type": "address"
        },
        {
          "indexed": false,
          "name": "value",
          "type": "uint256"
        }
      ],
      "name": "Transfer",
      "type": "event"
    }
  ],
  "bytecode": "0x60c0604052600d60808190527f5475746f7269616c546f6b656e0000000000000000000000000000000000000060a090815261003e91600391906100b9565b506040805180820190915260028082527f54540000000000000000000000000000000000000000000000000000000000006020909201918252610083916004916100b9565b506002600555612ee060065534801561009b57600080fd5b50600654600181905533600090815260208190526040902055610154565b828054600181600116156101000203166002900490600052602060002090601f016020900481019282601f106100fa57805160ff1916838001178555610127565b82800160010185558215610127579182015b8281111561012757825182559160200191906001019061010c565b50610133929150610137565b5090565b61015191905b80821115610133576000815560010161013d565b90565b61089d806101636000396000f3006080604052600436106100b95763ffffffff7c010000000000000000000000000000000000000000000000000000000060003504166306fdde0381146100be578063095ea7b31461014857806318160ddd1461018057806323b872dd146101a75780632ff2e9dc146101d1578063313ce567146101e657806366188463146101fb57806370a082311461021f57806395d89b4114610240578063a9059cbb14610255578063d73dd62314610279578063dd62ed3e1461029d575b600080fd5b3480156100ca57600080fd5b506100d36102c4565b6040805160208082528351818301528351919283929083019185019080838360005b8381101561010d5781810151838201526020016100f5565b50505050905090810190601f16801561013a5780820380516001836020036101000a031916815260200191505b509250505060405180910390f35b34801561015457600080fd5b5061016c600160a060020a0360043516602435610352565b604080519115158252519081900360200190f35b34801561018c57600080fd5b506101956103b8565b60408051918252519081900360200190f35b3480156101b357600080fd5b5061016c600160a060020a03600435811690602435166044356103be565b3480156101dd57600080fd5b50610195610535565b3480156101f257600080fd5b5061019561053b565b34801561020757600080fd5b5061016c600160a060020a0360043516602435610541565b34801561022b57600080fd5b50610195600160a060020a0360043516610631565b34801561024c57600080fd5b506100d361064c565b34801561026157600080fd5b5061016c600160a060020a03600435166024356106a7565b34801561028557600080fd5b5061016c600160a060020a0360043516602435610788565b3480156102a957600080fd5b50610195600160a060020a0360043581169060243516610821565b6003805460408051602060026001851615610100026000190190941693909304601f8101849004840282018401909252818152929183018282801561034a5780601f1061031f5761010080835404028352916020019161034a565b820191906000526020600020905b81548152906001019060200180831161032d57829003601f168201915b505050505081565b336000818152600260209081526040808320600160a060020a038716808552908352818420869055815186815291519394909390927f8c5be1e5ebec7d5bd14f71427d1e84f3dd0314c0f7b2291e5b200ac8c7c3b925928290030190a350600192915050565b60015490565b6000600160a060020a03831615156103d557600080fd5b600160a060020a0384166000908152602081905260409020548211156103fa57600080fd5b600160a060020a038416600090815260026020908152604080832033845290915290205482111561042a57600080fd5b600160a060020a038416600090815260208190526040902054610453908363ffffffff61084c16565b600160a060020a038086166000908152602081905260408082209390935590851681522054610488908363ffffffff61085e16565b600160a060020a038085166000908152602081815260408083209490945591871681526002825282812033825290915220546104ca908363ffffffff61084c16565b600160a060020a03808616600081815260026020908152604080832033845282529182902094909455805186815290519287169391927fddf252ad1be2c89b69c2b068fc378daa952ba7f163c4a11628f55a4df523b3ef929181900390910190a35060019392505050565b60065481565b60055481565b336000908152600260209081526040808320600160a060020a03861684529091528120548083111561059657336000908152600260209081526040808320600160a060020a03881684529091528120556105cb565b6105a6818463ffffffff61084c16565b336000908152600260209081526040808320600160a060020a03891684529091529020555b336000818152600260209081526040808320600160a060020a0389168085529083529281902054815190815290519293927f8c5be1e5ebec7d5bd14f71427d1e84f3dd0314c0f7b2291e5b200ac8c7c3b925929181900390910190a35060019392505050565b600160a060020a031660009081526020819052604090205490565b6004805460408051602060026001851615610100026000190190941693909304601f8101849004840282018401909252818152929183018282801561034a5780601f1061031f5761010080835404028352916020019161034a565b6000600160a060020a03831615156106be57600080fd5b336000908152602081905260409020548211156106da57600080fd5b336000908152602081905260409020546106fa908363ffffffff61084c16565b3360009081526020819052604080822092909255600160a060020a0385168152205461072c908363ffffffff61085e16565b600160a060020a038416600081815260208181526040918290209390935580518581529051919233927fddf252ad1be2c89b69c2b068fc378daa952ba7f163c4a11628f55a4df523b3ef9281900390910190a350600192915050565b336000908152600260209081526040808320600160a060020a03861684529091528120546107bc908363ffffffff61085e16565b336000818152600260209081526040808320600160a060020a0389168085529083529281902085905580519485525191937f8c5be1e5ebec7d5bd14f71427d1e84f3dd0314c0f7b2291e5b200ac8c7c3b925929081900390910190a350600192915050565b600160a060020a03918216600090815260026020908152604080832093909416825291909152205490565b60008282111561085857fe5b50900390565b8181018281101561086b57fe5b929150505600a165627a7a723058203d95e21923459621ac38bf3370636eddfdbc4a35741b367143af099220a01fc40029",
  "source": "pragma solidity ^0.4.23;\n\nimport \"openzeppelin-solidity/contracts/token/ERC20/StandardToken.sol\";\n\ncontract TutorialToken is StandardToken {\n  string public name = \"TutorialToken\";\n  string public symbol = \"TT\";\n  uint public decimals = 2;\n  uint public INITIAL_SUPPLY = 12000;\n\n  constructor() public {\n    totalSupply_ = INITIAL_SUPPLY;\n    balances[msg.sender] = INITIAL_SUPPLY;\n  }\n}\n",
  "sourcePath": "/Users/mackenzie/drizzlecontract/contracts/TutorialToken.sol",
  "compiler": {
    "name": "solc",
    "version": "0.4.24+commit.e67f0147.Emscripten.clang"
  },
  "schemaVersion": "2.0.1",
  "updatedAt": "2018-09-13T22:53:27.120Z"
}